{
  "contractName": "CXCMurabaha",
  "abi": [
    {
      "inputs": [
        {
          "internalType": "string",
          "name": "_profitRate",
          "type": "string"
        },
        {
          "internalType": "uint256",
          "name": "_principal",
          "type": "uint256"
        },
        {
          "internalType": "address",
          "name": "_SPVAddr",
          "type": "address"
        },
        {
          "internalType": "address",
          "name": "_obligorAddr",
          "type": "address"
        }
      ],
      "payable": false,
      "stateMutability": "nonpayable",
      "type": "constructor"
    },
    {
      "anonymous": false,
      "inputs": [
        {
          "indexed": false,
          "internalType": "uint256",
          "name": "id",
          "type": "uint256"
        },
        {
          "indexed": false,
          "internalType": "uint256",
          "name": "timestamp",
          "type": "uint256"
        },
        {
          "indexed": false,
          "internalType": "string",
          "name": "status",
          "type": "string"
        },
        {
          "indexed": false,
          "internalType": "bytes32",
          "name": "installmentHash",
          "type": "bytes32"
        }
      ],
      "name": "ScheduleInstallmentEvent",
      "type": "event"
    },
    {
      "anonymous": false,
      "inputs": [
        {
          "indexed": false,
          "internalType": "uint256",
          "name": "id",
          "type": "uint256"
        },
        {
          "indexed": false,
          "internalType": "string",
          "name": "status",
          "type": "string"
        },
        {
          "indexed": false,
          "internalType": "int256",
          "name": "value",
          "type": "int256"
        }
      ],
      "name": "UpdateInstallmentEvent",
      "type": "event"
    },
    {
      "constant": true,
      "inputs": [],
      "name": "NumberOfInstallments",
      "outputs": [
        {
          "internalType": "uint256",
          "name": "",
          "type": "uint256"
        }
      ],
      "payable": false,
      "stateMutability": "view",
      "type": "function"
    },
    {
      "constant": true,
      "inputs": [],
      "name": "SPVAddr",
      "outputs": [
        {
          "internalType": "address",
          "name": "",
          "type": "address"
        }
      ],
      "payable": false,
      "stateMutability": "view",
      "type": "function"
    },
    {
      "constant": true,
      "inputs": [
        {
          "internalType": "uint256",
          "name": "timestamp",
          "type": "uint256"
        }
      ],
      "name": "getDay",
      "outputs": [
        {
          "internalType": "uint8",
          "name": "",
          "type": "uint8"
        }
      ],
      "payable": false,
      "stateMutability": "pure",
      "type": "function"
    },
    {
      "constant": true,
      "inputs": [
        {
          "internalType": "uint8",
          "name": "month",
          "type": "uint8"
        },
        {
          "internalType": "uint16",
          "name": "year",
          "type": "uint16"
        }
      ],
      "name": "getDaysInMonth",
      "outputs": [
        {
          "internalType": "uint8",
          "name": "",
          "type": "uint8"
        }
      ],
      "payable": false,
      "stateMutability": "pure",
      "type": "function"
    },
    {
      "constant": true,
      "inputs": [
        {
          "internalType": "uint256",
          "name": "timestamp",
          "type": "uint256"
        }
      ],
      "name": "getHour",
      "outputs": [
        {
          "internalType": "uint8",
          "name": "",
          "type": "uint8"
        }
      ],
      "payable": false,
      "stateMutability": "pure",
      "type": "function"
    },
    {
      "constant": true,
      "inputs": [
        {
          "internalType": "uint256",
          "name": "timestamp",
          "type": "uint256"
        }
      ],
      "name": "getMinute",
      "outputs": [
        {
          "internalType": "uint8",
          "name": "",
          "type": "uint8"
        }
      ],
      "payable": false,
      "stateMutability": "pure",
      "type": "function"
    },
    {
      "constant": true,
      "inputs": [
        {
          "internalType": "uint256",
          "name": "timestamp",
          "type": "uint256"
        }
      ],
      "name": "getMonth",
      "outputs": [
        {
          "internalType": "uint8",
          "name": "",
          "type": "uint8"
        }
      ],
      "payable": false,
      "stateMutability": "pure",
      "type": "function"
    },
    {
      "constant": true,
      "inputs": [
        {
          "internalType": "uint256",
          "name": "timestamp",
          "type": "uint256"
        }
      ],
      "name": "getSecond",
      "outputs": [
        {
          "internalType": "uint8",
          "name": "",
          "type": "uint8"
        }
      ],
      "payable": false,
      "stateMutability": "pure",
      "type": "function"
    },
    {
      "constant": true,
      "inputs": [
        {
          "internalType": "uint256",
          "name": "timestamp",
          "type": "uint256"
        }
      ],
      "name": "getWeekday",
      "outputs": [
        {
          "internalType": "uint8",
          "name": "",
          "type": "uint8"
        }
      ],
      "payable": false,
      "stateMutability": "pure",
      "type": "function"
    },
    {
      "constant": true,
      "inputs": [
        {
          "internalType": "uint256",
          "name": "timestamp",
          "type": "uint256"
        }
      ],
      "name": "getYear",
      "outputs": [
        {
          "internalType": "uint16",
          "name": "",
          "type": "uint16"
        }
      ],
      "payable": false,
      "stateMutability": "pure",
      "type": "function"
    },
    {
      "constant": true,
      "inputs": [
        {
          "internalType": "uint256",
          "name": "",
          "type": "uint256"
        }
      ],
      "name": "installments",
      "outputs": [
        {
          "internalType": "uint256",
          "name": "id",
          "type": "uint256"
        },
        {
          "internalType": "uint256",
          "name": "timestamp",
          "type": "uint256"
        },
        {
          "internalType": "int256",
          "name": "capital",
          "type": "int256"
        },
        {
          "internalType": "int256",
          "name": "reumn",
          "type": "int256"
        },
        {
          "internalType": "int256",
          "name": "rembCapital",
          "type": "int256"
        },
        {
          "internalType": "string",
          "name": "overallstatus",
          "type": "string"
        },
        {
          "internalType": "uint256",
          "name": "paymentsLength",
          "type": "uint256"
        },
        {
          "internalType": "int256",
          "name": "totalCollected",
          "type": "int256"
        }
      ],
      "payable": false,
      "stateMutability": "view",
      "type": "function"
    },
    {
      "constant": true,
      "inputs": [
        {
          "internalType": "uint16",
          "name": "year",
          "type": "uint16"
        }
      ],
      "name": "isLeapYear",
      "outputs": [
        {
          "internalType": "bool",
          "name": "",
          "type": "bool"
        }
      ],
      "payable": false,
      "stateMutability": "pure",
      "type": "function"
    },
    {
      "constant": true,
      "inputs": [
        {
          "internalType": "uint256",
          "name": "year",
          "type": "uint256"
        }
      ],
      "name": "leapYearsBefore",
      "outputs": [
        {
          "internalType": "uint256",
          "name": "",
          "type": "uint256"
        }
      ],
      "payable": false,
      "stateMutability": "pure",
      "type": "function"
    },
    {
      "constant": true,
      "inputs": [],
      "name": "obligorAddr",
      "outputs": [
        {
          "internalType": "address",
          "name": "",
          "type": "address"
        }
      ],
      "payable": false,
      "stateMutability": "view",
      "type": "function"
    },
    {
      "constant": true,
      "inputs": [],
      "name": "owner",
      "outputs": [
        {
          "internalType": "address",
          "name": "",
          "type": "address"
        }
      ],
      "payable": false,
      "stateMutability": "view",
      "type": "function"
    },
    {
      "constant": true,
      "inputs": [],
      "name": "paymentFrequency",
      "outputs": [
        {
          "internalType": "string",
          "name": "",
          "type": "string"
        }
      ],
      "payable": false,
      "stateMutability": "view",
      "type": "function"
    },
    {
      "constant": true,
      "inputs": [],
      "name": "principal",
      "outputs": [
        {
          "internalType": "uint256",
          "name": "",
          "type": "uint256"
        }
      ],
      "payable": false,
      "stateMutability": "view",
      "type": "function"
    },
    {
      "constant": true,
      "inputs": [],
      "name": "profitRate",
      "outputs": [
        {
          "internalType": "string",
          "name": "",
          "type": "string"
        }
      ],
      "payable": false,
      "stateMutability": "view",
      "type": "function"
    },
    {
      "constant": true,
      "inputs": [],
      "name": "tenor",
      "outputs": [
        {
          "internalType": "uint256",
          "name": "",
          "type": "uint256"
        }
      ],
      "payable": false,
      "stateMutability": "view",
      "type": "function"
    },
    {
      "constant": true,
      "inputs": [
        {
          "internalType": "uint16",
          "name": "year",
          "type": "uint16"
        },
        {
          "internalType": "uint8",
          "name": "month",
          "type": "uint8"
        },
        {
          "internalType": "uint8",
          "name": "day",
          "type": "uint8"
        },
        {
          "internalType": "uint8",
          "name": "hour",
          "type": "uint8"
        },
        {
          "internalType": "uint8",
          "name": "minute",
          "type": "uint8"
        }
      ],
      "name": "toTimestamp",
      "outputs": [
        {
          "internalType": "uint256",
          "name": "timestamp",
          "type": "uint256"
        }
      ],
      "payable": false,
      "stateMutability": "pure",
      "type": "function"
    },
    {
      "constant": true,
      "inputs": [
        {
          "internalType": "uint16",
          "name": "year",
          "type": "uint16"
        },
        {
          "internalType": "uint8",
          "name": "month",
          "type": "uint8"
        },
        {
          "internalType": "uint8",
          "name": "day",
          "type": "uint8"
        },
        {
          "internalType": "uint8",
          "name": "hour",
          "type": "uint8"
        }
      ],
      "name": "toTimestamp",
      "outputs": [
        {
          "internalType": "uint256",
          "name": "timestamp",
          "type": "uint256"
        }
      ],
      "payable": false,
      "stateMutability": "pure",
      "type": "function"
    },
    {
      "constant": true,
      "inputs": [
        {
          "internalType": "uint16",
          "name": "year",
          "type": "uint16"
        },
        {
          "internalType": "uint8",
          "name": "month",
          "type": "uint8"
        },
        {
          "internalType": "uint8",
          "name": "day",
          "type": "uint8"
        }
      ],
      "name": "toTimestamp",
      "outputs": [
        {
          "internalType": "uint256",
          "name": "timestamp",
          "type": "uint256"
        }
      ],
      "payable": false,
      "stateMutability": "pure",
      "type": "function"
    },
    {
      "constant": true,
      "inputs": [
        {
          "internalType": "uint16",
          "name": "year",
          "type": "uint16"
        },
        {
          "internalType": "uint8",
          "name": "month",
          "type": "uint8"
        },
        {
          "internalType": "uint8",
          "name": "day",
          "type": "uint8"
        },
        {
          "internalType": "uint8",
          "name": "hour",
          "type": "uint8"
        },
        {
          "internalType": "uint8",
          "name": "minute",
          "type": "uint8"
        },
        {
          "internalType": "uint8",
          "name": "second",
          "type": "uint8"
        }
      ],
      "name": "toTimestamp",
      "outputs": [
        {
          "internalType": "uint256",
          "name": "timestamp",
          "type": "uint256"
        }
      ],
      "payable": false,
      "stateMutability": "pure",
      "type": "function"
    },
    {
      "constant": false,
      "inputs": [
        {
          "internalType": "uint256",
          "name": "_timestamp",
          "type": "uint256"
        },
        {
          "internalType": "int256",
          "name": "_capital",
          "type": "int256"
        },
        {
          "internalType": "int256",
          "name": "_reumn",
          "type": "int256"
        },
        {
          "internalType": "int256",
          "name": "_rembCapital",
          "type": "int256"
        }
      ],
      "name": "ScheduleInstallment",
      "outputs": [
        {
          "internalType": "uint256",
          "name": "",
          "type": "uint256"
        }
      ],
      "payable": false,
      "stateMutability": "nonpayable",
      "type": "function"
    },
    {
      "constant": false,
      "inputs": [
        {
          "internalType": "uint256",
          "name": "_id",
          "type": "uint256"
        },
        {
          "internalType": "uint256",
          "name": "_status",
          "type": "uint256"
        },
        {
          "internalType": "string",
          "name": "_TxId",
          "type": "string"
        },
        {
          "internalType": "int256",
          "name": "_value",
          "type": "int256"
        },
        {
          "internalType": "string",
          "name": "_paymentType",
          "type": "string"
        }
      ],
      "name": "UpdateInstallment",
      "outputs": [
        {
          "internalType": "bool",
          "name": "",
          "type": "bool"
        }
      ],
      "payable": false,
      "stateMutability": "nonpayable",
      "type": "function"
    },
    {
      "constant": true,
      "inputs": [
        {
          "internalType": "uint256",
          "name": "_installmentId",
          "type": "uint256"
        },
        {
          "internalType": "uint256",
          "name": "_index",
          "type": "uint256"
        }
      ],
      "name": "GetPayments",
      "outputs": [
        {
          "internalType": "uint256",
          "name": "",
          "type": "uint256"
        },
        {
          "internalType": "uint256",
          "name": "",
          "type": "uint256"
        },
        {
          "internalType": "int256",
          "name": "",
          "type": "int256"
        },
        {
          "internalType": "uint256",
          "name": "",
          "type": "uint256"
        },
        {
          "internalType": "string",
          "name": "",
          "type": "string"
        },
        {
          "internalType": "string",
          "name": "",
          "type": "string"
        }
      ],
      "payable": false,
      "stateMutability": "view",
      "type": "function"
    },
    {
      "constant": true,
      "inputs": [
        {
          "internalType": "uint256",
          "name": "_installmentId",
          "type": "uint256"
        }
      ],
      "name": "GetPaymentsTotal",
      "outputs": [
        {
          "internalType": "int256",
          "name": "",
          "type": "int256"
        }
      ],
      "payable": false,
      "stateMutability": "view",
      "type": "function"
    }
  ],
  "bytecode": "0x6080604052600a6002556040518060400160405280600781526020017f6d6f6e74686c7900000000000000000000000000000000000000000000000000815250600390805190602001906200005692919062000428565b503480156200006457600080fd5b50604051620030ee380380620030ee833981810160405260808110156200008a57600080fd5b8101908080516040519392919084640100000000821115620000ab57600080fd5b83820191506020820185811115620000c257600080fd5b8251866001820283011164010000000082111715620000e057600080fd5b8083526020830192505050908051906020019080838360005b8381101562000116578082015181840152602081019050620000f9565b50505050905090810190601f168015620001445780820380516001836020036101000a031916815260200191505b506040526020018051906020019092919080519060200190929190805190602001909291905050506000845111620001c8576040517f08c379a0000000000000000000000000000000000000000000000000000000008152600401808060200182810382526021815260200180620030a86021913960400191505060405180910390fd5b600083141562000224576040517f08c379a0000000000000000000000000000000000000000000000000000000008152600401808060200182810382526024815260200180620030636024913960400191505060405180910390fd5b600073ffffffffffffffffffffffffffffffffffffffff168273ffffffffffffffffffffffffffffffffffffffff161415620002ac576040517f08c379a0000000000000000000000000000000000000000000000000000000008152600401808060200182810382526021815260200180620030876021913960400191505060405180910390fd5b600073ffffffffffffffffffffffffffffffffffffffff168173ffffffffffffffffffffffffffffffffffffffff16141562000334576040517f08c379a0000000000000000000000000000000000000000000000000000000008152600401808060200182810382526025815260200180620030c96025913960400191505060405180910390fd5b336000806101000a81548173ffffffffffffffffffffffffffffffffffffffff021916908373ffffffffffffffffffffffffffffffffffffffff16021790555083600490805190602001906200038c92919062000428565b508260058190555081600660006101000a81548173ffffffffffffffffffffffffffffffffffffffff021916908373ffffffffffffffffffffffffffffffffffffffff16021790555080600760006101000a81548173ffffffffffffffffffffffffffffffffffffffff021916908373ffffffffffffffffffffffffffffffffffffffff160217905550600060018190555050505050620004d7565b828054600181600116156101000203166002900490600052602060002090601f016020900481019282601f106200046b57805160ff19168380011785556200049c565b828001600101855582156200049c579182015b828111156200049b5782518255916020019190600101906200047e565b5b509050620004ab9190620004af565b5090565b620004d491905b80821115620004d0576000816000905550600101620004b6565b5090565b90565b612b7c80620004e76000396000f3fe608060405234801561001057600080fd5b50600436106101a95760003560e01c80638da5cb5b116100f9578063b199993711610097578063ba5d307811610071578063ba5d307814610be2578063dc0cd0cf14610c00578063fa93f88314610c42578063fb5ba44914610c8a576101a9565b8063b199993714610afd578063b238ad0e14610b3f578063b3d74d8a14610b98576101a9565b806392d66313116100d357806392d6631314610a03578063a15612d114610a4d578063a324ad2414610a6b578063a6f0e57714610ab3576101a9565b80638da5cb5b146108af5780638e589315146108f95780639054bdec1461097c576101a9565b80636388749c116101665780637a6403a8116101405780637a6403a81461077c5780637f7918331461079a5780638aa001fc146108075780638c8d98a01461084f576101a9565b80636388749c146105d957806365c728401461065c578063791756c5146106a4576101a9565b806324330b9d146101ae5780633de2a1c61461020e5780633e239e1a146103965780634ac1ad78146103de5780634c0520a11461042657806362ba96871461055f575b600080fd5b6101f8600480360360808110156101c457600080fd5b8101908080359060200190929190803590602001909291908035906020019092919080359060200190929190505050610cd4565b6040518082815260200191505060405180910390f35b61037c600480360360a081101561022457600080fd5b8101908080359060200190929190803590602001909291908035906020019064010000000081111561025557600080fd5b82018360208201111561026757600080fd5b8035906020019184600183028401116401000000008311171561028957600080fd5b91908080601f016020809104026020016040519081016040528093929190818152602001838380828437600081840152601f19601f82011690508083019250505050505050919291929080359060200190929190803590602001906401000000008111156102f657600080fd5b82018360208201111561030857600080fd5b8035906020019184600183028401116401000000008311171561032a57600080fd5b91908080601f016020809104026020016040519081016040528093929190818152602001838380828437600081840152601f19601f8201169050808301925050505050505091929192905050506110d3565b604051808215151515815260200191505060405180910390f35b6103c2600480360360208110156103ac57600080fd5b810190808035906020019092919050505061157a565b604051808260ff1660ff16815260200191505060405180910390f35b61040a600480360360208110156103f457600080fd5b81019080803590602001909291905050506115a1565b604051808260ff1660ff16815260200191505060405180910390f35b61045c6004803603604081101561043c57600080fd5b8101908080359060200190929190803590602001909291905050506115c4565b604051808781526020018681526020018581526020018481526020018060200180602001838103835285818151815260200191508051906020019080838360005b838110156104b857808201518184015260208101905061049d565b50505050905090810190601f1680156104e55780820380516001836020036101000a031916815260200191505b50838103825284818151815260200191508051906020019080838360005b8381101561051e578082015181840152602081019050610503565b50505050905090810190601f16801561054b5780820380516001836020036101000a031916815260200191505b509850505050505050505060405180910390f35b6105c3600480360360a081101561057557600080fd5b81019080803561ffff169060200190929190803560ff169060200190929190803560ff169060200190929190803560ff169060200190929190803560ff16906020019092919050505061191d565b6040518082815260200191505060405180910390f35b6105e1611939565b6040518080602001828103825283818151815260200191508051906020019080838360005b83811015610621578082015181840152602081019050610606565b50505050905090810190601f16801561064e5780820380516001836020036101000a031916815260200191505b509250505060405180910390f35b6106886004803603602081101561067257600080fd5b81019080803590602001909291905050506119d7565b604051808260ff1660ff16815260200191505060405180910390f35b6106d0600480360360208110156106ba57600080fd5b81019080803590602001909291905050506119ed565b6040518089815260200188815260200187815260200186815260200185815260200180602001848152602001838152602001828103825285818151815260200191508051906020019080838360005b8381101561073a57808201518184015260208101905061071f565b50505050905090810190601f1680156107675780820380516001836020036101000a031916815260200191505b50995050505050505050505060405180910390f35b610784611acd565b6040518082815260200191505060405180910390f35b6107f1600480360360808110156107b057600080fd5b81019080803561ffff169060200190929190803560ff169060200190929190803560ff169060200190929190803560ff169060200190929190505050611ad3565b6040518082815260200191505060405180910390f35b6108336004803603602081101561081d57600080fd5b8101908080359060200190929190505050611aee565b604051808260ff1660ff16815260200191505060405180910390f35b6108996004803603606081101561086557600080fd5b81019080803561ffff169060200190929190803560ff169060200190929190803560ff169060200190929190505050611b02565b6040518082815260200191505060405180910390f35b6108b7611b1d565b604051808273ffffffffffffffffffffffffffffffffffffffff1673ffffffffffffffffffffffffffffffffffffffff16815260200191505060405180910390f35b610901611b42565b6040518080602001828103825283818151815260200191508051906020019080838360005b83811015610941578082015181840152602081019050610926565b50505050905090810190601f16801561096e5780820380516001836020036101000a031916815260200191505b509250505060405180910390f35b6109ed600480360360c081101561099257600080fd5b81019080803561ffff169060200190929190803560ff169060200190929190803560ff169060200190929190803560ff169060200190929190803560ff169060200190929190803560ff169060200190929190505050611be0565b6040518082815260200191505060405180910390f35b610a2f60048036036020811015610a1957600080fd5b8101908080359060200190929190505050611e6b565b604051808261ffff1661ffff16815260200191505060405180910390f35b610a55611f14565b6040518082815260200191505060405180910390f35b610a9760048036036020811015610a8157600080fd5b8101908080359060200190929190505050611f1a565b604051808260ff1660ff16815260200191505060405180910390f35b610ae360048036036020811015610ac957600080fd5b81019080803561ffff169060200190929190505050611f30565b604051808215151515815260200191505060405180910390f35b610b2960048036036020811015610b1357600080fd5b8101908080359060200190929190505050611fa5565b6040518082815260200191505060405180910390f35b610b7c60048036036040811015610b5557600080fd5b81019080803560ff169060200190929190803561ffff169060200190929190505050611fd8565b604051808260ff1660ff16815260200191505060405180910390f35b610ba06120a4565b604051808273ffffffffffffffffffffffffffffffffffffffff1673ffffffffffffffffffffffffffffffffffffffff16815260200191505060405180910390f35b610bea6120ca565b6040518082815260200191505060405180910390f35b610c2c60048036036020811015610c1657600080fd5b81019080803590602001909291905050506120d0565b6040518082815260200191505060405180910390f35b610c6e60048036036020811015610c5857600080fd5b8101908080359060200190929190505050612156565b604051808260ff1660ff16815260200191505060405180910390f35b610c92612173565b604051808273ffffffffffffffffffffffffffffffffffffffff1673ffffffffffffffffffffffffffffffffffffffff16815260200191505060405180910390f35b60008060009054906101000a900473ffffffffffffffffffffffffffffffffffffffff1673ffffffffffffffffffffffffffffffffffffffff163373ffffffffffffffffffffffffffffffffffffffff1614610d98576040517f08c379a000000000000000000000000000000000000000000000000000000000815260040180806020018281038252600a8152602001807f4f6e6c79204f776e65720000000000000000000000000000000000000000000081525060200191505060405180910390fd5b635ea6f99c8511610df4576040517f08c379a0000000000000000000000000000000000000000000000000000000008152600401808060200182810382526038815260200180612ae46038913960400191505060405180910390fd5b60008413610e4d576040517f08c379a000000000000000000000000000000000000000000000000000000000815260040180806020018281038252602e815260200180612a5f602e913960400191505060405180910390fd5b60008313610ea6576040517f08c379a000000000000000000000000000000000000000000000000000000000815260040180806020018281038252602c815260200180612b1c602c913960400191505060405180910390fd5b60008213610eff576040517f08c379a0000000000000000000000000000000000000000000000000000000008152600401808060200182810382526033815260200180612a8d6033913960400191505060405180910390fd5b6001805401600181905550610f12612803565b600154816000018181525050858160200181815250508481604001818152505083816060018181525050828160800181815250506040518060400160405280600781526020017f50656e64696e67000000000000000000000000000000000000000000000000008152508160a001819052506000868686866040516020018085815260200184815260200183815260200182815260200194505050505060405160208183030381529060405280519060200120905081600860006001548152602001908152602001600020600082015181600001556020820151816001015560408201518160020155606082015181600301556080820151816004015560a082015181600501908051906020019061102b929190612848565b5060c0820151816006015560e082015181600701559050507ec49db72f3aafce447a2787bc25dd11554d7cc94b787fe5e923f0e4161f574360015488836040518084815260200183815260200180602001838152602001828103825260078152602001807f50656e64696e670000000000000000000000000000000000000000000000000081525060200194505050505060405180910390a160015492505050949350505050565b60008060009054906101000a900473ffffffffffffffffffffffffffffffffffffffff1673ffffffffffffffffffffffffffffffffffffffff163373ffffffffffffffffffffffffffffffffffffffff1614611197576040517f08c379a000000000000000000000000000000000000000000000000000000000815260040180806020018281038252600a8152602001807f4f6e6c79204f776e65720000000000000000000000000000000000000000000081525060200191505060405180910390fd5b6000861161120d576040517f08c379a00000000000000000000000000000000000000000000000000000000081526004018080602001828103825260208152602001807f4572726f723131383a20496e76616c696420496e7374616c6c6d656e7420496481525060200191505060405180910390fd5b600060086000888152602001908152602001600020600001541161127c576040517f08c379a0000000000000000000000000000000000000000000000000000000008152600401808060200182810382526024815260200180612a1a6024913960400191505060405180910390fd5b60008510156112f3576040517f08c379a000000000000000000000000000000000000000000000000000000000815260040180806020018281038252601c8152602001807f4572726f723131313a205374617475732069732072657175697265640000000081525060200191505060405180910390fd5b600084511161134d576040517f08c379a0000000000000000000000000000000000000000000000000000000008152600401808060200182810382526024815260200180612ac06024913960400191505060405180910390fd5b6113556128c8565b6000600860008981526020019081526020016000206006015490506001810182600001818152505084826080018181525050868260a00181815250504282602001818152505085826060018190525083826040018190525081600860008a8152602001908152602001600020600801600060018401815260200190815260200160002060008201518160000155602082015181600101556040820151816002019080519060200190611408929190612848565b506060820151816003019080519060200190611425929190612848565b506080820151816004015560a0820151816005015590505060018101600860008a815260200190815260200160002060060181905550606061146689612199565b905080600860008b815260200190815260200160002060050190805190602001906114929291906128fe565b5061149c896120d0565b600860008b8152602001908152602001600020600701819055507f40e4bc5ef2547452345d096dce2569b18e76c8d67342f15f5141f108f993db9f89826114e28c6120d0565b6040518084815260200180602001838152602001828103825284818151815260200191508051906020019080838360005b8381101561152e578082015181840152602081019050611513565b50505050905090810190601f16801561155b5780820380516001836020036101000a031916815260200191505b5094505050505060405180910390a16001935050505095945050505050565b60006018603c80848161158957fe5b048161159157fe5b048161159957fe5b069050919050565b6000600760046201518084816115b357fe5b0401816115bc57fe5b069050919050565b60008060008060608060008811611643576040517f08c379a00000000000000000000000000000000000000000000000000000000081526004018080602001828103825260178152602001807f496e76616c696420696e7374616c6c6d656e747320496400000000000000000081525060200191505060405180910390fd5b60086000898152602001908152602001600020600601548711156116cf576040517f08c379a00000000000000000000000000000000000000000000000000000000081526004018080602001828103825260198152602001807f496e76616c6964207375625061796d656e747320696e6465780000000000000081525060200191505060405180910390fd5b60086000898152602001908152602001600020600801600088815260200190815260200160002060000154600860008a8152602001908152602001600020600801600089815260200190815260200160002060010154600860008b815260200190815260200160002060080160008a815260200190815260200160002060040154600860008c815260200190815260200160002060080160008b815260200190815260200160002060050154600860008d815260200190815260200160002060080160008c8152602001908152602001600020600301600860008e815260200190815260200160002060080160008d8152602001908152602001600020600201818054600181600116156101000203166002900480601f0160208091040260200160405190810160405280929190818152602001828054600181600116156101000203166002900480156118645780601f1061183957610100808354040283529160200191611864565b820191906000526020600020905b81548152906001019060200180831161184757829003601f168201915b50505050509150808054600181600116156101000203166002900480601f0160208091040260200160405190810160405280929190818152602001828054600181600116156101000203166002900480156119005780601f106118d557610100808354040283529160200191611900565b820191906000526020600020905b8154815290600101906020018083116118e357829003601f168201915b505050505090509550955095509550955095509295509295509295565b600061192e86868686866000611be0565b905095945050505050565b60048054600181600116156101000203166002900480601f0160208091040260200160405190810160405280929190818152602001828054600181600116156101000203166002900480156119cf5780601f106119a4576101008083540402835291602001916119cf565b820191906000526020600020905b8154815290600101906020018083116119b257829003601f168201915b505050505081565b60006119e2826125d8565b604001519050919050565b6008602052806000526040600020600091509050806000015490806001015490806002015490806003015490806004015490806005018054600181600116156101000203166002900480601f016020809104026020016040519081016040528092919081815260200182805460018160011615610100020316600290048015611ab75780601f10611a8c57610100808354040283529160200191611ab7565b820191906000526020600020905b815481529060010190602001808311611a9a57829003601f168201915b5050505050908060060154908060070154905088565b60015481565b6000611ae485858585600080611be0565b9050949350505050565b6000603c8281611afa57fe5b069050919050565b6000611b148484846000806000611be0565b90509392505050565b6000809054906101000a900473ffffffffffffffffffffffffffffffffffffffff1681565b60038054600181600116156101000203166002900480601f016020809104026020016040519081016040528092919081815260200182805460018160011615610100020316600290048015611bd85780601f10611bad57610100808354040283529160200191611bd8565b820191906000526020600020905b815481529060010190602001808311611bbb57829003601f168201915b505050505081565b6000806107b290505b8761ffff168161ffff161015611c2c57611c0281611f30565b15611c15576301e2850082019150611c1f565b6301e13380820191505b8080600101915050611be9565b611c3461297e565b601f816000600c8110611c4357fe5b602002019060ff16908160ff1681525050611c5d89611f30565b15611c8757601d816001600c8110611c7157fe5b602002019060ff16908160ff1681525050611ca8565b601c816001600c8110611c9657fe5b602002019060ff16908160ff16815250505b601f816002600c8110611cb757fe5b602002019060ff16908160ff1681525050601e816003600c8110611cd757fe5b602002019060ff16908160ff1681525050601f816004600c8110611cf757fe5b602002019060ff16908160ff1681525050601e816005600c8110611d1757fe5b602002019060ff16908160ff1681525050601f816006600c8110611d3757fe5b602002019060ff16908160ff1681525050601f816007600c8110611d5757fe5b602002019060ff16908160ff1681525050601e816008600c8110611d7757fe5b602002019060ff16908160ff1681525050601f816009600c8110611d9757fe5b602002019060ff16908160ff1681525050601e81600a600c8110611db757fe5b602002019060ff16908160ff1681525050601f81600b600c8110611dd757fe5b602002019060ff16908160ff1681525050600191505b8760ff168261ffff161015611e2d57806001830361ffff16600c8110611e0f57fe5b602002015160ff166201518002830192508180600101925050611ded565b6001870360ff166201518002830192508560ff16610e1002830192508460ff16603c02830192508360ff168301925082925050509695505050505050565b600080600090506000806301e133808581611e8257fe5b046107b261ffff16019150611e9c6107b261ffff16611fa5565b611ea98361ffff16611fa5565b039050806301e285000283019250806107b2830361ffff16036301e1338002830192505b84831115611f0957611ee160018303611f30565b15611ef4576301e2850083039250611efe565b6301e13380830392505b600182039150611ecd565b819350505050919050565b60025481565b6000611f25826125d8565b602001519050919050565b60008060048361ffff1681611f4157fe5b0661ffff1614611f545760009050611fa0565b600060648361ffff1681611f6457fe5b0661ffff1614611f775760019050611fa0565b60006101908361ffff1681611f8857fe5b0661ffff1614611f9b5760009050611fa0565b600190505b919050565b60006001820391506101908281611fb857fe5b0460648381611fc357fe5b0460048481611fce57fe5b0403019050919050565b600060018360ff161480611fef575060038360ff16145b80611ffd575060058360ff16145b8061200b575060078360ff16145b80612019575060088360ff16145b806120275750600a8360ff16145b806120355750600c8360ff16145b1561204357601f905061209e565b60048360ff161480612058575060068360ff16145b80612066575060098360ff16145b806120745750600b8360ff16145b1561208257601e905061209e565b61208b82611f30565b1561209957601d905061209e565b601c90505b92915050565b600760009054906101000a900473ffffffffffffffffffffffffffffffffffffffff1681565b60055481565b6000806008600084815260200190815260200160002060060154905060008090506000600190505b82811161214b5761213c600860008781526020019081526020016000206008016000838152602001908152602001600020600401548361277590919063ffffffff16565b915080806001019150506120f8565b508092505050919050565b6000603c80838161216357fe5b048161216b57fe5b069050919050565b600660009054906101000a900473ffffffffffffffffffffffffffffffffffffffff1681565b606060008211612211576040517f08c379a00000000000000000000000000000000000000000000000000000000081526004018080602001828103825260168152602001807f496e76616c696420696e7374616c6c6d656e742049640000000000000000000081525060200191505060405180910390fd5b60006008600084815260200190815260200160002060060154905060008090506000809050600080905060008090506000612281600860008a815260200190815260200160002060040154600860008b81526020019081526020016000206003015461277590919063ffffffff16565b90506000600190505b868111612395576000600860008b815260200190815260200160002060080160008381526020019081526020016000206005015414156122cf57600186019550612349565b6001600860008b8152602001908152602001600020600801600083815260200190815260200160002060050154141561230d57600185019450612348565b6002600860008b81526020019081526020016000206008016000838152602001908152602001600020600501541415612347576001830192505b5b5b612386600860008b81526020019081526020016000206008016000838152602001908152602001600020600401548561277590919063ffffffff16565b9350808060010191505061228a565b506000831480156123a65750600086145b156123ee576040518060400160405280600781526020017f50656e64696e670000000000000000000000000000000000000000000000000081525096505050505050506125d3565b6001851480156123fe5750600084145b801561240a5750600082145b80156124165750808312155b1561245e576040518060400160405280600781526020017f537563636573730000000000000000000000000000000000000000000000000081525096505050505050506125d3565b6001851215801561246f5750600186115b801561247b5750808312155b156124c3576040518060400160405280600a81526020017f52656d656469617465640000000000000000000000000000000000000000000081525096505050505050506125d3565b6000831380156124d257508083125b1561251a576040518060400160405280600781526020017f5061727469616c0000000000000000000000000000000000000000000000000081525096505050505050506125d3565b6001841215801561252b5750600083145b15612573576040518060400160405280600681526020017f4661696c6564000000000000000000000000000000000000000000000000000081525096505050505050506125d3565b600182121580156125845750600083145b156125cc576040518060400160405280600881526020017f526566756e64656400000000000000000000000000000000000000000000000081525096505050505050506125d3565b5050505050505b919050565b6125e06129a1565b60008090506000806125f185611e6b565b846000019061ffff16908161ffff16815250506126136107b261ffff16611fa5565b612624856000015161ffff16611fa5565b039150816301e285000283019250816107b285600001510361ffff16036301e1338002830192506000600191505b600c8260ff16116126a85761266b828660000151611fd8565b60ff16620151800290508584820111156126965781856020019060ff16908160ff16815250506126a8565b80840193508180600101925050612652565b600191505b6126bf85602001518660000151611fd8565b60ff168260ff1611612704578584620151800111156126ef5781856040019060ff16908160ff1681525050612704565b620151808401935081806001019250506126ad565b61270d8661157a565b856060019060ff16908160ff168152505061272786612156565b856080019060ff16908160ff168152505061274186611aee565b8560a0019060ff16908160ff168152505061275b866115a1565b8560c0019060ff16908160ff168152505050505050919050565b60008082840190506000831215801561278e5750838112155b806127a457506000831280156127a357508381125b5b6127f9576040517f08c379a0000000000000000000000000000000000000000000000000000000008152600401808060200182810382526021815260200180612a3e6021913960400191505060405180910390fd5b8091505092915050565b60405180610100016040528060008152602001600081526020016000815260200160008152602001600081526020016060815260200160008152602001600081525090565b828054600181600116156101000203166002900490600052602060002090601f016020900481019282601f1061288957805160ff19168380011785556128b7565b828001600101855582156128b7579182015b828111156128b657825182559160200191906001019061289b565b5b5090506128c491906129f4565b5090565b6040518060c001604052806000815260200160008152602001606081526020016060815260200160008152602001600081525090565b828054600181600116156101000203166002900490600052602060002090601f016020900481019282601f1061293f57805160ff191683800117855561296d565b8280016001018555821561296d579182015b8281111561296c578251825591602001919060010190612951565b5b50905061297a91906129f4565b5090565b604051806101800160405280600c90602082028038833980820191505090505090565b6040518060e00160405280600061ffff168152602001600060ff168152602001600060ff168152602001600060ff168152602001600060ff168152602001600060ff168152602001600060ff1681525090565b612a1691905b80821115612a125760008160009055506001016129fa565b5090565b9056fe4572726f723131393a20496e7374616c6c6d656e7420646f6573206e6f742045786973745369676e6564536166654d6174683a206164646974696f6e206f766572666c6f774572726f723130363a204361706974616c20677261746572207468616e207a65726f2069732072657175697265644572726f723130383a2052656d62204361706974616c20677261746572207468616e207a65726f2069732072657175697265644572726f723131323a207472616e73616374696f6e2049642069732072657175697265644572726f723130353a2054696d657374616d702073686f756c6420626520677261746572207468616e2032372c20417072696c20323032304572726f723130373a205265756d6e20677261746572207468616e207a65726f206973207265717569726564a265627a7a723158204718ffe2ad724c2a74b90d6eab55dba4d027ac63941390f007fafd9d0f8dff1964736f6c634300050c00324572726f723130323a205072696e6963616c2076616c75652069732072657175697265644572726f723131363a2053505620616464726573732069732072657175697265644572726f723130313a2050726f66697420726174652069732072657175697265644572726f723131373a204f626c69676f722061646472657373206973207265717569726564",
  "source": "pragma solidity ^0.5.12;\n\nimport './DateTime.sol';\nimport './SignedSafeMath.sol';\n\n//----------------------------------------------------------------------------\n// CXC Murabaha Smart Contract - Signed integer\n//----------------------------------------------------------------------------\n\ncontract CXCMurabaha is DateTime {\n    using SignedSafeMath for int256;\n    address public owner;\n    uint256 public NumberOfInstallments;\n    uint256 public tenor = 10;\n    string public paymentFrequency = 'monthly';\n    string public profitRate;\n    uint256 public principal;\n\n    address public SPVAddr;\n    address public obligorAddr;\n\n    // MODIFIERS\n    modifier onlyOwner() {\n        require(msg.sender == owner, \"Only Owner\");\n        _;\n    }\n\n    // Data strucure\n     struct Payment{\n        uint256 id;\n        uint256 timestamp;\n        string paymentType; //SEPA, Bank Wire, Cash, Other\n        string TxId;\n        int256 value;\n        uint256 status; //0: success, 1:Fail, 2: Cancelled\n    }\n\n    // Status Code\n    // Pending, Success, Remediated,Failed, Partial\n    struct Installment{\n        uint256 id;\n        uint timestamp;\n        int256 capital; //outstanding\n        int256 reumn; // profit\n        int256 rembCapital; //principal payment\n        string  overallstatus;\n        uint256 paymentsLength;\n        int256 totalCollected;\n        mapping(uint256 => Payment) Payments;\n    }\n\n    mapping(uint256 => Installment) public installments;\n\n    // Event for scheduled installment\n    event ScheduleInstallmentEvent(uint256 id,uint256 timestamp ,string status, bytes32 installmentHash);\n\n    // Event for updating of a scheduled installment\n    event UpdateInstallmentEvent(uint256 id, string status, int256 value);\n\n    // Constructor\n    constructor (string memory _profitRate, uint256 _principal, address _SPVAddr, address _obligorAddr ) public {\n        \n        require(bytes(_profitRate).length > 0, 'Error101: Profit rate is required');\n        require(_principal != 0, 'Error102: Prinical value is required');\n        require(_SPVAddr != address(0x0), 'Error116: SPV address is required');\n        require(_obligorAddr != address(0x0), 'Error117: Obligor address is required');\n        \n        owner = msg.sender;\n        profitRate = _profitRate;\n        principal = _principal;\n        SPVAddr = _SPVAddr;\n        obligorAddr = _obligorAddr;\n        NumberOfInstallments = 0;\n    }\n\n    //Schedule installment\n    function ScheduleInstallment(uint256 _timestamp, int256 _capital, int256 _reumn, int256 _rembCapital ) public\n                                onlyOwner returns (uint256){\n\n        require(_timestamp > 1588001180, 'Error105: Timestamp should be grater than 27, April 2020'); //1588001180 = Monday, April 27, 2020 11:54:25 PM\n        require(_capital > 0, 'Error106: Capital grater than zero is required');\n        require(_reumn > 0, 'Error107: Reumn grater than zero is required');\n        require(_rembCapital > 0, 'Error108: Remb Capital grater than zero is required');\n\n            NumberOfInstallments = NumberOfInstallments+1;\n            Installment memory _installment;\n            _installment.id = NumberOfInstallments;\n            _installment.timestamp = _timestamp;\n            _installment.capital = _capital;\n            _installment.reumn = _reumn;\n            _installment.rembCapital = _rembCapital;\n            _installment.overallstatus = \"Pending\";\n \n            bytes32 installmentHash = keccak256(abi.encodePacked (_timestamp, _capital, _reumn, _rembCapital));\n            installments[NumberOfInstallments] = _installment;\n            emit ScheduleInstallmentEvent(NumberOfInstallments,_timestamp, \"Pending\", installmentHash);\n            return NumberOfInstallments;\n    }\n\n   //Update installment status\n   function UpdateInstallment(uint256 _id, uint256 _status, string memory _TxId, int256 _value, string memory _paymentType) public\n                            onlyOwner returns (bool)\n   {\n      require(_id > 0, 'Error118: Invalid Installment Id');\n      require(installments[_id].id > 0, 'Error119: Installment does not Exist');\n      require(_status >= 0, 'Error111: Status is required');\n      require(bytes(_TxId).length > 0, 'Error112: transaction Id is required');\n      //require(_value >= 0, 'Error120: Collected amount should greter than or equal to zero');\n      \n      Payment memory _temp;\n      uint256 _paymentLenth = installments[_id].paymentsLength;\n      _temp.id = _paymentLenth+1;\n      _temp.value = _value;\n      _temp.status = _status;\n      _temp.timestamp = block.timestamp;\n      _temp.TxId = _TxId;\n      _temp.paymentType = _paymentType;\n      \n      installments[_id].Payments[_paymentLenth+1] = _temp;\n      installments[_id].paymentsLength = _paymentLenth+1;\n      \n      string memory _overallStatus = OverAllStatus(_id);\n      installments[_id].overallstatus = _overallStatus;\n      installments[_id].totalCollected = GetPaymentsTotal(_id);\n      \n      emit UpdateInstallmentEvent(_id, _overallStatus, GetPaymentsTotal(_id));\n      \n      return true;\n   }\n\n//    function UpdatePayment(uint256 _installmentId, uint256 _paymentId, string memory _TxId, int256 _value, uint256 _status) public {\n//        installments[_installmentId].Payments[_paymentId].value = _value;\n//        installments[_installmentId].Payments[_paymentId].TxId = _TxId;\n//        installments[_installmentId].Payments[_paymentId].status = _status;\n//        string memory _overallStatus = OverAllStatus(_installmentId);\n//        installments[_installmentId].overallstatus = _overallStatus;\n//        installments[_installmentId].totalCollected = GetPaymentsTotal(_installmentId);\n//        emit UpdateInstallmentEvent(_installmentId, _overallStatus, GetPaymentsTotal(_installmentId));\n\n//    }\n\n    // Overall status calculation\n    function OverAllStatus(uint256 _id) internal view returns(string memory)\n    {\n        require(_id > 0,\"Invalid installment Id\");\n        \n        uint256 length = installments[_id].paymentsLength;\n        int256 sucessPayments = 0;\n        int256 failedPayments = 0;\n        int256 totalPayments = 0;\n        int256 refundedPayment = 0;\n        int256 monthlyPayment = installments[_id].reumn.add(installments[_id].rembCapital);\n        \n        for(uint256 i = 1; i <= length; i++)\n        {\n            if(installments[_id].Payments[i].status == 0)\n            sucessPayments = sucessPayments+1;\n            else if (installments[_id].Payments[i].status == 1)\n            {\n                failedPayments = failedPayments+1;\n            }\n            else if (installments[_id].Payments[i].status == 2)\n            {\n                refundedPayment = refundedPayment+1;\n            }\n            \n            totalPayments = totalPayments.add(installments[_id].Payments[i].value);\n\n        }\n        \n        if(totalPayments==0 && length==0)\n            return \"Pending\";\n        else if(sucessPayments==1 && failedPayments==0 && refundedPayment==0 && totalPayments>=monthlyPayment)\n            return \"Success\";\n        else if (sucessPayments>=1 && length>1 && totalPayments>=monthlyPayment)\n            return \"Remediated\";\n        else if(totalPayments > 0 && totalPayments < monthlyPayment)\n            return \"Partial\";\n        else if(failedPayments >= 1 && totalPayments==0)\n            return \"Failed\";\n        else if(refundedPayment>=1 && totalPayments==0)\n            return \"Refunded\";\n    }\n    \n    function GetPayments(uint256 _installmentId, uint256 _index) view public returns (uint256,uint256,int256,uint256,string memory, string memory)\n    {\n        require(_installmentId>0, \"Invalid installments Id\");\n        require(_index <= installments[_installmentId].paymentsLength, \"Invalid subPayments index\");\n        return (installments[_installmentId].Payments[_index].id,\n                installments[_installmentId].Payments[_index].timestamp,\n                installments[_installmentId].Payments[_index].value,\n                installments[_installmentId].Payments[_index].status,\n                installments[_installmentId].Payments[_index].TxId,\n                installments[_installmentId].Payments[_index].paymentType\n                );\n    }\n    \n    function GetPaymentsTotal(uint256 _installmentId) view public returns (int256)\n    {\n        uint256 length = installments[_installmentId].paymentsLength;\n        int256 totalPayments = 0;\n\n        for(uint256 i = 1; i <= length; i++)\n        {\n            totalPayments = totalPayments.add(installments[_installmentId].Payments[i].value);\n        }\n        return totalPayments;\n    }\n}",
  "sourcePath": "/Users/wazenshbair/SnT/EEthique/blockchain-based-sukuk/sukuk-system-Github/truffle/contracts/CXCMurabaha.sol",
  "compiler": {
    "name": "solc",
    "version": "0.5.12+commit.7709ece9.Emscripten.clang"
  },
  "schemaVersion": "3.0.18",
  "updatedAt": "2020-06-04T10:43:37.808Z",
  "networkType": "ethereum",
  "devdoc": {
    "methods": {}
  },
  "userdoc": {
    "methods": {}
  }
}