{
  "contractName": "CXCMurabaha",
  "abi": [
    {
      "inputs": [
        {
          "internalType": "string",
          "name": "_profitRate",
          "type": "string"
        },
        {
          "internalType": "uint256",
          "name": "_principal",
          "type": "uint256"
        },
        {
          "internalType": "address",
          "name": "_SPVAddr",
          "type": "address"
        },
        {
          "internalType": "address",
          "name": "_obligorAddr",
          "type": "address"
        }
      ],
      "payable": false,
      "stateMutability": "nonpayable",
      "type": "constructor"
    },
    {
      "anonymous": false,
      "inputs": [
        {
          "indexed": false,
          "internalType": "uint256",
          "name": "id",
          "type": "uint256"
        },
        {
          "indexed": false,
          "internalType": "uint256",
          "name": "timestamp",
          "type": "uint256"
        },
        {
          "indexed": false,
          "internalType": "string",
          "name": "status",
          "type": "string"
        },
        {
          "indexed": false,
          "internalType": "bytes32",
          "name": "installmentHash",
          "type": "bytes32"
        }
      ],
      "name": "ScheduleInstallmentEvent",
      "type": "event"
    },
    {
      "anonymous": false,
      "inputs": [
        {
          "indexed": false,
          "internalType": "uint256",
          "name": "id",
          "type": "uint256"
        },
        {
          "indexed": false,
          "internalType": "string",
          "name": "status",
          "type": "string"
        },
        {
          "indexed": false,
          "internalType": "int256",
          "name": "value",
          "type": "int256"
        }
      ],
      "name": "UpdateInstallmentEvent",
      "type": "event"
    },
    {
      "constant": true,
      "inputs": [],
      "name": "NumberOfInstallments",
      "outputs": [
        {
          "internalType": "uint256",
          "name": "",
          "type": "uint256"
        }
      ],
      "payable": false,
      "stateMutability": "view",
      "type": "function"
    },
    {
      "constant": true,
      "inputs": [],
      "name": "SPVAddr",
      "outputs": [
        {
          "internalType": "address",
          "name": "",
          "type": "address"
        }
      ],
      "payable": false,
      "stateMutability": "view",
      "type": "function"
    },
    {
      "constant": true,
      "inputs": [
        {
          "internalType": "uint256",
          "name": "timestamp",
          "type": "uint256"
        }
      ],
      "name": "getDay",
      "outputs": [
        {
          "internalType": "uint8",
          "name": "",
          "type": "uint8"
        }
      ],
      "payable": false,
      "stateMutability": "pure",
      "type": "function"
    },
    {
      "constant": true,
      "inputs": [
        {
          "internalType": "uint8",
          "name": "month",
          "type": "uint8"
        },
        {
          "internalType": "uint16",
          "name": "year",
          "type": "uint16"
        }
      ],
      "name": "getDaysInMonth",
      "outputs": [
        {
          "internalType": "uint8",
          "name": "",
          "type": "uint8"
        }
      ],
      "payable": false,
      "stateMutability": "pure",
      "type": "function"
    },
    {
      "constant": true,
      "inputs": [
        {
          "internalType": "uint256",
          "name": "timestamp",
          "type": "uint256"
        }
      ],
      "name": "getHour",
      "outputs": [
        {
          "internalType": "uint8",
          "name": "",
          "type": "uint8"
        }
      ],
      "payable": false,
      "stateMutability": "pure",
      "type": "function"
    },
    {
      "constant": true,
      "inputs": [
        {
          "internalType": "uint256",
          "name": "timestamp",
          "type": "uint256"
        }
      ],
      "name": "getMinute",
      "outputs": [
        {
          "internalType": "uint8",
          "name": "",
          "type": "uint8"
        }
      ],
      "payable": false,
      "stateMutability": "pure",
      "type": "function"
    },
    {
      "constant": true,
      "inputs": [
        {
          "internalType": "uint256",
          "name": "timestamp",
          "type": "uint256"
        }
      ],
      "name": "getMonth",
      "outputs": [
        {
          "internalType": "uint8",
          "name": "",
          "type": "uint8"
        }
      ],
      "payable": false,
      "stateMutability": "pure",
      "type": "function"
    },
    {
      "constant": true,
      "inputs": [
        {
          "internalType": "uint256",
          "name": "timestamp",
          "type": "uint256"
        }
      ],
      "name": "getSecond",
      "outputs": [
        {
          "internalType": "uint8",
          "name": "",
          "type": "uint8"
        }
      ],
      "payable": false,
      "stateMutability": "pure",
      "type": "function"
    },
    {
      "constant": true,
      "inputs": [
        {
          "internalType": "uint256",
          "name": "timestamp",
          "type": "uint256"
        }
      ],
      "name": "getWeekday",
      "outputs": [
        {
          "internalType": "uint8",
          "name": "",
          "type": "uint8"
        }
      ],
      "payable": false,
      "stateMutability": "pure",
      "type": "function"
    },
    {
      "constant": true,
      "inputs": [
        {
          "internalType": "uint256",
          "name": "timestamp",
          "type": "uint256"
        }
      ],
      "name": "getYear",
      "outputs": [
        {
          "internalType": "uint16",
          "name": "",
          "type": "uint16"
        }
      ],
      "payable": false,
      "stateMutability": "pure",
      "type": "function"
    },
    {
      "constant": true,
      "inputs": [
        {
          "internalType": "uint256",
          "name": "",
          "type": "uint256"
        }
      ],
      "name": "installments",
      "outputs": [
        {
          "internalType": "uint256",
          "name": "id",
          "type": "uint256"
        },
        {
          "internalType": "uint256",
          "name": "timestamp",
          "type": "uint256"
        },
        {
          "internalType": "int256",
          "name": "capital",
          "type": "int256"
        },
        {
          "internalType": "int256",
          "name": "reumn",
          "type": "int256"
        },
        {
          "internalType": "int256",
          "name": "rembCapital",
          "type": "int256"
        },
        {
          "internalType": "string",
          "name": "overallstatus",
          "type": "string"
        },
        {
          "internalType": "uint256",
          "name": "paymentsLength",
          "type": "uint256"
        },
        {
          "internalType": "int256",
          "name": "totalCollected",
          "type": "int256"
        }
      ],
      "payable": false,
      "stateMutability": "view",
      "type": "function"
    },
    {
      "constant": true,
      "inputs": [
        {
          "internalType": "uint16",
          "name": "year",
          "type": "uint16"
        }
      ],
      "name": "isLeapYear",
      "outputs": [
        {
          "internalType": "bool",
          "name": "",
          "type": "bool"
        }
      ],
      "payable": false,
      "stateMutability": "pure",
      "type": "function"
    },
    {
      "constant": true,
      "inputs": [
        {
          "internalType": "uint256",
          "name": "year",
          "type": "uint256"
        }
      ],
      "name": "leapYearsBefore",
      "outputs": [
        {
          "internalType": "uint256",
          "name": "",
          "type": "uint256"
        }
      ],
      "payable": false,
      "stateMutability": "pure",
      "type": "function"
    },
    {
      "constant": true,
      "inputs": [],
      "name": "obligorAddr",
      "outputs": [
        {
          "internalType": "address",
          "name": "",
          "type": "address"
        }
      ],
      "payable": false,
      "stateMutability": "view",
      "type": "function"
    },
    {
      "constant": true,
      "inputs": [],
      "name": "owner",
      "outputs": [
        {
          "internalType": "address",
          "name": "",
          "type": "address"
        }
      ],
      "payable": false,
      "stateMutability": "view",
      "type": "function"
    },
    {
      "constant": true,
      "inputs": [],
      "name": "paymentFrequency",
      "outputs": [
        {
          "internalType": "string",
          "name": "",
          "type": "string"
        }
      ],
      "payable": false,
      "stateMutability": "view",
      "type": "function"
    },
    {
      "constant": true,
      "inputs": [],
      "name": "principal",
      "outputs": [
        {
          "internalType": "uint256",
          "name": "",
          "type": "uint256"
        }
      ],
      "payable": false,
      "stateMutability": "view",
      "type": "function"
    },
    {
      "constant": true,
      "inputs": [],
      "name": "profitRate",
      "outputs": [
        {
          "internalType": "string",
          "name": "",
          "type": "string"
        }
      ],
      "payable": false,
      "stateMutability": "view",
      "type": "function"
    },
    {
      "constant": true,
      "inputs": [],
      "name": "tenor",
      "outputs": [
        {
          "internalType": "uint256",
          "name": "",
          "type": "uint256"
        }
      ],
      "payable": false,
      "stateMutability": "view",
      "type": "function"
    },
    {
      "constant": true,
      "inputs": [
        {
          "internalType": "uint16",
          "name": "year",
          "type": "uint16"
        },
        {
          "internalType": "uint8",
          "name": "month",
          "type": "uint8"
        },
        {
          "internalType": "uint8",
          "name": "day",
          "type": "uint8"
        },
        {
          "internalType": "uint8",
          "name": "hour",
          "type": "uint8"
        },
        {
          "internalType": "uint8",
          "name": "minute",
          "type": "uint8"
        }
      ],
      "name": "toTimestamp",
      "outputs": [
        {
          "internalType": "uint256",
          "name": "timestamp",
          "type": "uint256"
        }
      ],
      "payable": false,
      "stateMutability": "pure",
      "type": "function"
    },
    {
      "constant": true,
      "inputs": [
        {
          "internalType": "uint16",
          "name": "year",
          "type": "uint16"
        },
        {
          "internalType": "uint8",
          "name": "month",
          "type": "uint8"
        },
        {
          "internalType": "uint8",
          "name": "day",
          "type": "uint8"
        },
        {
          "internalType": "uint8",
          "name": "hour",
          "type": "uint8"
        }
      ],
      "name": "toTimestamp",
      "outputs": [
        {
          "internalType": "uint256",
          "name": "timestamp",
          "type": "uint256"
        }
      ],
      "payable": false,
      "stateMutability": "pure",
      "type": "function"
    },
    {
      "constant": true,
      "inputs": [
        {
          "internalType": "uint16",
          "name": "year",
          "type": "uint16"
        },
        {
          "internalType": "uint8",
          "name": "month",
          "type": "uint8"
        },
        {
          "internalType": "uint8",
          "name": "day",
          "type": "uint8"
        }
      ],
      "name": "toTimestamp",
      "outputs": [
        {
          "internalType": "uint256",
          "name": "timestamp",
          "type": "uint256"
        }
      ],
      "payable": false,
      "stateMutability": "pure",
      "type": "function"
    },
    {
      "constant": true,
      "inputs": [
        {
          "internalType": "uint16",
          "name": "year",
          "type": "uint16"
        },
        {
          "internalType": "uint8",
          "name": "month",
          "type": "uint8"
        },
        {
          "internalType": "uint8",
          "name": "day",
          "type": "uint8"
        },
        {
          "internalType": "uint8",
          "name": "hour",
          "type": "uint8"
        },
        {
          "internalType": "uint8",
          "name": "minute",
          "type": "uint8"
        },
        {
          "internalType": "uint8",
          "name": "second",
          "type": "uint8"
        }
      ],
      "name": "toTimestamp",
      "outputs": [
        {
          "internalType": "uint256",
          "name": "timestamp",
          "type": "uint256"
        }
      ],
      "payable": false,
      "stateMutability": "pure",
      "type": "function"
    },
    {
      "constant": false,
      "inputs": [
        {
          "internalType": "uint256",
          "name": "_timestamp",
          "type": "uint256"
        },
        {
          "internalType": "int256",
          "name": "_capital",
          "type": "int256"
        },
        {
          "internalType": "int256",
          "name": "_reumn",
          "type": "int256"
        },
        {
          "internalType": "int256",
          "name": "_rembCapital",
          "type": "int256"
        }
      ],
      "name": "ScheduleInstallment",
      "outputs": [
        {
          "internalType": "uint256",
          "name": "",
          "type": "uint256"
        }
      ],
      "payable": false,
      "stateMutability": "nonpayable",
      "type": "function"
    },
    {
      "constant": false,
      "inputs": [
        {
          "internalType": "uint256",
          "name": "_id",
          "type": "uint256"
        },
        {
          "internalType": "uint256",
          "name": "_status",
          "type": "uint256"
        },
        {
          "internalType": "string",
          "name": "_TxId",
          "type": "string"
        },
        {
          "internalType": "int256",
          "name": "_value",
          "type": "int256"
        },
        {
          "internalType": "string",
          "name": "_paymentType",
          "type": "string"
        }
      ],
      "name": "UpdateInstallment",
      "outputs": [
        {
          "internalType": "bool",
          "name": "",
          "type": "bool"
        }
      ],
      "payable": false,
      "stateMutability": "nonpayable",
      "type": "function"
    },
    {
      "constant": true,
      "inputs": [
        {
          "internalType": "uint256",
          "name": "_installmentId",
          "type": "uint256"
        },
        {
          "internalType": "uint256",
          "name": "_index",
          "type": "uint256"
        }
      ],
      "name": "GetPayments",
      "outputs": [
        {
          "internalType": "uint256",
          "name": "",
          "type": "uint256"
        },
        {
          "internalType": "uint256",
          "name": "",
          "type": "uint256"
        },
        {
          "internalType": "int256",
          "name": "",
          "type": "int256"
        },
        {
          "internalType": "uint256",
          "name": "",
          "type": "uint256"
        },
        {
          "internalType": "string",
          "name": "",
          "type": "string"
        },
        {
          "internalType": "string",
          "name": "",
          "type": "string"
        }
      ],
      "payable": false,
      "stateMutability": "view",
      "type": "function"
    },
    {
      "constant": true,
      "inputs": [
        {
          "internalType": "uint256",
          "name": "_installmentId",
          "type": "uint256"
        }
      ],
      "name": "GetPaymentsTotal",
      "outputs": [
        {
          "internalType": "int256",
          "name": "",
          "type": "int256"
        }
      ],
      "payable": false,
      "stateMutability": "view",
      "type": "function"
    },
    {
      "constant": true,
      "inputs": [
        {
          "internalType": "uint256",
          "name": "couponId",
          "type": "uint256"
        }
      ],
      "name": "GetCouponValue",
      "outputs": [
        {
          "internalType": "int256",
          "name": "",
          "type": "int256"
        }
      ],
      "payable": false,
      "stateMutability": "view",
      "type": "function"
    },
    {
      "constant": true,
      "inputs": [],
      "name": "GetNextInstallment",
      "outputs": [
        {
          "internalType": "uint256",
          "name": "",
          "type": "uint256"
        },
        {
          "internalType": "int256",
          "name": "",
          "type": "int256"
        },
        {
          "internalType": "int256",
          "name": "",
          "type": "int256"
        }
      ],
      "payable": false,
      "stateMutability": "view",
      "type": "function"
    }
  ],
  "bytecode": "0x6080604052600a6002556040518060400160405280600781526020017f6d6f6e74686c7900000000000000000000000000000000000000000000000000815250600390805190602001906200005692919062000428565b503480156200006457600080fd5b506040516200331038038062003310833981810160405260808110156200008a57600080fd5b8101908080516040519392919084640100000000821115620000ab57600080fd5b83820191506020820185811115620000c257600080fd5b8251866001820283011164010000000082111715620000e057600080fd5b8083526020830192505050908051906020019080838360005b8381101562000116578082015181840152602081019050620000f9565b50505050905090810190601f168015620001445780820380516001836020036101000a031916815260200191505b506040526020018051906020019092919080519060200190929190805190602001909291905050506000845111620001c8576040517f08c379a0000000000000000000000000000000000000000000000000000000008152600401808060200182810382526021815260200180620032ca6021913960400191505060405180910390fd5b600083141562000224576040517f08c379a0000000000000000000000000000000000000000000000000000000008152600401808060200182810382526024815260200180620032856024913960400191505060405180910390fd5b600073ffffffffffffffffffffffffffffffffffffffff168273ffffffffffffffffffffffffffffffffffffffff161415620002ac576040517f08c379a0000000000000000000000000000000000000000000000000000000008152600401808060200182810382526021815260200180620032a96021913960400191505060405180910390fd5b600073ffffffffffffffffffffffffffffffffffffffff168173ffffffffffffffffffffffffffffffffffffffff16141562000334576040517f08c379a0000000000000000000000000000000000000000000000000000000008152600401808060200182810382526025815260200180620032eb6025913960400191505060405180910390fd5b336000806101000a81548173ffffffffffffffffffffffffffffffffffffffff021916908373ffffffffffffffffffffffffffffffffffffffff16021790555083600490805190602001906200038c92919062000428565b508260058190555081600660006101000a81548173ffffffffffffffffffffffffffffffffffffffff021916908373ffffffffffffffffffffffffffffffffffffffff16021790555080600760006101000a81548173ffffffffffffffffffffffffffffffffffffffff021916908373ffffffffffffffffffffffffffffffffffffffff160217905550600060018190555050505050620004d7565b828054600181600116156101000203166002900490600052602060002090601f016020900481019282601f106200046b57805160ff19168380011785556200049c565b828001600101855582156200049c579182015b828111156200049b5782518255916020019190600101906200047e565b5b509050620004ab9190620004af565b5090565b620004d491905b80821115620004d0576000816000905550600101620004b6565b5090565b90565b612d9e80620004e76000396000f3fe608060405234801561001057600080fd5b50600436106101cf5760003560e01c80638e58931511610104578063b238ad0e116100a2578063dc0cd0cf11610071578063dc0cd0cf14610c52578063e40e36aa14610c94578063fa93f88314610cd6578063fb5ba44914610d1e576101cf565b8063b238ad0e14610b65578063b276828e14610bbe578063b3d74d8a14610bea578063ba5d307814610c34576101cf565b8063a15612d1116100de578063a15612d114610a73578063a324ad2414610a91578063a6f0e57714610ad9578063b199993714610b23576101cf565b80638e5893151461091f5780639054bdec146109a257806392d6631314610a29576101cf565b806365c72840116101715780637f7918331161014b5780637f791833146107c05780638aa001fc1461082d5780638c8d98a0146108755780638da5cb5b146108d5576101cf565b806365c7284014610682578063791756c5146106ca5780637a6403a8146107a2576101cf565b80634ac1ad78116101ad5780634ac1ad78146104045780634c0520a11461044c57806362ba9687146105855780636388749c146105ff576101cf565b806324330b9d146101d45780633de2a1c6146102345780633e239e1a146103bc575b600080fd5b61021e600480360360808110156101ea57600080fd5b8101908080359060200190929190803590602001909291908035906020019092919080359060200190929190505050610d68565b6040518082815260200191505060405180910390f35b6103a2600480360360a081101561024a57600080fd5b8101908080359060200190929190803590602001909291908035906020019064010000000081111561027b57600080fd5b82018360208201111561028d57600080fd5b803590602001918460018302840111640100000000831117156102af57600080fd5b91908080601f016020809104026020016040519081016040528093929190818152602001838380828437600081840152601f19601f820116905080830192505050505050509192919290803590602001909291908035906020019064010000000081111561031c57600080fd5b82018360208201111561032e57600080fd5b8035906020019184600183028401116401000000008311171561035057600080fd5b91908080601f016020809104026020016040519081016040528093929190818152602001838380828437600081840152601f19601f820116905080830192505050505050509192919290505050611167565b604051808215151515815260200191505060405180910390f35b6103e8600480360360208110156103d257600080fd5b810190808035906020019092919050505061160e565b604051808260ff1660ff16815260200191505060405180910390f35b6104306004803603602081101561041a57600080fd5b8101908080359060200190929190505050611635565b604051808260ff1660ff16815260200191505060405180910390f35b6104826004803603604081101561046257600080fd5b810190808035906020019092919080359060200190929190505050611658565b604051808781526020018681526020018581526020018481526020018060200180602001838103835285818151815260200191508051906020019080838360005b838110156104de5780820151818401526020810190506104c3565b50505050905090810190601f16801561050b5780820380516001836020036101000a031916815260200191505b50838103825284818151815260200191508051906020019080838360005b83811015610544578082015181840152602081019050610529565b50505050905090810190601f1680156105715780820380516001836020036101000a031916815260200191505b509850505050505050505060405180910390f35b6105e9600480360360a081101561059b57600080fd5b81019080803561ffff169060200190929190803560ff169060200190929190803560ff169060200190929190803560ff169060200190929190803560ff1690602001909291905050506119b1565b6040518082815260200191505060405180910390f35b6106076119cd565b6040518080602001828103825283818151815260200191508051906020019080838360005b8381101561064757808201518184015260208101905061062c565b50505050905090810190601f1680156106745780820380516001836020036101000a031916815260200191505b509250505060405180910390f35b6106ae6004803603602081101561069857600080fd5b8101908080359060200190929190505050611a6b565b604051808260ff1660ff16815260200191505060405180910390f35b6106f6600480360360208110156106e057600080fd5b8101908080359060200190929190505050611a81565b6040518089815260200188815260200187815260200186815260200185815260200180602001848152602001838152602001828103825285818151815260200191508051906020019080838360005b83811015610760578082015181840152602081019050610745565b50505050905090810190601f16801561078d5780820380516001836020036101000a031916815260200191505b50995050505050505050505060405180910390f35b6107aa611b61565b6040518082815260200191505060405180910390f35b610817600480360360808110156107d657600080fd5b81019080803561ffff169060200190929190803560ff169060200190929190803560ff169060200190929190803560ff169060200190929190505050611b67565b6040518082815260200191505060405180910390f35b6108596004803603602081101561084357600080fd5b8101908080359060200190929190505050611b82565b604051808260ff1660ff16815260200191505060405180910390f35b6108bf6004803603606081101561088b57600080fd5b81019080803561ffff169060200190929190803560ff169060200190929190803560ff169060200190929190505050611b96565b6040518082815260200191505060405180910390f35b6108dd611bb1565b604051808273ffffffffffffffffffffffffffffffffffffffff1673ffffffffffffffffffffffffffffffffffffffff16815260200191505060405180910390f35b610927611bd6565b6040518080602001828103825283818151815260200191508051906020019080838360005b8381101561096757808201518184015260208101905061094c565b50505050905090810190601f1680156109945780820380516001836020036101000a031916815260200191505b509250505060405180910390f35b610a13600480360360c08110156109b857600080fd5b81019080803561ffff169060200190929190803560ff169060200190929190803560ff169060200190929190803560ff169060200190929190803560ff169060200190929190803560ff169060200190929190505050611c74565b6040518082815260200191505060405180910390f35b610a5560048036036020811015610a3f57600080fd5b8101908080359060200190929190505050611eff565b604051808261ffff1661ffff16815260200191505060405180910390f35b610a7b611fa8565b6040518082815260200191505060405180910390f35b610abd60048036036020811015610aa757600080fd5b8101908080359060200190929190505050611fae565b604051808260ff1660ff16815260200191505060405180910390f35b610b0960048036036020811015610aef57600080fd5b81019080803561ffff169060200190929190505050611fc4565b604051808215151515815260200191505060405180910390f35b610b4f60048036036020811015610b3957600080fd5b8101908080359060200190929190505050612039565b6040518082815260200191505060405180910390f35b610ba260048036036040811015610b7b57600080fd5b81019080803560ff169060200190929190803561ffff16906020019092919050505061206c565b604051808260ff1660ff16815260200191505060405180910390f35b610bc6612138565b60405180848152602001838152602001828152602001935050505060405180910390f35b610bf261227a565b604051808273ffffffffffffffffffffffffffffffffffffffff1673ffffffffffffffffffffffffffffffffffffffff16815260200191505060405180910390f35b610c3c6122a0565b6040518082815260200191505060405180910390f35b610c7e60048036036020811015610c6857600080fd5b81019080803590602001909291905050506122a6565b6040518082815260200191505060405180910390f35b610cc060048036036020811015610caa57600080fd5b810190808035906020019092919050505061232c565b6040518082815260200191505060405180910390f35b610d0260048036036020811015610cec57600080fd5b8101908080359060200190929190505050612378565b604051808260ff1660ff16815260200191505060405180910390f35b610d26612395565b604051808273ffffffffffffffffffffffffffffffffffffffff1673ffffffffffffffffffffffffffffffffffffffff16815260200191505060405180910390f35b60008060009054906101000a900473ffffffffffffffffffffffffffffffffffffffff1673ffffffffffffffffffffffffffffffffffffffff163373ffffffffffffffffffffffffffffffffffffffff1614610e2c576040517f08c379a000000000000000000000000000000000000000000000000000000000815260040180806020018281038252600a8152602001807f4f6e6c79204f776e65720000000000000000000000000000000000000000000081525060200191505060405180910390fd5b635ea6f99c8511610e88576040517f08c379a0000000000000000000000000000000000000000000000000000000008152600401808060200182810382526038815260200180612d066038913960400191505060405180910390fd5b60008413610ee1576040517f08c379a000000000000000000000000000000000000000000000000000000000815260040180806020018281038252602e815260200180612c81602e913960400191505060405180910390fd5b60008313610f3a576040517f08c379a000000000000000000000000000000000000000000000000000000000815260040180806020018281038252602c815260200180612d3e602c913960400191505060405180910390fd5b60008213610f93576040517f08c379a0000000000000000000000000000000000000000000000000000000008152600401808060200182810382526033815260200180612caf6033913960400191505060405180910390fd5b6001805401600181905550610fa6612a25565b600154816000018181525050858160200181815250508481604001818152505083816060018181525050828160800181815250506040518060400160405280600781526020017f50656e64696e67000000000000000000000000000000000000000000000000008152508160a001819052506000868686866040516020018085815260200184815260200183815260200182815260200194505050505060405160208183030381529060405280519060200120905081600860006001548152602001908152602001600020600082015181600001556020820151816001015560408201518160020155606082015181600301556080820151816004015560a08201518160050190805190602001906110bf929190612a6a565b5060c0820151816006015560e082015181600701559050507ec49db72f3aafce447a2787bc25dd11554d7cc94b787fe5e923f0e4161f574360015488836040518084815260200183815260200180602001838152602001828103825260078152602001807f50656e64696e670000000000000000000000000000000000000000000000000081525060200194505050505060405180910390a160015492505050949350505050565b60008060009054906101000a900473ffffffffffffffffffffffffffffffffffffffff1673ffffffffffffffffffffffffffffffffffffffff163373ffffffffffffffffffffffffffffffffffffffff161461122b576040517f08c379a000000000000000000000000000000000000000000000000000000000815260040180806020018281038252600a8152602001807f4f6e6c79204f776e65720000000000000000000000000000000000000000000081525060200191505060405180910390fd5b600086116112a1576040517f08c379a00000000000000000000000000000000000000000000000000000000081526004018080602001828103825260208152602001807f4572726f723131383a20496e76616c696420496e7374616c6c6d656e7420496481525060200191505060405180910390fd5b6000600860008881526020019081526020016000206000015411611310576040517f08c379a0000000000000000000000000000000000000000000000000000000008152600401808060200182810382526024815260200180612c3c6024913960400191505060405180910390fd5b6000851015611387576040517f08c379a000000000000000000000000000000000000000000000000000000000815260040180806020018281038252601c8152602001807f4572726f723131313a205374617475732069732072657175697265640000000081525060200191505060405180910390fd5b60008451116113e1576040517f08c379a0000000000000000000000000000000000000000000000000000000008152600401808060200182810382526024815260200180612ce26024913960400191505060405180910390fd5b6113e9612aea565b6000600860008981526020019081526020016000206006015490506001810182600001818152505084826080018181525050868260a00181815250504282602001818152505085826060018190525083826040018190525081600860008a815260200190815260200160002060080160006001840181526020019081526020016000206000820151816000015560208201518160010155604082015181600201908051906020019061149c929190612a6a565b5060608201518160030190805190602001906114b9929190612a6a565b506080820151816004015560a0820151816005015590505060018101600860008a81526020019081526020016000206006018190555060606114fa896123bb565b905080600860008b81526020019081526020016000206005019080519060200190611526929190612b20565b50611530896122a6565b600860008b8152602001908152602001600020600701819055507f40e4bc5ef2547452345d096dce2569b18e76c8d67342f15f5141f108f993db9f89826115768c6122a6565b6040518084815260200180602001838152602001828103825284818151815260200191508051906020019080838360005b838110156115c25780820151818401526020810190506115a7565b50505050905090810190601f1680156115ef5780820380516001836020036101000a031916815260200191505b5094505050505060405180910390a16001935050505095945050505050565b60006018603c80848161161d57fe5b048161162557fe5b048161162d57fe5b069050919050565b60006007600462015180848161164757fe5b04018161165057fe5b069050919050565b600080600080606080600088116116d7576040517f08c379a00000000000000000000000000000000000000000000000000000000081526004018080602001828103825260178152602001807f496e76616c696420696e7374616c6c6d656e747320496400000000000000000081525060200191505060405180910390fd5b6008600089815260200190815260200160002060060154871115611763576040517f08c379a00000000000000000000000000000000000000000000000000000000081526004018080602001828103825260198152602001807f496e76616c6964207375625061796d656e747320696e6465780000000000000081525060200191505060405180910390fd5b60086000898152602001908152602001600020600801600088815260200190815260200160002060000154600860008a8152602001908152602001600020600801600089815260200190815260200160002060010154600860008b815260200190815260200160002060080160008a815260200190815260200160002060040154600860008c815260200190815260200160002060080160008b815260200190815260200160002060050154600860008d815260200190815260200160002060080160008c8152602001908152602001600020600301600860008e815260200190815260200160002060080160008d8152602001908152602001600020600201818054600181600116156101000203166002900480601f0160208091040260200160405190810160405280929190818152602001828054600181600116156101000203166002900480156118f85780601f106118cd576101008083540402835291602001916118f8565b820191906000526020600020905b8154815290600101906020018083116118db57829003601f168201915b50505050509150808054600181600116156101000203166002900480601f0160208091040260200160405190810160405280929190818152602001828054600181600116156101000203166002900480156119945780601f1061196957610100808354040283529160200191611994565b820191906000526020600020905b81548152906001019060200180831161197757829003601f168201915b505050505090509550955095509550955095509295509295509295565b60006119c286868686866000611c74565b905095945050505050565b60048054600181600116156101000203166002900480601f016020809104026020016040519081016040528092919081815260200182805460018160011615610100020316600290048015611a635780601f10611a3857610100808354040283529160200191611a63565b820191906000526020600020905b815481529060010190602001808311611a4657829003601f168201915b505050505081565b6000611a76826127fa565b604001519050919050565b6008602052806000526040600020600091509050806000015490806001015490806002015490806003015490806004015490806005018054600181600116156101000203166002900480601f016020809104026020016040519081016040528092919081815260200182805460018160011615610100020316600290048015611b4b5780601f10611b2057610100808354040283529160200191611b4b565b820191906000526020600020905b815481529060010190602001808311611b2e57829003601f168201915b5050505050908060060154908060070154905088565b60015481565b6000611b7885858585600080611c74565b9050949350505050565b6000603c8281611b8e57fe5b069050919050565b6000611ba88484846000806000611c74565b90509392505050565b6000809054906101000a900473ffffffffffffffffffffffffffffffffffffffff1681565b60038054600181600116156101000203166002900480601f016020809104026020016040519081016040528092919081815260200182805460018160011615610100020316600290048015611c6c5780601f10611c4157610100808354040283529160200191611c6c565b820191906000526020600020905b815481529060010190602001808311611c4f57829003601f168201915b505050505081565b6000806107b290505b8761ffff168161ffff161015611cc057611c9681611fc4565b15611ca9576301e2850082019150611cb3565b6301e13380820191505b8080600101915050611c7d565b611cc8612ba0565b601f816000600c8110611cd757fe5b602002019060ff16908160ff1681525050611cf189611fc4565b15611d1b57601d816001600c8110611d0557fe5b602002019060ff16908160ff1681525050611d3c565b601c816001600c8110611d2a57fe5b602002019060ff16908160ff16815250505b601f816002600c8110611d4b57fe5b602002019060ff16908160ff1681525050601e816003600c8110611d6b57fe5b602002019060ff16908160ff1681525050601f816004600c8110611d8b57fe5b602002019060ff16908160ff1681525050601e816005600c8110611dab57fe5b602002019060ff16908160ff1681525050601f816006600c8110611dcb57fe5b602002019060ff16908160ff1681525050601f816007600c8110611deb57fe5b602002019060ff16908160ff1681525050601e816008600c8110611e0b57fe5b602002019060ff16908160ff1681525050601f816009600c8110611e2b57fe5b602002019060ff16908160ff1681525050601e81600a600c8110611e4b57fe5b602002019060ff16908160ff1681525050601f81600b600c8110611e6b57fe5b602002019060ff16908160ff1681525050600191505b8760ff168261ffff161015611ec157806001830361ffff16600c8110611ea357fe5b602002015160ff166201518002830192508180600101925050611e81565b6001870360ff166201518002830192508560ff16610e1002830192508460ff16603c02830192508360ff168301925082925050509695505050505050565b600080600090506000806301e133808581611f1657fe5b046107b261ffff16019150611f306107b261ffff16612039565b611f3d8361ffff16612039565b039050806301e285000283019250806107b2830361ffff16036301e1338002830192505b84831115611f9d57611f7560018303611fc4565b15611f88576301e2850083039250611f92565b6301e13380830392505b600182039150611f61565b819350505050919050565b60025481565b6000611fb9826127fa565b602001519050919050565b60008060048361ffff1681611fd557fe5b0661ffff1614611fe85760009050612034565b600060648361ffff1681611ff857fe5b0661ffff161461200b5760019050612034565b60006101908361ffff168161201c57fe5b0661ffff161461202f5760009050612034565b600190505b919050565b6000600182039150610190828161204c57fe5b046064838161205757fe5b046004848161206257fe5b0403019050919050565b600060018360ff161480612083575060038360ff16145b80612091575060058360ff16145b8061209f575060078360ff16145b806120ad575060088360ff16145b806120bb5750600a8360ff16145b806120c95750600c8360ff16145b156120d757601f9050612132565b60048360ff1614806120ec575060068360ff16145b806120fa575060098360ff16145b806121085750600b8360ff16145b1561211657601e9050612132565b61211f82611fc4565b1561212d57601d9050612132565b601c90505b92915050565b600080600080600090506000600190505b6001548111612228576040518060400160405280600781526020017f50656e64696e6700000000000000000000000000000000000000000000000000815250805190602001206008600083815260200190815260200160002060050160405180828054600181600116156101000203166002900480156122005780601f106121de576101008083540402835291820191612200565b820191906000526020600020905b8154815290600101906020018083116121ec575b50509150506040518091039020141561221b57809150612228565b8080600101915050612149565b5060086000828152602001908152602001600020600001546008600083815260200190815260200160002060030154600860008481526020019081526020016000206004015493509350935050909192565b600760009054906101000a900473ffffffffffffffffffffffffffffffffffffffff1681565b60055481565b6000806008600084815260200190815260200160002060060154905060008090506000600190505b82811161232157612312600860008781526020019081526020016000206008016000838152602001908152602001600020600401548361299790919063ffffffff16565b915080806001019150506122ce565b508092505050919050565b6000806005600684020390506000600684029050600080905060008390505b82811161236c5761235b816122a6565b82019150808060010191505061234b565b50809350505050919050565b6000603c80838161238557fe5b048161238d57fe5b069050919050565b600660009054906101000a900473ffffffffffffffffffffffffffffffffffffffff1681565b606060008211612433576040517f08c379a00000000000000000000000000000000000000000000000000000000081526004018080602001828103825260168152602001807f496e76616c696420696e7374616c6c6d656e742049640000000000000000000081525060200191505060405180910390fd5b600060086000848152602001908152602001600020600601549050600080905060008090506000809050600080905060006124a3600860008a815260200190815260200160002060040154600860008b81526020019081526020016000206003015461299790919063ffffffff16565b90506000600190505b8681116125b7576000600860008b815260200190815260200160002060080160008381526020019081526020016000206005015414156124f15760018601955061256b565b6001600860008b8152602001908152602001600020600801600083815260200190815260200160002060050154141561252f5760018501945061256a565b6002600860008b81526020019081526020016000206008016000838152602001908152602001600020600501541415612569576001830192505b5b5b6125a8600860008b81526020019081526020016000206008016000838152602001908152602001600020600401548561299790919063ffffffff16565b935080806001019150506124ac565b506000831480156125c85750600086145b15612610576040518060400160405280600781526020017f50656e64696e670000000000000000000000000000000000000000000000000081525096505050505050506127f5565b6001851480156126205750600084145b801561262c5750600082145b80156126385750808312155b15612680576040518060400160405280600781526020017f537563636573730000000000000000000000000000000000000000000000000081525096505050505050506127f5565b600185121580156126915750600186115b801561269d5750808312155b156126e5576040518060400160405280600a81526020017f52656d656469617465640000000000000000000000000000000000000000000081525096505050505050506127f5565b6000831380156126f457508083125b1561273c576040518060400160405280600781526020017f5061727469616c0000000000000000000000000000000000000000000000000081525096505050505050506127f5565b6001841215801561274d5750600083145b15612795576040518060400160405280600681526020017f4661696c6564000000000000000000000000000000000000000000000000000081525096505050505050506127f5565b600182121580156127a65750600083145b156127ee576040518060400160405280600881526020017f526566756e64656400000000000000000000000000000000000000000000000081525096505050505050506127f5565b5050505050505b919050565b612802612bc3565b600080905060008061281385611eff565b846000019061ffff16908161ffff16815250506128356107b261ffff16612039565b612846856000015161ffff16612039565b039150816301e285000283019250816107b285600001510361ffff16036301e1338002830192506000600191505b600c8260ff16116128ca5761288d82866000015161206c565b60ff16620151800290508584820111156128b85781856020019060ff16908160ff16815250506128ca565b80840193508180600101925050612874565b600191505b6128e18560200151866000015161206c565b60ff168260ff1611612926578584620151800111156129115781856040019060ff16908160ff1681525050612926565b620151808401935081806001019250506128cf565b61292f8661160e565b856060019060ff16908160ff168152505061294986612378565b856080019060ff16908160ff168152505061296386611b82565b8560a0019060ff16908160ff168152505061297d86611635565b8560c0019060ff16908160ff168152505050505050919050565b6000808284019050600083121580156129b05750838112155b806129c657506000831280156129c557508381125b5b612a1b576040517f08c379a0000000000000000000000000000000000000000000000000000000008152600401808060200182810382526021815260200180612c606021913960400191505060405180910390fd5b8091505092915050565b60405180610100016040528060008152602001600081526020016000815260200160008152602001600081526020016060815260200160008152602001600081525090565b828054600181600116156101000203166002900490600052602060002090601f016020900481019282601f10612aab57805160ff1916838001178555612ad9565b82800160010185558215612ad9579182015b82811115612ad8578251825591602001919060010190612abd565b5b509050612ae69190612c16565b5090565b6040518060c001604052806000815260200160008152602001606081526020016060815260200160008152602001600081525090565b828054600181600116156101000203166002900490600052602060002090601f016020900481019282601f10612b6157805160ff1916838001178555612b8f565b82800160010185558215612b8f579182015b82811115612b8e578251825591602001919060010190612b73565b5b509050612b9c9190612c16565b5090565b604051806101800160405280600c90602082028038833980820191505090505090565b6040518060e00160405280600061ffff168152602001600060ff168152602001600060ff168152602001600060ff168152602001600060ff168152602001600060ff168152602001600060ff1681525090565b612c3891905b80821115612c34576000816000905550600101612c1c565b5090565b9056fe4572726f723131393a20496e7374616c6c6d656e7420646f6573206e6f742045786973745369676e6564536166654d6174683a206164646974696f6e206f766572666c6f774572726f723130363a204361706974616c20677261746572207468616e207a65726f2069732072657175697265644572726f723130383a2052656d62204361706974616c20677261746572207468616e207a65726f2069732072657175697265644572726f723131323a207472616e73616374696f6e2049642069732072657175697265644572726f723130353a2054696d657374616d702073686f756c6420626520677261746572207468616e2032372c20417072696c20323032304572726f723130373a205265756d6e20677261746572207468616e207a65726f206973207265717569726564a265627a7a723158206d2118c04be49ba0a932da68150140b6cf97539b8c0d728fa7e566254c421f2864736f6c634300050c00324572726f723130323a205072696e6963616c2076616c75652069732072657175697265644572726f723131363a2053505620616464726573732069732072657175697265644572726f723130313a2050726f66697420726174652069732072657175697265644572726f723131373a204f626c69676f722061646472657373206973207265717569726564",
  "source": "pragma solidity ^0.5.12;\n\nimport './DateTime.sol';\nimport './SignedSafeMath.sol';\n\n//----------------------------------------------------------------------------\n// CXC Murabaha Smart Contract - Signed integer\n//----------------------------------------------------------------------------\n\ncontract CXCMurabaha is DateTime {\n    using SignedSafeMath for int256;\n    address public owner;\n    uint256 public NumberOfInstallments;\n    uint256 public tenor = 10;\n    string public paymentFrequency = 'monthly';\n    string public profitRate;\n    uint256 public principal;\n\n    address public SPVAddr;\n    address public obligorAddr;\n\n    // MODIFIERS\n    modifier onlyOwner() {\n        require(msg.sender == owner, \"Only Owner\");\n        _;\n    }\n\n    // Data strucure\n     struct Payment{\n        uint256 id;\n        uint256 timestamp;\n        string paymentType; //SEPA, Bank Wire, Cash, Other\n        string TxId;\n        int256 value;\n        uint256 status; //0: success, 1:Fail, 2: Cancelled\n    }\n\n    // Status Code\n    // Pending, Success, Remediated,Failed, Partial\n    struct Installment{\n        uint256 id;\n        uint timestamp;\n        int256 capital; //outstanding\n        int256 reumn; // profit\n        int256 rembCapital; //principal payment\n        string overallstatus;\n        uint256 paymentsLength;\n        int256 totalCollected;\n        mapping(uint256 => Payment) Payments;\n    }\n\n    mapping(uint256 => Installment) public installments;\n\n    // Event for scheduled installment\n    event ScheduleInstallmentEvent(uint256 id,uint256 timestamp ,string status, bytes32 installmentHash);\n\n    // Event for updating of a scheduled installment\n    event UpdateInstallmentEvent(uint256 id, string status, int256 value);\n\n    // Constructor\n    constructor (string memory _profitRate, uint256 _principal, address _SPVAddr, address _obligorAddr ) public {\n        \n        require(bytes(_profitRate).length > 0, 'Error101: Profit rate is required');\n        require(_principal != 0, 'Error102: Prinical value is required');\n        require(_SPVAddr != address(0x0), 'Error116: SPV address is required');\n        require(_obligorAddr != address(0x0), 'Error117: Obligor address is required');\n        \n        owner = msg.sender;\n        profitRate = _profitRate;\n        principal = _principal;\n        SPVAddr = _SPVAddr;\n        obligorAddr = _obligorAddr;\n        NumberOfInstallments = 0;\n    }\n\n    //Schedule installment\n    function ScheduleInstallment(uint256 _timestamp, int256 _capital, int256 _reumn, int256 _rembCapital ) public\n                                onlyOwner returns (uint256){\n\n        require(_timestamp > 1588001180, 'Error105: Timestamp should be grater than 27, April 2020'); //1588001180 = Monday, April 27, 2020 11:54:25 PM\n        require(_capital > 0, 'Error106: Capital grater than zero is required');\n        require(_reumn > 0, 'Error107: Reumn grater than zero is required');\n        require(_rembCapital > 0, 'Error108: Remb Capital grater than zero is required');\n\n            NumberOfInstallments = NumberOfInstallments+1;\n            Installment memory _installment;\n            _installment.id = NumberOfInstallments;\n            _installment.timestamp = _timestamp;\n            _installment.capital = _capital;\n            _installment.reumn = _reumn;\n            _installment.rembCapital = _rembCapital;\n            _installment.overallstatus = \"Pending\";\n \n            bytes32 installmentHash = keccak256(abi.encodePacked (_timestamp, _capital, _reumn, _rembCapital));\n            installments[NumberOfInstallments] = _installment;\n            emit ScheduleInstallmentEvent(NumberOfInstallments,_timestamp, \"Pending\", installmentHash);\n            return NumberOfInstallments;\n    }\n\n   //Update installment status\n   function UpdateInstallment(uint256 _id, uint256 _status, string memory _TxId, int256 _value, string memory _paymentType) public\n                            onlyOwner returns (bool)\n   {\n      require(_id > 0, 'Error118: Invalid Installment Id');\n      require(installments[_id].id > 0, 'Error119: Installment does not Exist');\n      require(_status >= 0, 'Error111: Status is required');\n      require(bytes(_TxId).length > 0, 'Error112: transaction Id is required');\n      //require(_value >= 0, 'Error120: Collected amount should greter than or equal to zero');\n      \n      Payment memory _temp;\n      uint256 _paymentLenth = installments[_id].paymentsLength;\n      _temp.id = _paymentLenth+1;\n      _temp.value = _value;\n      _temp.status = _status;\n      _temp.timestamp = block.timestamp;\n      _temp.TxId = _TxId;\n      _temp.paymentType = _paymentType;\n      \n      installments[_id].Payments[_paymentLenth+1] = _temp;\n      installments[_id].paymentsLength = _paymentLenth+1;\n      \n      string memory _overallStatus = OverAllStatus(_id);\n      installments[_id].overallstatus = _overallStatus;\n      installments[_id].totalCollected = GetPaymentsTotal(_id);\n      \n      emit UpdateInstallmentEvent(_id, _overallStatus, GetPaymentsTotal(_id));\n      \n      return true;\n   }\n\n//    function UpdatePayment(uint256 _installmentId, uint256 _paymentId, string memory _TxId, int256 _value, uint256 _status) public {\n//        installments[_installmentId].Payments[_paymentId].value = _value;\n//        installments[_installmentId].Payments[_paymentId].TxId = _TxId;\n//        installments[_installmentId].Payments[_paymentId].status = _status;\n//        string memory _overallStatus = OverAllStatus(_installmentId);\n//        installments[_installmentId].overallstatus = _overallStatus;\n//        installments[_installmentId].totalCollected = GetPaymentsTotal(_installmentId);\n//        emit UpdateInstallmentEvent(_installmentId, _overallStatus, GetPaymentsTotal(_installmentId));\n\n//    }\n\n    // Overall status calculation\n    function OverAllStatus(uint256 _id) internal view returns(string memory)\n    {\n        require(_id > 0,\"Invalid installment Id\");\n        \n        uint256 length = installments[_id].paymentsLength;\n        int256 sucessPayments = 0;\n        int256 failedPayments = 0;\n        int256 totalPayments = 0;\n        int256 refundedPayment = 0;\n        int256 monthlyPayment = installments[_id].reumn.add(installments[_id].rembCapital);\n        \n        for(uint256 i = 1; i <= length; i++)\n        {\n            if(installments[_id].Payments[i].status == 0)\n            sucessPayments = sucessPayments+1;\n            else if (installments[_id].Payments[i].status == 1)\n            {\n                failedPayments = failedPayments+1;\n            }\n            else if (installments[_id].Payments[i].status == 2)\n            {\n                refundedPayment = refundedPayment+1;\n            }\n            \n            totalPayments = totalPayments.add(installments[_id].Payments[i].value);\n\n        }\n        \n        if(totalPayments==0 && length==0)\n            return \"Pending\";\n        else if(sucessPayments==1 && failedPayments==0 && refundedPayment==0 && totalPayments>=monthlyPayment)\n            return \"Success\";\n        else if (sucessPayments>=1 && length>1 && totalPayments>=monthlyPayment)\n            return \"Remediated\";\n        else if(totalPayments > 0 && totalPayments < monthlyPayment)\n            return \"Partial\";\n        else if(failedPayments >= 1 && totalPayments==0)\n            return \"Failed\";\n        else if(refundedPayment>=1 && totalPayments==0)\n            return \"Refunded\";\n    }\n    \n    function GetPayments(uint256 _installmentId, uint256 _index) view public returns (uint256,uint256,int256,uint256,string memory, string memory)\n    {\n        require(_installmentId>0, \"Invalid installments Id\");\n        require(_index <= installments[_installmentId].paymentsLength, \"Invalid subPayments index\");\n        return (installments[_installmentId].Payments[_index].id,\n                installments[_installmentId].Payments[_index].timestamp,\n                installments[_installmentId].Payments[_index].value,\n                installments[_installmentId].Payments[_index].status,\n                installments[_installmentId].Payments[_index].TxId,\n                installments[_installmentId].Payments[_index].paymentType\n                );\n    }\n    \n    function GetPaymentsTotal(uint256 _installmentId) view public returns (int256)\n    {\n        uint256 length = installments[_installmentId].paymentsLength;\n        int256 totalPayments = 0;\n\n        for(uint256 i = 1; i <= length; i++)\n        {\n            totalPayments = totalPayments.add(installments[_installmentId].Payments[i].value);\n        }\n        return totalPayments;\n    }\n\n    function GetCouponValue(uint256 couponId) view public returns (int256)\n    {\n        uint256 from = (couponId*6) - 5;\n        uint256 to = (couponId*6);\n        int256 couponValue = 0;\n\n        for(uint256 i = from; i<=to; i++)\n        {\n            couponValue = couponValue + GetPaymentsTotal(i);\n        }\n\n        return couponValue;\n    }\n\n    function GetNextInstallment() view public returns(uint256, int256, int256)\n    {\n        uint256 nextInstallment = 0;\n\n        for(uint256 i = 1; i <= NumberOfInstallments; i++)\n        {\n           if (keccak256(bytes(installments[i].overallstatus)) == keccak256(bytes(\"Pending\"))) //get the first occurance of pendding\n           {nextInstallment = i;\n           break;\n           }\n        }\n        return (installments[nextInstallment].id,installments[nextInstallment].reumn, installments[nextInstallment].rembCapital);\n    }\n}",
  "sourcePath": "/Users/wazenshbair/SnT/EEthique/blockchain-based-sukuk/sukuk-system-Github/truffle/contracts/CXCMurabaha.sol",
  "compiler": {
    "name": "solc",
    "version": "0.5.12+commit.7709ece9.Emscripten.clang"
  },
  "schemaVersion": "3.0.18",
  "updatedAt": "2020-06-30T19:28:20.816Z",
  "networkType": "ethereum",
  "devdoc": {
    "methods": {}
  },
  "userdoc": {
    "methods": {}
  }
}