{
  "contractName": "CXCMurabaha",
  "abi": [
    {
      "inputs": [
        {
          "internalType": "string",
          "name": "_profitRate",
          "type": "string"
        },
        {
          "internalType": "uint256",
          "name": "_principal",
          "type": "uint256"
        },
        {
          "internalType": "address",
          "name": "_SPVAddr",
          "type": "address"
        },
        {
          "internalType": "address",
          "name": "_obligorAddr",
          "type": "address"
        }
      ],
      "payable": false,
      "stateMutability": "nonpayable",
      "type": "constructor"
    },
    {
      "anonymous": false,
      "inputs": [
        {
          "indexed": false,
          "internalType": "uint256",
          "name": "id",
          "type": "uint256"
        },
        {
          "indexed": false,
          "internalType": "uint256",
          "name": "timestamp",
          "type": "uint256"
        },
        {
          "indexed": false,
          "internalType": "string",
          "name": "status",
          "type": "string"
        },
        {
          "indexed": false,
          "internalType": "bytes32",
          "name": "installmentHash",
          "type": "bytes32"
        }
      ],
      "name": "ScheduleInstallmentEvent",
      "type": "event"
    },
    {
      "anonymous": false,
      "inputs": [
        {
          "indexed": false,
          "internalType": "uint256",
          "name": "id",
          "type": "uint256"
        },
        {
          "indexed": false,
          "internalType": "string",
          "name": "status",
          "type": "string"
        },
        {
          "indexed": false,
          "internalType": "int256",
          "name": "value",
          "type": "int256"
        }
      ],
      "name": "UpdateInstallmentEvent",
      "type": "event"
    },
    {
      "constant": true,
      "inputs": [],
      "name": "NumberOfInstallments",
      "outputs": [
        {
          "internalType": "uint256",
          "name": "",
          "type": "uint256"
        }
      ],
      "payable": false,
      "stateMutability": "view",
      "type": "function"
    },
    {
      "constant": true,
      "inputs": [],
      "name": "SPVAddr",
      "outputs": [
        {
          "internalType": "address",
          "name": "",
          "type": "address"
        }
      ],
      "payable": false,
      "stateMutability": "view",
      "type": "function"
    },
    {
      "constant": true,
      "inputs": [
        {
          "internalType": "uint256",
          "name": "timestamp",
          "type": "uint256"
        }
      ],
      "name": "getDay",
      "outputs": [
        {
          "internalType": "uint8",
          "name": "",
          "type": "uint8"
        }
      ],
      "payable": false,
      "stateMutability": "pure",
      "type": "function"
    },
    {
      "constant": true,
      "inputs": [
        {
          "internalType": "uint8",
          "name": "month",
          "type": "uint8"
        },
        {
          "internalType": "uint16",
          "name": "year",
          "type": "uint16"
        }
      ],
      "name": "getDaysInMonth",
      "outputs": [
        {
          "internalType": "uint8",
          "name": "",
          "type": "uint8"
        }
      ],
      "payable": false,
      "stateMutability": "pure",
      "type": "function"
    },
    {
      "constant": true,
      "inputs": [
        {
          "internalType": "uint256",
          "name": "timestamp",
          "type": "uint256"
        }
      ],
      "name": "getHour",
      "outputs": [
        {
          "internalType": "uint8",
          "name": "",
          "type": "uint8"
        }
      ],
      "payable": false,
      "stateMutability": "pure",
      "type": "function"
    },
    {
      "constant": true,
      "inputs": [
        {
          "internalType": "uint256",
          "name": "timestamp",
          "type": "uint256"
        }
      ],
      "name": "getMinute",
      "outputs": [
        {
          "internalType": "uint8",
          "name": "",
          "type": "uint8"
        }
      ],
      "payable": false,
      "stateMutability": "pure",
      "type": "function"
    },
    {
      "constant": true,
      "inputs": [
        {
          "internalType": "uint256",
          "name": "timestamp",
          "type": "uint256"
        }
      ],
      "name": "getMonth",
      "outputs": [
        {
          "internalType": "uint8",
          "name": "",
          "type": "uint8"
        }
      ],
      "payable": false,
      "stateMutability": "pure",
      "type": "function"
    },
    {
      "constant": true,
      "inputs": [
        {
          "internalType": "uint256",
          "name": "timestamp",
          "type": "uint256"
        }
      ],
      "name": "getSecond",
      "outputs": [
        {
          "internalType": "uint8",
          "name": "",
          "type": "uint8"
        }
      ],
      "payable": false,
      "stateMutability": "pure",
      "type": "function"
    },
    {
      "constant": true,
      "inputs": [
        {
          "internalType": "uint256",
          "name": "timestamp",
          "type": "uint256"
        }
      ],
      "name": "getWeekday",
      "outputs": [
        {
          "internalType": "uint8",
          "name": "",
          "type": "uint8"
        }
      ],
      "payable": false,
      "stateMutability": "pure",
      "type": "function"
    },
    {
      "constant": true,
      "inputs": [
        {
          "internalType": "uint256",
          "name": "timestamp",
          "type": "uint256"
        }
      ],
      "name": "getYear",
      "outputs": [
        {
          "internalType": "uint16",
          "name": "",
          "type": "uint16"
        }
      ],
      "payable": false,
      "stateMutability": "pure",
      "type": "function"
    },
    {
      "constant": true,
      "inputs": [
        {
          "internalType": "uint256",
          "name": "",
          "type": "uint256"
        }
      ],
      "name": "installments",
      "outputs": [
        {
          "internalType": "uint256",
          "name": "id",
          "type": "uint256"
        },
        {
          "internalType": "uint256",
          "name": "timestamp",
          "type": "uint256"
        },
        {
          "internalType": "int256",
          "name": "capital",
          "type": "int256"
        },
        {
          "internalType": "int256",
          "name": "reumn",
          "type": "int256"
        },
        {
          "internalType": "int256",
          "name": "rembCapital",
          "type": "int256"
        },
        {
          "internalType": "string",
          "name": "overallstatus",
          "type": "string"
        },
        {
          "internalType": "uint256",
          "name": "paymentsLength",
          "type": "uint256"
        },
        {
          "internalType": "int256",
          "name": "totalCollected",
          "type": "int256"
        }
      ],
      "payable": false,
      "stateMutability": "view",
      "type": "function"
    },
    {
      "constant": true,
      "inputs": [
        {
          "internalType": "uint16",
          "name": "year",
          "type": "uint16"
        }
      ],
      "name": "isLeapYear",
      "outputs": [
        {
          "internalType": "bool",
          "name": "",
          "type": "bool"
        }
      ],
      "payable": false,
      "stateMutability": "pure",
      "type": "function"
    },
    {
      "constant": true,
      "inputs": [
        {
          "internalType": "uint256",
          "name": "year",
          "type": "uint256"
        }
      ],
      "name": "leapYearsBefore",
      "outputs": [
        {
          "internalType": "uint256",
          "name": "",
          "type": "uint256"
        }
      ],
      "payable": false,
      "stateMutability": "pure",
      "type": "function"
    },
    {
      "constant": true,
      "inputs": [],
      "name": "obligorAddr",
      "outputs": [
        {
          "internalType": "address",
          "name": "",
          "type": "address"
        }
      ],
      "payable": false,
      "stateMutability": "view",
      "type": "function"
    },
    {
      "constant": true,
      "inputs": [],
      "name": "owner",
      "outputs": [
        {
          "internalType": "address",
          "name": "",
          "type": "address"
        }
      ],
      "payable": false,
      "stateMutability": "view",
      "type": "function"
    },
    {
      "constant": true,
      "inputs": [],
      "name": "paymentFrequency",
      "outputs": [
        {
          "internalType": "string",
          "name": "",
          "type": "string"
        }
      ],
      "payable": false,
      "stateMutability": "view",
      "type": "function"
    },
    {
      "constant": true,
      "inputs": [],
      "name": "principal",
      "outputs": [
        {
          "internalType": "uint256",
          "name": "",
          "type": "uint256"
        }
      ],
      "payable": false,
      "stateMutability": "view",
      "type": "function"
    },
    {
      "constant": true,
      "inputs": [],
      "name": "profitRate",
      "outputs": [
        {
          "internalType": "string",
          "name": "",
          "type": "string"
        }
      ],
      "payable": false,
      "stateMutability": "view",
      "type": "function"
    },
    {
      "constant": true,
      "inputs": [],
      "name": "tenor",
      "outputs": [
        {
          "internalType": "uint256",
          "name": "",
          "type": "uint256"
        }
      ],
      "payable": false,
      "stateMutability": "view",
      "type": "function"
    },
    {
      "constant": true,
      "inputs": [
        {
          "internalType": "uint16",
          "name": "year",
          "type": "uint16"
        },
        {
          "internalType": "uint8",
          "name": "month",
          "type": "uint8"
        },
        {
          "internalType": "uint8",
          "name": "day",
          "type": "uint8"
        },
        {
          "internalType": "uint8",
          "name": "hour",
          "type": "uint8"
        },
        {
          "internalType": "uint8",
          "name": "minute",
          "type": "uint8"
        }
      ],
      "name": "toTimestamp",
      "outputs": [
        {
          "internalType": "uint256",
          "name": "timestamp",
          "type": "uint256"
        }
      ],
      "payable": false,
      "stateMutability": "pure",
      "type": "function"
    },
    {
      "constant": true,
      "inputs": [
        {
          "internalType": "uint16",
          "name": "year",
          "type": "uint16"
        },
        {
          "internalType": "uint8",
          "name": "month",
          "type": "uint8"
        },
        {
          "internalType": "uint8",
          "name": "day",
          "type": "uint8"
        },
        {
          "internalType": "uint8",
          "name": "hour",
          "type": "uint8"
        }
      ],
      "name": "toTimestamp",
      "outputs": [
        {
          "internalType": "uint256",
          "name": "timestamp",
          "type": "uint256"
        }
      ],
      "payable": false,
      "stateMutability": "pure",
      "type": "function"
    },
    {
      "constant": true,
      "inputs": [
        {
          "internalType": "uint16",
          "name": "year",
          "type": "uint16"
        },
        {
          "internalType": "uint8",
          "name": "month",
          "type": "uint8"
        },
        {
          "internalType": "uint8",
          "name": "day",
          "type": "uint8"
        }
      ],
      "name": "toTimestamp",
      "outputs": [
        {
          "internalType": "uint256",
          "name": "timestamp",
          "type": "uint256"
        }
      ],
      "payable": false,
      "stateMutability": "pure",
      "type": "function"
    },
    {
      "constant": true,
      "inputs": [
        {
          "internalType": "uint16",
          "name": "year",
          "type": "uint16"
        },
        {
          "internalType": "uint8",
          "name": "month",
          "type": "uint8"
        },
        {
          "internalType": "uint8",
          "name": "day",
          "type": "uint8"
        },
        {
          "internalType": "uint8",
          "name": "hour",
          "type": "uint8"
        },
        {
          "internalType": "uint8",
          "name": "minute",
          "type": "uint8"
        },
        {
          "internalType": "uint8",
          "name": "second",
          "type": "uint8"
        }
      ],
      "name": "toTimestamp",
      "outputs": [
        {
          "internalType": "uint256",
          "name": "timestamp",
          "type": "uint256"
        }
      ],
      "payable": false,
      "stateMutability": "pure",
      "type": "function"
    },
    {
      "constant": false,
      "inputs": [
        {
          "internalType": "uint256",
          "name": "_timestamp",
          "type": "uint256"
        },
        {
          "internalType": "int256",
          "name": "_capital",
          "type": "int256"
        },
        {
          "internalType": "int256",
          "name": "_reumn",
          "type": "int256"
        },
        {
          "internalType": "int256",
          "name": "_rembCapital",
          "type": "int256"
        }
      ],
      "name": "ScheduleInstallment",
      "outputs": [
        {
          "internalType": "uint256",
          "name": "",
          "type": "uint256"
        }
      ],
      "payable": false,
      "stateMutability": "nonpayable",
      "type": "function"
    },
    {
      "constant": false,
      "inputs": [
        {
          "internalType": "uint256",
          "name": "_id",
          "type": "uint256"
        },
        {
          "internalType": "uint256",
          "name": "_status",
          "type": "uint256"
        },
        {
          "internalType": "string",
          "name": "_TxId",
          "type": "string"
        },
        {
          "internalType": "int256",
          "name": "_value",
          "type": "int256"
        },
        {
          "internalType": "string",
          "name": "_paymentType",
          "type": "string"
        }
      ],
      "name": "UpdateInstallment",
      "outputs": [
        {
          "internalType": "bool",
          "name": "",
          "type": "bool"
        }
      ],
      "payable": false,
      "stateMutability": "nonpayable",
      "type": "function"
    },
    {
      "constant": true,
      "inputs": [
        {
          "internalType": "uint256",
          "name": "_installmentId",
          "type": "uint256"
        },
        {
          "internalType": "uint256",
          "name": "_index",
          "type": "uint256"
        }
      ],
      "name": "GetPayments",
      "outputs": [
        {
          "internalType": "uint256",
          "name": "",
          "type": "uint256"
        },
        {
          "internalType": "uint256",
          "name": "",
          "type": "uint256"
        },
        {
          "internalType": "int256",
          "name": "",
          "type": "int256"
        },
        {
          "internalType": "uint256",
          "name": "",
          "type": "uint256"
        },
        {
          "internalType": "string",
          "name": "",
          "type": "string"
        },
        {
          "internalType": "string",
          "name": "",
          "type": "string"
        }
      ],
      "payable": false,
      "stateMutability": "view",
      "type": "function"
    },
    {
      "constant": true,
      "inputs": [
        {
          "internalType": "uint256",
          "name": "_installmentId",
          "type": "uint256"
        }
      ],
      "name": "GetPaymentsTotal",
      "outputs": [
        {
          "internalType": "int256",
          "name": "",
          "type": "int256"
        }
      ],
      "payable": false,
      "stateMutability": "view",
      "type": "function"
    },
    {
      "constant": true,
      "inputs": [
        {
          "internalType": "uint256",
          "name": "couponId",
          "type": "uint256"
        }
      ],
      "name": "GetCouponValue",
      "outputs": [
        {
          "internalType": "int256",
          "name": "",
          "type": "int256"
        }
      ],
      "payable": false,
      "stateMutability": "view",
      "type": "function"
    }
  ],
  "bytecode": "0x6080604052600a6002556040518060400160405280600781526020017f6d6f6e74686c7900000000000000000000000000000000000000000000000000815250600390805190602001906200005692919062000428565b503480156200006457600080fd5b506040516200319738038062003197833981810160405260808110156200008a57600080fd5b8101908080516040519392919084640100000000821115620000ab57600080fd5b83820191506020820185811115620000c257600080fd5b8251866001820283011164010000000082111715620000e057600080fd5b8083526020830192505050908051906020019080838360005b8381101562000116578082015181840152602081019050620000f9565b50505050905090810190601f168015620001445780820380516001836020036101000a031916815260200191505b506040526020018051906020019092919080519060200190929190805190602001909291905050506000845111620001c8576040517f08c379a0000000000000000000000000000000000000000000000000000000008152600401808060200182810382526021815260200180620031516021913960400191505060405180910390fd5b600083141562000224576040517f08c379a00000000000000000000000000000000000000000000000000000000081526004018080602001828103825260248152602001806200310c6024913960400191505060405180910390fd5b600073ffffffffffffffffffffffffffffffffffffffff168273ffffffffffffffffffffffffffffffffffffffff161415620002ac576040517f08c379a0000000000000000000000000000000000000000000000000000000008152600401808060200182810382526021815260200180620031306021913960400191505060405180910390fd5b600073ffffffffffffffffffffffffffffffffffffffff168173ffffffffffffffffffffffffffffffffffffffff16141562000334576040517f08c379a0000000000000000000000000000000000000000000000000000000008152600401808060200182810382526025815260200180620031726025913960400191505060405180910390fd5b336000806101000a81548173ffffffffffffffffffffffffffffffffffffffff021916908373ffffffffffffffffffffffffffffffffffffffff16021790555083600490805190602001906200038c92919062000428565b508260058190555081600660006101000a81548173ffffffffffffffffffffffffffffffffffffffff021916908373ffffffffffffffffffffffffffffffffffffffff16021790555080600760006101000a81548173ffffffffffffffffffffffffffffffffffffffff021916908373ffffffffffffffffffffffffffffffffffffffff160217905550600060018190555050505050620004d7565b828054600181600116156101000203166002900490600052602060002090601f016020900481019282601f106200046b57805160ff19168380011785556200049c565b828001600101855582156200049c579182015b828111156200049b5782518255916020019190600101906200047e565b5b509050620004ab9190620004af565b5090565b620004d491905b80821115620004d0576000816000905550600101620004b6565b5090565b90565b612c2580620004e76000396000f3fe608060405234801561001057600080fd5b50600436106101c45760003560e01c80638e589315116100f9578063b238ad0e11610097578063dc0cd0cf11610071578063dc0cd0cf14610c1b578063e40e36aa14610c5d578063fa93f88314610c9f578063fb5ba44914610ce7576101c4565b8063b238ad0e14610b5a578063b3d74d8a14610bb3578063ba5d307814610bfd576101c4565b8063a15612d1116100d3578063a15612d114610a68578063a324ad2414610a86578063a6f0e57714610ace578063b199993714610b18576101c4565b80638e589315146109145780639054bdec1461099757806392d6631314610a1e576101c4565b806365c72840116101665780637f791833116101405780637f791833146107b55780638aa001fc146108225780638c8d98a01461086a5780638da5cb5b146108ca576101c4565b806365c7284014610677578063791756c5146106bf5780637a6403a814610797576101c4565b80634ac1ad78116101a25780634ac1ad78146103f95780634c0520a11461044157806362ba96871461057a5780636388749c146105f4576101c4565b806324330b9d146101c95780633de2a1c6146102295780633e239e1a146103b1575b600080fd5b610213600480360360808110156101df57600080fd5b8101908080359060200190929190803590602001909291908035906020019092919080359060200190929190505050610d31565b6040518082815260200191505060405180910390f35b610397600480360360a081101561023f57600080fd5b8101908080359060200190929190803590602001909291908035906020019064010000000081111561027057600080fd5b82018360208201111561028257600080fd5b803590602001918460018302840111640100000000831117156102a457600080fd5b91908080601f016020809104026020016040519081016040528093929190818152602001838380828437600081840152601f19601f820116905080830192505050505050509192919290803590602001909291908035906020019064010000000081111561031157600080fd5b82018360208201111561032357600080fd5b8035906020019184600183028401116401000000008311171561034557600080fd5b91908080601f016020809104026020016040519081016040528093929190818152602001838380828437600081840152601f19601f820116905080830192505050505050509192919290505050611130565b604051808215151515815260200191505060405180910390f35b6103dd600480360360208110156103c757600080fd5b81019080803590602001909291905050506115d7565b604051808260ff1660ff16815260200191505060405180910390f35b6104256004803603602081101561040f57600080fd5b81019080803590602001909291905050506115fe565b604051808260ff1660ff16815260200191505060405180910390f35b6104776004803603604081101561045757600080fd5b810190808035906020019092919080359060200190929190505050611621565b604051808781526020018681526020018581526020018481526020018060200180602001838103835285818151815260200191508051906020019080838360005b838110156104d35780820151818401526020810190506104b8565b50505050905090810190601f1680156105005780820380516001836020036101000a031916815260200191505b50838103825284818151815260200191508051906020019080838360005b8381101561053957808201518184015260208101905061051e565b50505050905090810190601f1680156105665780820380516001836020036101000a031916815260200191505b509850505050505050505060405180910390f35b6105de600480360360a081101561059057600080fd5b81019080803561ffff169060200190929190803560ff169060200190929190803560ff169060200190929190803560ff169060200190929190803560ff16906020019092919050505061197a565b6040518082815260200191505060405180910390f35b6105fc611996565b6040518080602001828103825283818151815260200191508051906020019080838360005b8381101561063c578082015181840152602081019050610621565b50505050905090810190601f1680156106695780820380516001836020036101000a031916815260200191505b509250505060405180910390f35b6106a36004803603602081101561068d57600080fd5b8101908080359060200190929190505050611a34565b604051808260ff1660ff16815260200191505060405180910390f35b6106eb600480360360208110156106d557600080fd5b8101908080359060200190929190505050611a4a565b6040518089815260200188815260200187815260200186815260200185815260200180602001848152602001838152602001828103825285818151815260200191508051906020019080838360005b8381101561075557808201518184015260208101905061073a565b50505050905090810190601f1680156107825780820380516001836020036101000a031916815260200191505b50995050505050505050505060405180910390f35b61079f611b2a565b6040518082815260200191505060405180910390f35b61080c600480360360808110156107cb57600080fd5b81019080803561ffff169060200190929190803560ff169060200190929190803560ff169060200190929190803560ff169060200190929190505050611b30565b6040518082815260200191505060405180910390f35b61084e6004803603602081101561083857600080fd5b8101908080359060200190929190505050611b4b565b604051808260ff1660ff16815260200191505060405180910390f35b6108b46004803603606081101561088057600080fd5b81019080803561ffff169060200190929190803560ff169060200190929190803560ff169060200190929190505050611b5f565b6040518082815260200191505060405180910390f35b6108d2611b7a565b604051808273ffffffffffffffffffffffffffffffffffffffff1673ffffffffffffffffffffffffffffffffffffffff16815260200191505060405180910390f35b61091c611b9f565b6040518080602001828103825283818151815260200191508051906020019080838360005b8381101561095c578082015181840152602081019050610941565b50505050905090810190601f1680156109895780820380516001836020036101000a031916815260200191505b509250505060405180910390f35b610a08600480360360c08110156109ad57600080fd5b81019080803561ffff169060200190929190803560ff169060200190929190803560ff169060200190929190803560ff169060200190929190803560ff169060200190929190803560ff169060200190929190505050611c3d565b6040518082815260200191505060405180910390f35b610a4a60048036036020811015610a3457600080fd5b8101908080359060200190929190505050611ec8565b604051808261ffff1661ffff16815260200191505060405180910390f35b610a70611f71565b6040518082815260200191505060405180910390f35b610ab260048036036020811015610a9c57600080fd5b8101908080359060200190929190505050611f77565b604051808260ff1660ff16815260200191505060405180910390f35b610afe60048036036020811015610ae457600080fd5b81019080803561ffff169060200190929190505050611f8d565b604051808215151515815260200191505060405180910390f35b610b4460048036036020811015610b2e57600080fd5b8101908080359060200190929190505050612002565b6040518082815260200191505060405180910390f35b610b9760048036036040811015610b7057600080fd5b81019080803560ff169060200190929190803561ffff169060200190929190505050612035565b604051808260ff1660ff16815260200191505060405180910390f35b610bbb612101565b604051808273ffffffffffffffffffffffffffffffffffffffff1673ffffffffffffffffffffffffffffffffffffffff16815260200191505060405180910390f35b610c05612127565b6040518082815260200191505060405180910390f35b610c4760048036036020811015610c3157600080fd5b810190808035906020019092919050505061212d565b6040518082815260200191505060405180910390f35b610c8960048036036020811015610c7357600080fd5b81019080803590602001909291905050506121b3565b6040518082815260200191505060405180910390f35b610ccb60048036036020811015610cb557600080fd5b81019080803590602001909291905050506121ff565b604051808260ff1660ff16815260200191505060405180910390f35b610cef61221c565b604051808273ffffffffffffffffffffffffffffffffffffffff1673ffffffffffffffffffffffffffffffffffffffff16815260200191505060405180910390f35b60008060009054906101000a900473ffffffffffffffffffffffffffffffffffffffff1673ffffffffffffffffffffffffffffffffffffffff163373ffffffffffffffffffffffffffffffffffffffff1614610df5576040517f08c379a000000000000000000000000000000000000000000000000000000000815260040180806020018281038252600a8152602001807f4f6e6c79204f776e65720000000000000000000000000000000000000000000081525060200191505060405180910390fd5b635ea6f99c8511610e51576040517f08c379a0000000000000000000000000000000000000000000000000000000008152600401808060200182810382526038815260200180612b8d6038913960400191505060405180910390fd5b60008413610eaa576040517f08c379a000000000000000000000000000000000000000000000000000000000815260040180806020018281038252602e815260200180612b08602e913960400191505060405180910390fd5b60008313610f03576040517f08c379a000000000000000000000000000000000000000000000000000000000815260040180806020018281038252602c815260200180612bc5602c913960400191505060405180910390fd5b60008213610f5c576040517f08c379a0000000000000000000000000000000000000000000000000000000008152600401808060200182810382526033815260200180612b366033913960400191505060405180910390fd5b6001805401600181905550610f6f6128ac565b600154816000018181525050858160200181815250508481604001818152505083816060018181525050828160800181815250506040518060400160405280600781526020017f50656e64696e67000000000000000000000000000000000000000000000000008152508160a001819052506000868686866040516020018085815260200184815260200183815260200182815260200194505050505060405160208183030381529060405280519060200120905081600860006001548152602001908152602001600020600082015181600001556020820151816001015560408201518160020155606082015181600301556080820151816004015560a08201518160050190805190602001906110889291906128f1565b5060c0820151816006015560e082015181600701559050507ec49db72f3aafce447a2787bc25dd11554d7cc94b787fe5e923f0e4161f574360015488836040518084815260200183815260200180602001838152602001828103825260078152602001807f50656e64696e670000000000000000000000000000000000000000000000000081525060200194505050505060405180910390a160015492505050949350505050565b60008060009054906101000a900473ffffffffffffffffffffffffffffffffffffffff1673ffffffffffffffffffffffffffffffffffffffff163373ffffffffffffffffffffffffffffffffffffffff16146111f4576040517f08c379a000000000000000000000000000000000000000000000000000000000815260040180806020018281038252600a8152602001807f4f6e6c79204f776e65720000000000000000000000000000000000000000000081525060200191505060405180910390fd5b6000861161126a576040517f08c379a00000000000000000000000000000000000000000000000000000000081526004018080602001828103825260208152602001807f4572726f723131383a20496e76616c696420496e7374616c6c6d656e7420496481525060200191505060405180910390fd5b60006008600088815260200190815260200160002060000154116112d9576040517f08c379a0000000000000000000000000000000000000000000000000000000008152600401808060200182810382526024815260200180612ac36024913960400191505060405180910390fd5b6000851015611350576040517f08c379a000000000000000000000000000000000000000000000000000000000815260040180806020018281038252601c8152602001807f4572726f723131313a205374617475732069732072657175697265640000000081525060200191505060405180910390fd5b60008451116113aa576040517f08c379a0000000000000000000000000000000000000000000000000000000008152600401808060200182810382526024815260200180612b696024913960400191505060405180910390fd5b6113b2612971565b6000600860008981526020019081526020016000206006015490506001810182600001818152505084826080018181525050868260a00181815250504282602001818152505085826060018190525083826040018190525081600860008a81526020019081526020016000206008016000600184018152602001908152602001600020600082015181600001556020820151816001015560408201518160020190805190602001906114659291906128f1565b5060608201518160030190805190602001906114829291906128f1565b506080820151816004015560a0820151816005015590505060018101600860008a81526020019081526020016000206006018190555060606114c389612242565b905080600860008b815260200190815260200160002060050190805190602001906114ef9291906129a7565b506114f98961212d565b600860008b8152602001908152602001600020600701819055507f40e4bc5ef2547452345d096dce2569b18e76c8d67342f15f5141f108f993db9f898261153f8c61212d565b6040518084815260200180602001838152602001828103825284818151815260200191508051906020019080838360005b8381101561158b578082015181840152602081019050611570565b50505050905090810190601f1680156115b85780820380516001836020036101000a031916815260200191505b5094505050505060405180910390a16001935050505095945050505050565b60006018603c8084816115e657fe5b04816115ee57fe5b04816115f657fe5b069050919050565b60006007600462015180848161161057fe5b04018161161957fe5b069050919050565b600080600080606080600088116116a0576040517f08c379a00000000000000000000000000000000000000000000000000000000081526004018080602001828103825260178152602001807f496e76616c696420696e7374616c6c6d656e747320496400000000000000000081525060200191505060405180910390fd5b600860008981526020019081526020016000206006015487111561172c576040517f08c379a00000000000000000000000000000000000000000000000000000000081526004018080602001828103825260198152602001807f496e76616c6964207375625061796d656e747320696e6465780000000000000081525060200191505060405180910390fd5b60086000898152602001908152602001600020600801600088815260200190815260200160002060000154600860008a8152602001908152602001600020600801600089815260200190815260200160002060010154600860008b815260200190815260200160002060080160008a815260200190815260200160002060040154600860008c815260200190815260200160002060080160008b815260200190815260200160002060050154600860008d815260200190815260200160002060080160008c8152602001908152602001600020600301600860008e815260200190815260200160002060080160008d8152602001908152602001600020600201818054600181600116156101000203166002900480601f0160208091040260200160405190810160405280929190818152602001828054600181600116156101000203166002900480156118c15780601f10611896576101008083540402835291602001916118c1565b820191906000526020600020905b8154815290600101906020018083116118a457829003601f168201915b50505050509150808054600181600116156101000203166002900480601f01602080910402602001604051908101604052809291908181526020018280546001816001161561010002031660029004801561195d5780601f106119325761010080835404028352916020019161195d565b820191906000526020600020905b81548152906001019060200180831161194057829003601f168201915b505050505090509550955095509550955095509295509295509295565b600061198b86868686866000611c3d565b905095945050505050565b60048054600181600116156101000203166002900480601f016020809104026020016040519081016040528092919081815260200182805460018160011615610100020316600290048015611a2c5780601f10611a0157610100808354040283529160200191611a2c565b820191906000526020600020905b815481529060010190602001808311611a0f57829003601f168201915b505050505081565b6000611a3f82612681565b604001519050919050565b6008602052806000526040600020600091509050806000015490806001015490806002015490806003015490806004015490806005018054600181600116156101000203166002900480601f016020809104026020016040519081016040528092919081815260200182805460018160011615610100020316600290048015611b145780601f10611ae957610100808354040283529160200191611b14565b820191906000526020600020905b815481529060010190602001808311611af757829003601f168201915b5050505050908060060154908060070154905088565b60015481565b6000611b4185858585600080611c3d565b9050949350505050565b6000603c8281611b5757fe5b069050919050565b6000611b718484846000806000611c3d565b90509392505050565b6000809054906101000a900473ffffffffffffffffffffffffffffffffffffffff1681565b60038054600181600116156101000203166002900480601f016020809104026020016040519081016040528092919081815260200182805460018160011615610100020316600290048015611c355780601f10611c0a57610100808354040283529160200191611c35565b820191906000526020600020905b815481529060010190602001808311611c1857829003601f168201915b505050505081565b6000806107b290505b8761ffff168161ffff161015611c8957611c5f81611f8d565b15611c72576301e2850082019150611c7c565b6301e13380820191505b8080600101915050611c46565b611c91612a27565b601f816000600c8110611ca057fe5b602002019060ff16908160ff1681525050611cba89611f8d565b15611ce457601d816001600c8110611cce57fe5b602002019060ff16908160ff1681525050611d05565b601c816001600c8110611cf357fe5b602002019060ff16908160ff16815250505b601f816002600c8110611d1457fe5b602002019060ff16908160ff1681525050601e816003600c8110611d3457fe5b602002019060ff16908160ff1681525050601f816004600c8110611d5457fe5b602002019060ff16908160ff1681525050601e816005600c8110611d7457fe5b602002019060ff16908160ff1681525050601f816006600c8110611d9457fe5b602002019060ff16908160ff1681525050601f816007600c8110611db457fe5b602002019060ff16908160ff1681525050601e816008600c8110611dd457fe5b602002019060ff16908160ff1681525050601f816009600c8110611df457fe5b602002019060ff16908160ff1681525050601e81600a600c8110611e1457fe5b602002019060ff16908160ff1681525050601f81600b600c8110611e3457fe5b602002019060ff16908160ff1681525050600191505b8760ff168261ffff161015611e8a57806001830361ffff16600c8110611e6c57fe5b602002015160ff166201518002830192508180600101925050611e4a565b6001870360ff166201518002830192508560ff16610e1002830192508460ff16603c02830192508360ff168301925082925050509695505050505050565b600080600090506000806301e133808581611edf57fe5b046107b261ffff16019150611ef96107b261ffff16612002565b611f068361ffff16612002565b039050806301e285000283019250806107b2830361ffff16036301e1338002830192505b84831115611f6657611f3e60018303611f8d565b15611f51576301e2850083039250611f5b565b6301e13380830392505b600182039150611f2a565b819350505050919050565b60025481565b6000611f8282612681565b602001519050919050565b60008060048361ffff1681611f9e57fe5b0661ffff1614611fb15760009050611ffd565b600060648361ffff1681611fc157fe5b0661ffff1614611fd45760019050611ffd565b60006101908361ffff1681611fe557fe5b0661ffff1614611ff85760009050611ffd565b600190505b919050565b6000600182039150610190828161201557fe5b046064838161202057fe5b046004848161202b57fe5b0403019050919050565b600060018360ff16148061204c575060038360ff16145b8061205a575060058360ff16145b80612068575060078360ff16145b80612076575060088360ff16145b806120845750600a8360ff16145b806120925750600c8360ff16145b156120a057601f90506120fb565b60048360ff1614806120b5575060068360ff16145b806120c3575060098360ff16145b806120d15750600b8360ff16145b156120df57601e90506120fb565b6120e882611f8d565b156120f657601d90506120fb565b601c90505b92915050565b600760009054906101000a900473ffffffffffffffffffffffffffffffffffffffff1681565b60055481565b6000806008600084815260200190815260200160002060060154905060008090506000600190505b8281116121a857612199600860008781526020019081526020016000206008016000838152602001908152602001600020600401548361281e90919063ffffffff16565b91508080600101915050612155565b508092505050919050565b6000806005600684020390506000600684029050600080905060008390505b8281116121f3576121e28161212d565b8201915080806001019150506121d2565b50809350505050919050565b6000603c80838161220c57fe5b048161221457fe5b069050919050565b600660009054906101000a900473ffffffffffffffffffffffffffffffffffffffff1681565b6060600082116122ba576040517f08c379a00000000000000000000000000000000000000000000000000000000081526004018080602001828103825260168152602001807f496e76616c696420696e7374616c6c6d656e742049640000000000000000000081525060200191505060405180910390fd5b6000600860008481526020019081526020016000206006015490506000809050600080905060008090506000809050600061232a600860008a815260200190815260200160002060040154600860008b81526020019081526020016000206003015461281e90919063ffffffff16565b90506000600190505b86811161243e576000600860008b81526020019081526020016000206008016000838152602001908152602001600020600501541415612378576001860195506123f2565b6001600860008b815260200190815260200160002060080160008381526020019081526020016000206005015414156123b6576001850194506123f1565b6002600860008b815260200190815260200160002060080160008381526020019081526020016000206005015414156123f0576001830192505b5b5b61242f600860008b81526020019081526020016000206008016000838152602001908152602001600020600401548561281e90919063ffffffff16565b93508080600101915050612333565b5060008314801561244f5750600086145b15612497576040518060400160405280600781526020017f50656e64696e6700000000000000000000000000000000000000000000000000815250965050505050505061267c565b6001851480156124a75750600084145b80156124b35750600082145b80156124bf5750808312155b15612507576040518060400160405280600781526020017f5375636365737300000000000000000000000000000000000000000000000000815250965050505050505061267c565b600185121580156125185750600186115b80156125245750808312155b1561256c576040518060400160405280600a81526020017f52656d6564696174656400000000000000000000000000000000000000000000815250965050505050505061267c565b60008313801561257b57508083125b156125c3576040518060400160405280600781526020017f5061727469616c00000000000000000000000000000000000000000000000000815250965050505050505061267c565b600184121580156125d45750600083145b1561261c576040518060400160405280600681526020017f4661696c65640000000000000000000000000000000000000000000000000000815250965050505050505061267c565b6001821215801561262d5750600083145b15612675576040518060400160405280600881526020017f526566756e646564000000000000000000000000000000000000000000000000815250965050505050505061267c565b5050505050505b919050565b612689612a4a565b600080905060008061269a85611ec8565b846000019061ffff16908161ffff16815250506126bc6107b261ffff16612002565b6126cd856000015161ffff16612002565b039150816301e285000283019250816107b285600001510361ffff16036301e1338002830192506000600191505b600c8260ff161161275157612714828660000151612035565b60ff166201518002905085848201111561273f5781856020019060ff16908160ff1681525050612751565b808401935081806001019250506126fb565b600191505b61276885602001518660000151612035565b60ff168260ff16116127ad578584620151800111156127985781856040019060ff16908160ff16815250506127ad565b62015180840193508180600101925050612756565b6127b6866115d7565b856060019060ff16908160ff16815250506127d0866121ff565b856080019060ff16908160ff16815250506127ea86611b4b565b8560a0019060ff16908160ff1681525050612804866115fe565b8560c0019060ff16908160ff168152505050505050919050565b6000808284019050600083121580156128375750838112155b8061284d575060008312801561284c57508381125b5b6128a2576040517f08c379a0000000000000000000000000000000000000000000000000000000008152600401808060200182810382526021815260200180612ae76021913960400191505060405180910390fd5b8091505092915050565b60405180610100016040528060008152602001600081526020016000815260200160008152602001600081526020016060815260200160008152602001600081525090565b828054600181600116156101000203166002900490600052602060002090601f016020900481019282601f1061293257805160ff1916838001178555612960565b82800160010185558215612960579182015b8281111561295f578251825591602001919060010190612944565b5b50905061296d9190612a9d565b5090565b6040518060c001604052806000815260200160008152602001606081526020016060815260200160008152602001600081525090565b828054600181600116156101000203166002900490600052602060002090601f016020900481019282601f106129e857805160ff1916838001178555612a16565b82800160010185558215612a16579182015b82811115612a155782518255916020019190600101906129fa565b5b509050612a239190612a9d565b5090565b604051806101800160405280600c90602082028038833980820191505090505090565b6040518060e00160405280600061ffff168152602001600060ff168152602001600060ff168152602001600060ff168152602001600060ff168152602001600060ff168152602001600060ff1681525090565b612abf91905b80821115612abb576000816000905550600101612aa3565b5090565b9056fe4572726f723131393a20496e7374616c6c6d656e7420646f6573206e6f742045786973745369676e6564536166654d6174683a206164646974696f6e206f766572666c6f774572726f723130363a204361706974616c20677261746572207468616e207a65726f2069732072657175697265644572726f723130383a2052656d62204361706974616c20677261746572207468616e207a65726f2069732072657175697265644572726f723131323a207472616e73616374696f6e2049642069732072657175697265644572726f723130353a2054696d657374616d702073686f756c6420626520677261746572207468616e2032372c20417072696c20323032304572726f723130373a205265756d6e20677261746572207468616e207a65726f206973207265717569726564a265627a7a72315820bf759f6a8a33aaf6424adff32001f65bdb9447c87570c56d0fc4b22e43e402cf64736f6c634300050c00324572726f723130323a205072696e6963616c2076616c75652069732072657175697265644572726f723131363a2053505620616464726573732069732072657175697265644572726f723130313a2050726f66697420726174652069732072657175697265644572726f723131373a204f626c69676f722061646472657373206973207265717569726564",
  "source": "pragma solidity ^0.5.12;\n\nimport './DateTime.sol';\nimport './SignedSafeMath.sol';\n\n//----------------------------------------------------------------------------\n// CXC Murabaha Smart Contract - Signed integer\n//----------------------------------------------------------------------------\n\ncontract CXCMurabaha is DateTime {\n    using SignedSafeMath for int256;\n    address public owner;\n    uint256 public NumberOfInstallments;\n    uint256 public tenor = 10;\n    string public paymentFrequency = 'monthly';\n    string public profitRate;\n    uint256 public principal; \n\n    address public SPVAddr;\n    address public obligorAddr;\n\n    // MODIFIERS\n    modifier onlyOwner() {\n        require(msg.sender == owner, \"Only Owner\");\n        _;\n    }\n\n    // Data strucure\n     struct Payment{\n        uint256 id;\n        uint256 timestamp;\n        string paymentType; //SEPA, Bank Wire, Cash, Other\n        string TxId;\n        int256 value;\n        uint256 status; //0: success, 1:Fail, 2: Cancelled\n    }\n\n    // Status Code\n    // Pending, Success, Remediated,Failed, Partial\n    struct Installment{\n        uint256 id;\n        uint timestamp;\n        int256 capital; //outstanding\n        int256 reumn; // profit\n        int256 rembCapital; //principal payment\n        string  overallstatus;\n        uint256 paymentsLength;\n        int256 totalCollected;\n        mapping(uint256 => Payment) Payments;\n    }\n\n    mapping(uint256 => Installment) public installments;\n\n    // Event for scheduled installment\n    event ScheduleInstallmentEvent(uint256 id,uint256 timestamp ,string status, bytes32 installmentHash);\n\n    // Event for updating of a scheduled installment\n    event UpdateInstallmentEvent(uint256 id, string status, int256 value);\n\n    // Constructor\n    constructor (string memory _profitRate, uint256 _principal, address _SPVAddr, address _obligorAddr ) public {\n        \n        require(bytes(_profitRate).length > 0, 'Error101: Profit rate is required');\n        require(_principal != 0, 'Error102: Prinical value is required');\n        require(_SPVAddr != address(0x0), 'Error116: SPV address is required');\n        require(_obligorAddr != address(0x0), 'Error117: Obligor address is required');\n        \n        owner = msg.sender;\n        profitRate = _profitRate;\n        principal = _principal;\n        SPVAddr = _SPVAddr;\n        obligorAddr = _obligorAddr;\n        NumberOfInstallments = 0;\n    }\n\n    //Schedule installment\n    function ScheduleInstallment(uint256 _timestamp, int256 _capital, int256 _reumn, int256 _rembCapital ) public\n                                onlyOwner returns (uint256){\n\n        require(_timestamp > 1588001180, 'Error105: Timestamp should be grater than 27, April 2020'); //1588001180 = Monday, April 27, 2020 11:54:25 PM\n        require(_capital > 0, 'Error106: Capital grater than zero is required');\n        require(_reumn > 0, 'Error107: Reumn grater than zero is required');\n        require(_rembCapital > 0, 'Error108: Remb Capital grater than zero is required');\n\n            NumberOfInstallments = NumberOfInstallments+1;\n            Installment memory _installment;\n            _installment.id = NumberOfInstallments;\n            _installment.timestamp = _timestamp;\n            _installment.capital = _capital;\n            _installment.reumn = _reumn;\n            _installment.rembCapital = _rembCapital;\n            _installment.overallstatus = \"Pending\";\n \n            bytes32 installmentHash = keccak256(abi.encodePacked (_timestamp, _capital, _reumn, _rembCapital));\n            installments[NumberOfInstallments] = _installment;\n            emit ScheduleInstallmentEvent(NumberOfInstallments,_timestamp, \"Pending\", installmentHash);\n            return NumberOfInstallments;\n    }\n\n   //Update installment status\n   function UpdateInstallment(uint256 _id, uint256 _status, string memory _TxId, int256 _value, string memory _paymentType) public\n                            onlyOwner returns (bool)\n   {\n      require(_id > 0, 'Error118: Invalid Installment Id');\n      require(installments[_id].id > 0, 'Error119: Installment does not Exist');\n      require(_status >= 0, 'Error111: Status is required');\n      require(bytes(_TxId).length > 0, 'Error112: transaction Id is required');\n      //require(_value >= 0, 'Error120: Collected amount should greter than or equal to zero');\n      \n      Payment memory _temp;\n      uint256 _paymentLenth = installments[_id].paymentsLength;\n      _temp.id = _paymentLenth+1;\n      _temp.value = _value;\n      _temp.status = _status;\n      _temp.timestamp = block.timestamp;\n      _temp.TxId = _TxId;\n      _temp.paymentType = _paymentType;\n      \n      installments[_id].Payments[_paymentLenth+1] = _temp;\n      installments[_id].paymentsLength = _paymentLenth+1;\n      \n      string memory _overallStatus = OverAllStatus(_id);\n      installments[_id].overallstatus = _overallStatus;\n      installments[_id].totalCollected = GetPaymentsTotal(_id);\n      \n      emit UpdateInstallmentEvent(_id, _overallStatus, GetPaymentsTotal(_id));\n      \n      return true;\n   }\n\n//    function UpdatePayment(uint256 _installmentId, uint256 _paymentId, string memory _TxId, int256 _value, uint256 _status) public {\n//        installments[_installmentId].Payments[_paymentId].value = _value;\n//        installments[_installmentId].Payments[_paymentId].TxId = _TxId;\n//        installments[_installmentId].Payments[_paymentId].status = _status;\n//        string memory _overallStatus = OverAllStatus(_installmentId);\n//        installments[_installmentId].overallstatus = _overallStatus;\n//        installments[_installmentId].totalCollected = GetPaymentsTotal(_installmentId);\n//        emit UpdateInstallmentEvent(_installmentId, _overallStatus, GetPaymentsTotal(_installmentId));\n\n//    }\n\n    // Overall status calculation\n    function OverAllStatus(uint256 _id) internal view returns(string memory)\n    {\n        require(_id > 0,\"Invalid installment Id\");\n        \n        uint256 length = installments[_id].paymentsLength;\n        int256 sucessPayments = 0;\n        int256 failedPayments = 0;\n        int256 totalPayments = 0;\n        int256 refundedPayment = 0;\n        int256 monthlyPayment = installments[_id].reumn.add(installments[_id].rembCapital);\n        \n        for(uint256 i = 1; i <= length; i++)\n        {\n            if(installments[_id].Payments[i].status == 0)\n            sucessPayments = sucessPayments+1;\n            else if (installments[_id].Payments[i].status == 1)\n            {\n                failedPayments = failedPayments+1;\n            }\n            else if (installments[_id].Payments[i].status == 2)\n            {\n                refundedPayment = refundedPayment+1;\n            }\n            \n            totalPayments = totalPayments.add(installments[_id].Payments[i].value);\n\n        }\n        \n        if(totalPayments==0 && length==0)\n            return \"Pending\";\n        else if(sucessPayments==1 && failedPayments==0 && refundedPayment==0 && totalPayments>=monthlyPayment)\n            return \"Success\";\n        else if (sucessPayments>=1 && length>1 && totalPayments>=monthlyPayment)\n            return \"Remediated\";\n        else if(totalPayments > 0 && totalPayments < monthlyPayment)\n            return \"Partial\";\n        else if(failedPayments >= 1 && totalPayments==0)\n            return \"Failed\";\n        else if(refundedPayment>=1 && totalPayments==0)\n            return \"Refunded\";\n    }\n    \n    function GetPayments(uint256 _installmentId, uint256 _index) view public returns (uint256,uint256,int256,uint256,string memory, string memory)\n    {\n        require(_installmentId>0, \"Invalid installments Id\");\n        require(_index <= installments[_installmentId].paymentsLength, \"Invalid subPayments index\");\n        return (installments[_installmentId].Payments[_index].id,\n                installments[_installmentId].Payments[_index].timestamp,\n                installments[_installmentId].Payments[_index].value,\n                installments[_installmentId].Payments[_index].status,\n                installments[_installmentId].Payments[_index].TxId,\n                installments[_installmentId].Payments[_index].paymentType\n                );\n    }\n    \n    function GetPaymentsTotal(uint256 _installmentId) view public returns (int256)\n    {\n        uint256 length = installments[_installmentId].paymentsLength;\n        int256 totalPayments = 0;\n\n        for(uint256 i = 1; i <= length; i++)\n        {\n            totalPayments = totalPayments.add(installments[_installmentId].Payments[i].value);\n        }\n        return totalPayments;\n    }\n\n    function GetCouponValue(uint256 couponId) view public returns (int256)\n    {\n        uint256 from = (couponId*6) - 5;\n        uint256 to = (couponId*6);\n        int256 couponValue = 0;\n\n        for(uint256 i = from; i<=to; i++)\n        {\n            couponValue = couponValue + GetPaymentsTotal(i);\n        }\n\n        return couponValue;\n    }\n}",
  "sourcePath": "/Users/wazenshbair/SnT/EEthique/blockchain-based-sukuk/sukuk-system-Github/truffle/contracts/CXCMurabaha.sol",
  "compiler": {
    "name": "solc",
    "version": "0.5.12+commit.7709ece9.Emscripten.clang"
  },
  "schemaVersion": "3.0.18",
  "updatedAt": "2020-06-28T08:14:06.533Z",
  "devdoc": {
    "methods": {}
  },
  "userdoc": {
    "methods": {}
  }
}