{
  "contractName": "CXCMurabaha",
  "abi": [
    {
      "inputs": [
        {
          "internalType": "string",
          "name": "_profitRate",
          "type": "string"
        },
        {
          "internalType": "uint256",
          "name": "_principal",
          "type": "uint256"
        },
        {
          "internalType": "address",
          "name": "_SPVAddr",
          "type": "address"
        },
        {
          "internalType": "address",
          "name": "_obligorAddr",
          "type": "address"
        }
      ],
      "payable": false,
      "stateMutability": "nonpayable",
      "type": "constructor"
    },
    {
      "anonymous": false,
      "inputs": [
        {
          "indexed": false,
          "internalType": "uint256",
          "name": "id",
          "type": "uint256"
        },
        {
          "indexed": false,
          "internalType": "uint256",
          "name": "timestamp",
          "type": "uint256"
        },
        {
          "indexed": false,
          "internalType": "string",
          "name": "status",
          "type": "string"
        },
        {
          "indexed": false,
          "internalType": "bytes32",
          "name": "installmentHash",
          "type": "bytes32"
        }
      ],
      "name": "ScheduleInstallmentEvent",
      "type": "event"
    },
    {
      "anonymous": false,
      "inputs": [
        {
          "indexed": false,
          "internalType": "uint256",
          "name": "id",
          "type": "uint256"
        },
        {
          "indexed": false,
          "internalType": "string",
          "name": "status",
          "type": "string"
        },
        {
          "indexed": false,
          "internalType": "uint256",
          "name": "value",
          "type": "uint256"
        }
      ],
      "name": "UpdateInstallmentEvent",
      "type": "event"
    },
    {
      "constant": true,
      "inputs": [],
      "name": "NumberOfInstallments",
      "outputs": [
        {
          "internalType": "uint256",
          "name": "",
          "type": "uint256"
        }
      ],
      "payable": false,
      "stateMutability": "view",
      "type": "function"
    },
    {
      "constant": true,
      "inputs": [],
      "name": "SPVAddr",
      "outputs": [
        {
          "internalType": "address",
          "name": "",
          "type": "address"
        }
      ],
      "payable": false,
      "stateMutability": "view",
      "type": "function"
    },
    {
      "constant": true,
      "inputs": [
        {
          "internalType": "uint256",
          "name": "timestamp",
          "type": "uint256"
        }
      ],
      "name": "getDay",
      "outputs": [
        {
          "internalType": "uint8",
          "name": "",
          "type": "uint8"
        }
      ],
      "payable": false,
      "stateMutability": "pure",
      "type": "function"
    },
    {
      "constant": true,
      "inputs": [
        {
          "internalType": "uint8",
          "name": "month",
          "type": "uint8"
        },
        {
          "internalType": "uint16",
          "name": "year",
          "type": "uint16"
        }
      ],
      "name": "getDaysInMonth",
      "outputs": [
        {
          "internalType": "uint8",
          "name": "",
          "type": "uint8"
        }
      ],
      "payable": false,
      "stateMutability": "pure",
      "type": "function"
    },
    {
      "constant": true,
      "inputs": [
        {
          "internalType": "uint256",
          "name": "timestamp",
          "type": "uint256"
        }
      ],
      "name": "getHour",
      "outputs": [
        {
          "internalType": "uint8",
          "name": "",
          "type": "uint8"
        }
      ],
      "payable": false,
      "stateMutability": "pure",
      "type": "function"
    },
    {
      "constant": true,
      "inputs": [
        {
          "internalType": "uint256",
          "name": "timestamp",
          "type": "uint256"
        }
      ],
      "name": "getMinute",
      "outputs": [
        {
          "internalType": "uint8",
          "name": "",
          "type": "uint8"
        }
      ],
      "payable": false,
      "stateMutability": "pure",
      "type": "function"
    },
    {
      "constant": true,
      "inputs": [
        {
          "internalType": "uint256",
          "name": "timestamp",
          "type": "uint256"
        }
      ],
      "name": "getMonth",
      "outputs": [
        {
          "internalType": "uint8",
          "name": "",
          "type": "uint8"
        }
      ],
      "payable": false,
      "stateMutability": "pure",
      "type": "function"
    },
    {
      "constant": true,
      "inputs": [
        {
          "internalType": "uint256",
          "name": "timestamp",
          "type": "uint256"
        }
      ],
      "name": "getSecond",
      "outputs": [
        {
          "internalType": "uint8",
          "name": "",
          "type": "uint8"
        }
      ],
      "payable": false,
      "stateMutability": "pure",
      "type": "function"
    },
    {
      "constant": true,
      "inputs": [
        {
          "internalType": "uint256",
          "name": "timestamp",
          "type": "uint256"
        }
      ],
      "name": "getWeekday",
      "outputs": [
        {
          "internalType": "uint8",
          "name": "",
          "type": "uint8"
        }
      ],
      "payable": false,
      "stateMutability": "pure",
      "type": "function"
    },
    {
      "constant": true,
      "inputs": [
        {
          "internalType": "uint256",
          "name": "timestamp",
          "type": "uint256"
        }
      ],
      "name": "getYear",
      "outputs": [
        {
          "internalType": "uint16",
          "name": "",
          "type": "uint16"
        }
      ],
      "payable": false,
      "stateMutability": "pure",
      "type": "function"
    },
    {
      "constant": true,
      "inputs": [
        {
          "internalType": "uint256",
          "name": "",
          "type": "uint256"
        }
      ],
      "name": "installments",
      "outputs": [
        {
          "internalType": "uint256",
          "name": "id",
          "type": "uint256"
        },
        {
          "internalType": "uint256",
          "name": "timestamp",
          "type": "uint256"
        },
        {
          "internalType": "uint256",
          "name": "capital",
          "type": "uint256"
        },
        {
          "internalType": "uint256",
          "name": "reumn",
          "type": "uint256"
        },
        {
          "internalType": "uint256",
          "name": "rembCapital",
          "type": "uint256"
        },
        {
          "internalType": "string",
          "name": "overallstatus",
          "type": "string"
        },
        {
          "internalType": "uint256",
          "name": "paymentsLength",
          "type": "uint256"
        },
        {
          "internalType": "uint256",
          "name": "totalCollected",
          "type": "uint256"
        }
      ],
      "payable": false,
      "stateMutability": "view",
      "type": "function"
    },
    {
      "constant": true,
      "inputs": [
        {
          "internalType": "uint16",
          "name": "year",
          "type": "uint16"
        }
      ],
      "name": "isLeapYear",
      "outputs": [
        {
          "internalType": "bool",
          "name": "",
          "type": "bool"
        }
      ],
      "payable": false,
      "stateMutability": "pure",
      "type": "function"
    },
    {
      "constant": true,
      "inputs": [
        {
          "internalType": "uint256",
          "name": "year",
          "type": "uint256"
        }
      ],
      "name": "leapYearsBefore",
      "outputs": [
        {
          "internalType": "uint256",
          "name": "",
          "type": "uint256"
        }
      ],
      "payable": false,
      "stateMutability": "pure",
      "type": "function"
    },
    {
      "constant": true,
      "inputs": [],
      "name": "obligorAddr",
      "outputs": [
        {
          "internalType": "address",
          "name": "",
          "type": "address"
        }
      ],
      "payable": false,
      "stateMutability": "view",
      "type": "function"
    },
    {
      "constant": true,
      "inputs": [],
      "name": "owner",
      "outputs": [
        {
          "internalType": "address",
          "name": "",
          "type": "address"
        }
      ],
      "payable": false,
      "stateMutability": "view",
      "type": "function"
    },
    {
      "constant": true,
      "inputs": [],
      "name": "paymentFrequency",
      "outputs": [
        {
          "internalType": "string",
          "name": "",
          "type": "string"
        }
      ],
      "payable": false,
      "stateMutability": "view",
      "type": "function"
    },
    {
      "constant": true,
      "inputs": [],
      "name": "principal",
      "outputs": [
        {
          "internalType": "uint256",
          "name": "",
          "type": "uint256"
        }
      ],
      "payable": false,
      "stateMutability": "view",
      "type": "function"
    },
    {
      "constant": true,
      "inputs": [],
      "name": "profitRate",
      "outputs": [
        {
          "internalType": "string",
          "name": "",
          "type": "string"
        }
      ],
      "payable": false,
      "stateMutability": "view",
      "type": "function"
    },
    {
      "constant": true,
      "inputs": [],
      "name": "tenor",
      "outputs": [
        {
          "internalType": "uint256",
          "name": "",
          "type": "uint256"
        }
      ],
      "payable": false,
      "stateMutability": "view",
      "type": "function"
    },
    {
      "constant": true,
      "inputs": [
        {
          "internalType": "uint16",
          "name": "year",
          "type": "uint16"
        },
        {
          "internalType": "uint8",
          "name": "month",
          "type": "uint8"
        },
        {
          "internalType": "uint8",
          "name": "day",
          "type": "uint8"
        },
        {
          "internalType": "uint8",
          "name": "hour",
          "type": "uint8"
        },
        {
          "internalType": "uint8",
          "name": "minute",
          "type": "uint8"
        }
      ],
      "name": "toTimestamp",
      "outputs": [
        {
          "internalType": "uint256",
          "name": "timestamp",
          "type": "uint256"
        }
      ],
      "payable": false,
      "stateMutability": "pure",
      "type": "function"
    },
    {
      "constant": true,
      "inputs": [
        {
          "internalType": "uint16",
          "name": "year",
          "type": "uint16"
        },
        {
          "internalType": "uint8",
          "name": "month",
          "type": "uint8"
        },
        {
          "internalType": "uint8",
          "name": "day",
          "type": "uint8"
        },
        {
          "internalType": "uint8",
          "name": "hour",
          "type": "uint8"
        }
      ],
      "name": "toTimestamp",
      "outputs": [
        {
          "internalType": "uint256",
          "name": "timestamp",
          "type": "uint256"
        }
      ],
      "payable": false,
      "stateMutability": "pure",
      "type": "function"
    },
    {
      "constant": true,
      "inputs": [
        {
          "internalType": "uint16",
          "name": "year",
          "type": "uint16"
        },
        {
          "internalType": "uint8",
          "name": "month",
          "type": "uint8"
        },
        {
          "internalType": "uint8",
          "name": "day",
          "type": "uint8"
        }
      ],
      "name": "toTimestamp",
      "outputs": [
        {
          "internalType": "uint256",
          "name": "timestamp",
          "type": "uint256"
        }
      ],
      "payable": false,
      "stateMutability": "pure",
      "type": "function"
    },
    {
      "constant": true,
      "inputs": [
        {
          "internalType": "uint16",
          "name": "year",
          "type": "uint16"
        },
        {
          "internalType": "uint8",
          "name": "month",
          "type": "uint8"
        },
        {
          "internalType": "uint8",
          "name": "day",
          "type": "uint8"
        },
        {
          "internalType": "uint8",
          "name": "hour",
          "type": "uint8"
        },
        {
          "internalType": "uint8",
          "name": "minute",
          "type": "uint8"
        },
        {
          "internalType": "uint8",
          "name": "second",
          "type": "uint8"
        }
      ],
      "name": "toTimestamp",
      "outputs": [
        {
          "internalType": "uint256",
          "name": "timestamp",
          "type": "uint256"
        }
      ],
      "payable": false,
      "stateMutability": "pure",
      "type": "function"
    },
    {
      "constant": false,
      "inputs": [
        {
          "internalType": "uint256",
          "name": "_timestamp",
          "type": "uint256"
        },
        {
          "internalType": "uint256",
          "name": "_capital",
          "type": "uint256"
        },
        {
          "internalType": "uint256",
          "name": "_reumn",
          "type": "uint256"
        },
        {
          "internalType": "uint256",
          "name": "_rembCapital",
          "type": "uint256"
        }
      ],
      "name": "ScheduleInstallment",
      "outputs": [
        {
          "internalType": "uint256",
          "name": "",
          "type": "uint256"
        }
      ],
      "payable": false,
      "stateMutability": "nonpayable",
      "type": "function"
    },
    {
      "constant": false,
      "inputs": [
        {
          "internalType": "uint256",
          "name": "_id",
          "type": "uint256"
        },
        {
          "internalType": "uint256",
          "name": "_status",
          "type": "uint256"
        },
        {
          "internalType": "string",
          "name": "_TxId",
          "type": "string"
        },
        {
          "internalType": "uint256",
          "name": "_value",
          "type": "uint256"
        },
        {
          "internalType": "string",
          "name": "_paymentType",
          "type": "string"
        }
      ],
      "name": "UpdateInstallment",
      "outputs": [
        {
          "internalType": "bool",
          "name": "",
          "type": "bool"
        }
      ],
      "payable": false,
      "stateMutability": "nonpayable",
      "type": "function"
    },
    {
      "constant": false,
      "inputs": [
        {
          "internalType": "uint256",
          "name": "_installmentId",
          "type": "uint256"
        },
        {
          "internalType": "uint256",
          "name": "_paymentId",
          "type": "uint256"
        },
        {
          "internalType": "string",
          "name": "_TxId",
          "type": "string"
        },
        {
          "internalType": "uint256",
          "name": "_value",
          "type": "uint256"
        },
        {
          "internalType": "uint256",
          "name": "_status",
          "type": "uint256"
        }
      ],
      "name": "UpdatePayment",
      "outputs": [],
      "payable": false,
      "stateMutability": "nonpayable",
      "type": "function"
    },
    {
      "constant": true,
      "inputs": [
        {
          "internalType": "uint256",
          "name": "_installmentId",
          "type": "uint256"
        },
        {
          "internalType": "uint256",
          "name": "_index",
          "type": "uint256"
        }
      ],
      "name": "GetPayments",
      "outputs": [
        {
          "internalType": "uint256",
          "name": "",
          "type": "uint256"
        },
        {
          "internalType": "uint256",
          "name": "",
          "type": "uint256"
        },
        {
          "internalType": "uint256",
          "name": "",
          "type": "uint256"
        },
        {
          "internalType": "uint256",
          "name": "",
          "type": "uint256"
        },
        {
          "internalType": "string",
          "name": "",
          "type": "string"
        },
        {
          "internalType": "string",
          "name": "",
          "type": "string"
        }
      ],
      "payable": false,
      "stateMutability": "view",
      "type": "function"
    },
    {
      "constant": true,
      "inputs": [
        {
          "internalType": "uint256",
          "name": "_installmentId",
          "type": "uint256"
        }
      ],
      "name": "GetPaymentsTotal",
      "outputs": [
        {
          "internalType": "uint256",
          "name": "",
          "type": "uint256"
        }
      ],
      "payable": false,
      "stateMutability": "view",
      "type": "function"
    }
  ],
  "bytecode": "0x6080604052600a6002556040518060400160405280600781526020017f6d6f6e74686c7900000000000000000000000000000000000000000000000000815250600390805190602001906200005692919062000428565b503480156200006457600080fd5b506040516200336238038062003362833981810160405260808110156200008a57600080fd5b8101908080516040519392919084640100000000821115620000ab57600080fd5b83820191506020820185811115620000c257600080fd5b8251866001820283011164010000000082111715620000e057600080fd5b8083526020830192505050908051906020019080838360005b8381101562000116578082015181840152602081019050620000f9565b50505050905090810190601f168015620001445780820380516001836020036101000a031916815260200191505b506040526020018051906020019092919080519060200190929190805190602001909291905050506000845111620001c8576040517f08c379a00000000000000000000000000000000000000000000000000000000081526004018080602001828103825260218152602001806200331c6021913960400191505060405180910390fd5b600083141562000224576040517f08c379a0000000000000000000000000000000000000000000000000000000008152600401808060200182810382526024815260200180620032d76024913960400191505060405180910390fd5b600073ffffffffffffffffffffffffffffffffffffffff168273ffffffffffffffffffffffffffffffffffffffff161415620002ac576040517f08c379a0000000000000000000000000000000000000000000000000000000008152600401808060200182810382526021815260200180620032fb6021913960400191505060405180910390fd5b600073ffffffffffffffffffffffffffffffffffffffff168173ffffffffffffffffffffffffffffffffffffffff16141562000334576040517f08c379a00000000000000000000000000000000000000000000000000000000081526004018080602001828103825260258152602001806200333d6025913960400191505060405180910390fd5b336000806101000a81548173ffffffffffffffffffffffffffffffffffffffff021916908373ffffffffffffffffffffffffffffffffffffffff16021790555083600490805190602001906200038c92919062000428565b508260058190555081600660006101000a81548173ffffffffffffffffffffffffffffffffffffffff021916908373ffffffffffffffffffffffffffffffffffffffff16021790555080600760006101000a81548173ffffffffffffffffffffffffffffffffffffffff021916908373ffffffffffffffffffffffffffffffffffffffff160217905550600060018190555050505050620004d7565b828054600181600116156101000203166002900490600052602060002090601f016020900481019282601f106200046b57805160ff19168380011785556200049c565b828001600101855582156200049c579182015b828111156200049b5782518255916020019190600101906200047e565b5b509050620004ab9190620004af565b5090565b620004d491905b80821115620004d0576000816000905550600101620004b6565b5090565b90565b612df080620004e76000396000f3fe608060405234801561001057600080fd5b50600436106101c45760003560e01c80639054bdec116100f9578063b3d74d8a11610097578063d861124f11610071578063d861124f14610c1b578063dc0cd0cf14610cfe578063fa93f88314610d40578063fb5ba44914610d88576101c4565b8063b3d74d8a14610b53578063ba5d307814610b9d578063bd3b8fba14610bbb576101c4565b8063a324ad24116100d3578063a324ad2414610a26578063a6f0e57714610a6e578063b199993714610ab8578063b238ad0e14610afa576101c4565b80639054bdec1461093757806392d66313146109be578063a15612d114610a08576101c4565b8063791756c5116101665780638aa001fc116101405780638aa001fc146107c25780638c8d98a01461080a5780638da5cb5b1461086a5780638e589315146108b4576101c4565b8063791756c51461065f5780637a6403a8146107375780637f79183314610755576101c4565b80634c0520a1116101a25780634c0520a1146103e157806362ba96871461051a5780636388749c1461059457806365c7284014610617576101c4565b80632d27df4f146101c95780633e239e1a146103515780634ac1ad7814610399575b600080fd5b610337600480360360a08110156101df57600080fd5b8101908080359060200190929190803590602001909291908035906020019064010000000081111561021057600080fd5b82018360208201111561022257600080fd5b8035906020019184600183028401116401000000008311171561024457600080fd5b91908080601f016020809104026020016040519081016040528093929190818152602001838380828437600081840152601f19601f82011690508083019250505050505050919291929080359060200190929190803590602001906401000000008111156102b157600080fd5b8201836020820111156102c357600080fd5b803590602001918460018302840111640100000000831117156102e557600080fd5b91908080601f016020809104026020016040519081016040528093929190818152602001838380828437600081840152601f19601f820116905080830192505050505050509192919290505050610dd2565b604051808215151515815260200191505060405180910390f35b61037d6004803603602081101561036757600080fd5b81019080803590602001909291905050506112d3565b604051808260ff1660ff16815260200191505060405180910390f35b6103c5600480360360208110156103af57600080fd5b81019080803590602001909291905050506112fa565b604051808260ff1660ff16815260200191505060405180910390f35b610417600480360360408110156103f757600080fd5b81019080803590602001909291908035906020019092919050505061131d565b604051808781526020018681526020018581526020018481526020018060200180602001838103835285818151815260200191508051906020019080838360005b83811015610473578082015181840152602081019050610458565b50505050905090810190601f1680156104a05780820380516001836020036101000a031916815260200191505b50838103825284818151815260200191508051906020019080838360005b838110156104d95780820151818401526020810190506104be565b50505050905090810190601f1680156105065780820380516001836020036101000a031916815260200191505b509850505050505050505060405180910390f35b61057e600480360360a081101561053057600080fd5b81019080803561ffff169060200190929190803560ff169060200190929190803560ff169060200190929190803560ff169060200190929190803560ff169060200190929190505050611676565b6040518082815260200191505060405180910390f35b61059c611692565b6040518080602001828103825283818151815260200191508051906020019080838360005b838110156105dc5780820151818401526020810190506105c1565b50505050905090810190601f1680156106095780820380516001836020036101000a031916815260200191505b509250505060405180910390f35b6106436004803603602081101561062d57600080fd5b8101908080359060200190929190505050611730565b604051808260ff1660ff16815260200191505060405180910390f35b61068b6004803603602081101561067557600080fd5b8101908080359060200190929190505050611746565b6040518089815260200188815260200187815260200186815260200185815260200180602001848152602001838152602001828103825285818151815260200191508051906020019080838360005b838110156106f55780820151818401526020810190506106da565b50505050905090810190601f1680156107225780820380516001836020036101000a031916815260200191505b50995050505050505050505060405180910390f35b61073f611826565b6040518082815260200191505060405180910390f35b6107ac6004803603608081101561076b57600080fd5b81019080803561ffff169060200190929190803560ff169060200190929190803560ff169060200190929190803560ff16906020019092919050505061182c565b6040518082815260200191505060405180910390f35b6107ee600480360360208110156107d857600080fd5b8101908080359060200190929190505050611847565b604051808260ff1660ff16815260200191505060405180910390f35b6108546004803603606081101561082057600080fd5b81019080803561ffff169060200190929190803560ff169060200190929190803560ff16906020019092919050505061185b565b6040518082815260200191505060405180910390f35b610872611876565b604051808273ffffffffffffffffffffffffffffffffffffffff1673ffffffffffffffffffffffffffffffffffffffff16815260200191505060405180910390f35b6108bc61189b565b6040518080602001828103825283818151815260200191508051906020019080838360005b838110156108fc5780820151818401526020810190506108e1565b50505050905090810190601f1680156109295780820380516001836020036101000a031916815260200191505b509250505060405180910390f35b6109a8600480360360c081101561094d57600080fd5b81019080803561ffff169060200190929190803560ff169060200190929190803560ff169060200190929190803560ff169060200190929190803560ff169060200190929190803560ff169060200190929190505050611939565b6040518082815260200191505060405180910390f35b6109ea600480360360208110156109d457600080fd5b8101908080359060200190929190505050611bc4565b604051808261ffff1661ffff16815260200191505060405180910390f35b610a10611c6d565b6040518082815260200191505060405180910390f35b610a5260048036036020811015610a3c57600080fd5b8101908080359060200190929190505050611c73565b604051808260ff1660ff16815260200191505060405180910390f35b610a9e60048036036020811015610a8457600080fd5b81019080803561ffff169060200190929190505050611c89565b604051808215151515815260200191505060405180910390f35b610ae460048036036020811015610ace57600080fd5b8101908080359060200190929190505050611cfe565b6040518082815260200191505060405180910390f35b610b3760048036036040811015610b1057600080fd5b81019080803560ff169060200190929190803561ffff169060200190929190505050611d31565b604051808260ff1660ff16815260200191505060405180910390f35b610b5b611dfd565b604051808273ffffffffffffffffffffffffffffffffffffffff1673ffffffffffffffffffffffffffffffffffffffff16815260200191505060405180910390f35b610ba5611e23565b6040518082815260200191505060405180910390f35b610c0560048036036080811015610bd157600080fd5b8101908080359060200190929190803590602001909291908035906020019092919080359060200190929190505050611e29565b6040518082815260200191505060405180910390f35b610cfc600480360360a0811015610c3157600080fd5b81019080803590602001909291908035906020019092919080359060200190640100000000811115610c6257600080fd5b820183602082011115610c7457600080fd5b80359060200191846001830284011164010000000083111715610c9657600080fd5b91908080601f016020809104026020016040519081016040528093929190818152602001838380828437600081840152601f19601f8201169050808301925050505050505091929192908035906020019092919080359060200190929190505050612228565b005b610d2a60048036036020811015610d1457600080fd5b81019080803590602001909291905050506123dc565b6040518082815260200191505060405180910390f35b610d6c60048036036020811015610d5657600080fd5b8101908080359060200190929190505050612452565b604051808260ff1660ff16815260200191505060405180910390f35b610d9061246f565b604051808273ffffffffffffffffffffffffffffffffffffffff1673ffffffffffffffffffffffffffffffffffffffff16815260200191505060405180910390f35b60008060009054906101000a900473ffffffffffffffffffffffffffffffffffffffff1673ffffffffffffffffffffffffffffffffffffffff163373ffffffffffffffffffffffffffffffffffffffff1614610e96576040517f08c379a000000000000000000000000000000000000000000000000000000000815260040180806020018281038252600a8152602001807f4f6e6c79204f776e65720000000000000000000000000000000000000000000081525060200191505060405180910390fd5b60008611610f0c576040517f08c379a00000000000000000000000000000000000000000000000000000000081526004018080602001828103825260208152602001807f4572726f723131383a20496e76616c696420496e7374616c6c6d656e7420496481525060200191505060405180910390fd5b6000600860008881526020019081526020016000206000015411610f7b576040517f08c379a0000000000000000000000000000000000000000000000000000000008152600401808060200182810382526024815260200180612c686024913960400191505060405180910390fd5b6000851015610ff2576040517f08c379a000000000000000000000000000000000000000000000000000000000815260040180806020018281038252601c8152602001807f4572726f723131313a205374617475732069732072657175697265640000000081525060200191505060405180910390fd5b600084511161104c576040517f08c379a000000000000000000000000000000000000000000000000000000000815260040180806020018281038252602d815260200180612cca602d913960400191505060405180910390fd5b60008310156110a6576040517f08c379a000000000000000000000000000000000000000000000000000000000815260040180806020018281038252603e815260200180612c8c603e913960400191505060405180910390fd5b6110ae612a51565b6000600860008981526020019081526020016000206006015490506001810182600001818152505084826080018181525050868260a00181815250504282602001818152505085826060018190525083826040018190525081600860008a8152602001908152602001600020600801600060018401815260200190815260200160002060008201518160000155602082015181600101556040820151816002019080519060200190611161929190612a87565b50606082015181600301908051906020019061117e929190612a87565b506080820151816004015560a0820151816005015590505060018101600860008a81526020019081526020016000206006018190555060606111bf89612495565b905080600860008b815260200190815260200160002060050190805190602001906111eb929190612b07565b506111f5896123dc565b600860008b8152602001908152602001600020600701819055507fcdb60e7d0fdee856d0ba96d737fb03092e44871bf3b2dcc9e81b5899e3dfff6e898261123b8c6123dc565b6040518084815260200180602001838152602001828103825284818151815260200191508051906020019080838360005b8381101561128757808201518184015260208101905061126c565b50505050905090810190601f1680156112b45780820380516001836020036101000a031916815260200191505b5094505050505060405180910390a16001935050505095945050505050565b60006018603c8084816112e257fe5b04816112ea57fe5b04816112f257fe5b069050919050565b60006007600462015180848161130c57fe5b04018161131557fe5b069050919050565b6000806000806060806000881161139c576040517f08c379a00000000000000000000000000000000000000000000000000000000081526004018080602001828103825260178152602001807f496e76616c696420696e7374616c6c6d656e747320496400000000000000000081525060200191505060405180910390fd5b6008600089815260200190815260200160002060060154871115611428576040517f08c379a00000000000000000000000000000000000000000000000000000000081526004018080602001828103825260198152602001807f496e76616c6964207375625061796d656e747320696e6465780000000000000081525060200191505060405180910390fd5b60086000898152602001908152602001600020600801600088815260200190815260200160002060000154600860008a8152602001908152602001600020600801600089815260200190815260200160002060010154600860008b815260200190815260200160002060080160008a815260200190815260200160002060040154600860008c815260200190815260200160002060080160008b815260200190815260200160002060050154600860008d815260200190815260200160002060080160008c8152602001908152602001600020600301600860008e815260200190815260200160002060080160008d8152602001908152602001600020600201818054600181600116156101000203166002900480601f0160208091040260200160405190810160405280929190818152602001828054600181600116156101000203166002900480156115bd5780601f10611592576101008083540402835291602001916115bd565b820191906000526020600020905b8154815290600101906020018083116115a057829003601f168201915b50505050509150808054600181600116156101000203166002900480601f0160208091040260200160405190810160405280929190818152602001828054600181600116156101000203166002900480156116595780601f1061162e57610100808354040283529160200191611659565b820191906000526020600020905b81548152906001019060200180831161163c57829003601f168201915b505050505090509550955095509550955095509295509295509295565b600061168786868686866000611939565b905095945050505050565b60048054600181600116156101000203166002900480601f0160208091040260200160405190810160405280929190818152602001828054600181600116156101000203166002900480156117285780601f106116fd57610100808354040283529160200191611728565b820191906000526020600020905b81548152906001019060200180831161170b57829003601f168201915b505050505081565b600061173b826128b4565b604001519050919050565b6008602052806000526040600020600091509050806000015490806001015490806002015490806003015490806004015490806005018054600181600116156101000203166002900480601f0160208091040260200160405190810160405280929190818152602001828054600181600116156101000203166002900480156118105780601f106117e557610100808354040283529160200191611810565b820191906000526020600020905b8154815290600101906020018083116117f357829003601f168201915b5050505050908060060154908060070154905088565b60015481565b600061183d85858585600080611939565b9050949350505050565b6000603c828161185357fe5b069050919050565b600061186d8484846000806000611939565b90509392505050565b6000809054906101000a900473ffffffffffffffffffffffffffffffffffffffff1681565b60038054600181600116156101000203166002900480601f0160208091040260200160405190810160405280929190818152602001828054600181600116156101000203166002900480156119315780601f1061190657610100808354040283529160200191611931565b820191906000526020600020905b81548152906001019060200180831161191457829003601f168201915b505050505081565b6000806107b290505b8761ffff168161ffff1610156119855761195b81611c89565b1561196e576301e2850082019150611978565b6301e13380820191505b8080600101915050611942565b61198d612b87565b601f816000600c811061199c57fe5b602002019060ff16908160ff16815250506119b689611c89565b156119e057601d816001600c81106119ca57fe5b602002019060ff16908160ff1681525050611a01565b601c816001600c81106119ef57fe5b602002019060ff16908160ff16815250505b601f816002600c8110611a1057fe5b602002019060ff16908160ff1681525050601e816003600c8110611a3057fe5b602002019060ff16908160ff1681525050601f816004600c8110611a5057fe5b602002019060ff16908160ff1681525050601e816005600c8110611a7057fe5b602002019060ff16908160ff1681525050601f816006600c8110611a9057fe5b602002019060ff16908160ff1681525050601f816007600c8110611ab057fe5b602002019060ff16908160ff1681525050601e816008600c8110611ad057fe5b602002019060ff16908160ff1681525050601f816009600c8110611af057fe5b602002019060ff16908160ff1681525050601e81600a600c8110611b1057fe5b602002019060ff16908160ff1681525050601f81600b600c8110611b3057fe5b602002019060ff16908160ff1681525050600191505b8760ff168261ffff161015611b8657806001830361ffff16600c8110611b6857fe5b602002015160ff166201518002830192508180600101925050611b46565b6001870360ff166201518002830192508560ff16610e1002830192508460ff16603c02830192508360ff168301925082925050509695505050505050565b600080600090506000806301e133808581611bdb57fe5b046107b261ffff16019150611bf56107b261ffff16611cfe565b611c028361ffff16611cfe565b039050806301e285000283019250806107b2830361ffff16036301e1338002830192505b84831115611c6257611c3a60018303611c89565b15611c4d576301e2850083039250611c57565b6301e13380830392505b600182039150611c26565b819350505050919050565b60025481565b6000611c7e826128b4565b602001519050919050565b60008060048361ffff1681611c9a57fe5b0661ffff1614611cad5760009050611cf9565b600060648361ffff1681611cbd57fe5b0661ffff1614611cd05760019050611cf9565b60006101908361ffff1681611ce157fe5b0661ffff1614611cf45760009050611cf9565b600190505b919050565b60006001820391506101908281611d1157fe5b0460648381611d1c57fe5b0460048481611d2757fe5b0403019050919050565b600060018360ff161480611d48575060038360ff16145b80611d56575060058360ff16145b80611d64575060078360ff16145b80611d72575060088360ff16145b80611d805750600a8360ff16145b80611d8e5750600c8360ff16145b15611d9c57601f9050611df7565b60048360ff161480611db1575060068360ff16145b80611dbf575060098360ff16145b80611dcd5750600b8360ff16145b15611ddb57601e9050611df7565b611de482611c89565b15611df257601d9050611df7565b601c90505b92915050565b600760009054906101000a900473ffffffffffffffffffffffffffffffffffffffff1681565b60055481565b60008060009054906101000a900473ffffffffffffffffffffffffffffffffffffffff1673ffffffffffffffffffffffffffffffffffffffff163373ffffffffffffffffffffffffffffffffffffffff1614611eed576040517f08c379a000000000000000000000000000000000000000000000000000000000815260040180806020018281038252600a8152602001807f4f6e6c79204f776e65720000000000000000000000000000000000000000000081525060200191505060405180910390fd5b635ea6f99c8511611f49576040517f08c379a0000000000000000000000000000000000000000000000000000000008152600401808060200182810382526038815260200180612d586038913960400191505060405180910390fd5b60008411611fa2576040517f08c379a000000000000000000000000000000000000000000000000000000000815260040180806020018281038252602e815260200180612cf7602e913960400191505060405180910390fd5b60008311611ffb576040517f08c379a000000000000000000000000000000000000000000000000000000000815260040180806020018281038252602c815260200180612d90602c913960400191505060405180910390fd5b60008211612054576040517f08c379a0000000000000000000000000000000000000000000000000000000008152600401808060200182810382526033815260200180612d256033913960400191505060405180910390fd5b6001805401600181905550612067612baa565b600154816000018181525050858160200181815250508481604001818152505083816060018181525050828160800181815250506040518060400160405280600781526020017f50656e64696e67000000000000000000000000000000000000000000000000008152508160a001819052506000868686866040516020018085815260200184815260200183815260200182815260200194505050505060405160208183030381529060405280519060200120905081600860006001548152602001908152602001600020600082015181600001556020820151816001015560408201518160020155606082015181600301556080820151816004015560a0820151816005019080519060200190612180929190612a87565b5060c0820151816006015560e082015181600701559050507ec49db72f3aafce447a2787bc25dd11554d7cc94b787fe5e923f0e4161f574360015488836040518084815260200183815260200180602001838152602001828103825260078152602001807f50656e64696e670000000000000000000000000000000000000000000000000081525060200194505050505060405180910390a160015492505050949350505050565b8160086000878152602001908152602001600020600801600086815260200190815260200160002060040181905550826008600087815260200190815260200160002060080160008681526020019081526020016000206003019080519060200190612295929190612b07565b50806008600087815260200190815260200160002060080160008681526020019081526020016000206005018190555060606122d086612495565b9050806008600088815260200190815260200160002060050190805190602001906122fc929190612b07565b50612306866123dc565b60086000888152602001908152602001600020600701819055507fcdb60e7d0fdee856d0ba96d737fb03092e44871bf3b2dcc9e81b5899e3dfff6e868261234c896123dc565b6040518084815260200180602001838152602001828103825284818151815260200191508051906020019080838360005b8381101561239857808201518184015260208101905061237d565b50505050905090810190601f1680156123c55780820380516001836020036101000a031916815260200191505b5094505050505060405180910390a1505050505050565b6000806008600084815260200190815260200160002060060154905060008090506000600190505b8281116124475760086000868152602001908152602001600020600801600082815260200190815260200160002060040154820191508080600101915050612404565b508092505050919050565b6000603c80838161245f57fe5b048161246757fe5b069050919050565b600660009054906101000a900473ffffffffffffffffffffffffffffffffffffffff1681565b60606000821161250d576040517f08c379a00000000000000000000000000000000000000000000000000000000081526004018080602001828103825260168152602001807f496e766c61696420696e7374616c6c6d656e742049640000000000000000000081525060200191505060405180910390fd5b600060086000848152602001908152602001600020600601549050600080905060008090506000809050600080905060006008600089815260200190815260200160002060040154600860008a8152602001908152602001600020600301540190506000600190505b868111612671576000600860008b815260200190815260200160002060080160008381526020019081526020016000206005015414156125bb57600186019550612635565b6001600860008b815260200190815260200160002060080160008381526020019081526020016000206005015414156125f957600185019450612634565b6002600860008b81526020019081526020016000206008016000838152602001908152602001600020600501541415612633576001830192505b5b5b600860008a8152602001908152602001600020600801600082815260200190815260200160002060040154840193508080600101915050612576565b506000831480156126825750600086145b156126ca576040518060400160405280600781526020017f50656e64696e670000000000000000000000000000000000000000000000000081525096505050505050506128af565b6001851480156126da5750600084145b80156126e65750600082145b80156126f25750808310155b1561273a576040518060400160405280600781526020017f537563636573730000000000000000000000000000000000000000000000000081525096505050505050506128af565b6001851015801561274b5750600186115b80156127575750808310155b1561279f576040518060400160405280600a81526020017f52656d656469617465640000000000000000000000000000000000000000000081525096505050505050506128af565b6000831180156127ae57508083105b156127f6576040518060400160405280600781526020017f5061727469616c0000000000000000000000000000000000000000000000000081525096505050505050506128af565b600184101580156128075750600083145b1561284f576040518060400160405280600681526020017f4661696c6564000000000000000000000000000000000000000000000000000081525096505050505050506128af565b600182101580156128605750600083145b156128a8576040518060400160405280600881526020017f526566756e64656400000000000000000000000000000000000000000000000081525096505050505050506128af565b5050505050505b919050565b6128bc612bef565b60008090506000806128cd85611bc4565b846000019061ffff16908161ffff16815250506128ef6107b261ffff16611cfe565b612900856000015161ffff16611cfe565b039150816301e285000283019250816107b285600001510361ffff16036301e1338002830192506000600191505b600c8260ff161161298457612947828660000151611d31565b60ff16620151800290508584820111156129725781856020019060ff16908160ff1681525050612984565b8084019350818060010192505061292e565b600191505b61299b85602001518660000151611d31565b60ff168260ff16116129e0578584620151800111156129cb5781856040019060ff16908160ff16815250506129e0565b62015180840193508180600101925050612989565b6129e9866112d3565b856060019060ff16908160ff1681525050612a0386612452565b856080019060ff16908160ff1681525050612a1d86611847565b8560a0019060ff16908160ff1681525050612a37866112fa565b8560c0019060ff16908160ff168152505050505050919050565b6040518060c001604052806000815260200160008152602001606081526020016060815260200160008152602001600081525090565b828054600181600116156101000203166002900490600052602060002090601f016020900481019282601f10612ac857805160ff1916838001178555612af6565b82800160010185558215612af6579182015b82811115612af5578251825591602001919060010190612ada565b5b509050612b039190612c42565b5090565b828054600181600116156101000203166002900490600052602060002090601f016020900481019282601f10612b4857805160ff1916838001178555612b76565b82800160010185558215612b76579182015b82811115612b75578251825591602001919060010190612b5a565b5b509050612b839190612c42565b5090565b604051806101800160405280600c90602082028038833980820191505090505090565b60405180610100016040528060008152602001600081526020016000815260200160008152602001600081526020016060815260200160008152602001600081525090565b6040518060e00160405280600061ffff168152602001600060ff168152602001600060ff168152602001600060ff168152602001600060ff168152602001600060ff168152602001600060ff1681525090565b612c6491905b80821115612c60576000816000905550600101612c48565b5090565b9056fe4572726f723131393a20496e7374616c6c6d656e7420646f6573206e6f742045786973744572726f723132303a20436f6c6c656374656420616d6f756e742073686f756c6420677265746572207468616e206f7220657175616c20746f207a65726f4572726f723131323a204d6f6e676f506179207472616e73616374696f6e2049642069732072657175697265644572726f723130363a204361706974616c20677261746572207468616e207a65726f2069732072657175697265644572726f723130383a2052656d62204361706974616c20677261746572207468616e207a65726f2069732072657175697265644572726f723130353a2054696d657374616d702073686f756c6420626520677261746572207468616e2032372c20417072696c20323032304572726f723130373a205265756d6e20677261746572207468616e207a65726f206973207265717569726564a265627a7a72315820cc882d66939fba5c68c0c4a038e4ca6f7dd62fd573a50680bdfc3ad989ad6a1064736f6c634300050c00324572726f723130323a205072696e6963616c2076616c75652069732072657175697265644572726f723131363a2053505620616464726573732069732072657175697265644572726f723130313a2050726f66697420726174652069732072657175697265644572726f723131373a204f626c69676f722061646472657373206973207265717569726564",
  "source": "pragma solidity ^0.5.12;\n\nimport './DateTime.sol';\nimport './SafeMath.sol';\n\n//----------------------------------------------------------------------------\n// CXC Murabaha Smart Contract\n//----------------------------------------------------------------------------\n\ncontract CXCMurabaha is DateTime {\n    using SafeMath for uint256;\n    address public owner;\n    uint256 public NumberOfInstallments;\n    uint256 public tenor = 10;\n    string public paymentFrequency = 'monthly';\n    string public profitRate;\n    uint256 public principal;\n\n    address public SPVAddr;\n    address public obligorAddr;\n\n    // MODIFIERS\n    modifier onlyOwner() {\n        require(msg.sender == owner, \"Only Owner\");\n        _;\n    }\n\n    // Data strucure\n     struct Payment{\n        uint256 id;\n        uint256 timestamp;\n        string paymentType; //SEPA, Bank Wire, Cash, Other\n        string TxId;\n        uint256 value;\n        uint256 status; //0: success, 1:Fail, 2: Cancelled\n    }\n\n    // Status Code\n    // Pending, Success, Remediated,Failed, Partial\n    struct Installment{\n        uint256 id;\n        uint timestamp;\n        uint256 capital; //outstanding\n        uint256 reumn; // profit\n        uint256 rembCapital; //principal payment\n        string  overallstatus;\n        uint256 paymentsLength;\n        uint256 totalCollected;\n        mapping(uint256 => Payment) Payments;\n    }\n\n    mapping(uint256 => Installment) public installments;\n\n    // Event for scheduled installment\n    event ScheduleInstallmentEvent(uint256 id,uint256 timestamp ,string status, bytes32 installmentHash);\n\n    // Event for updating of a scheduled installment\n    event UpdateInstallmentEvent(uint256 id, string status, uint256 value);\n\n    // Constructor\n    constructor (string memory _profitRate, uint256 _principal, address _SPVAddr, address _obligorAddr ) public {\n        \n        require(bytes(_profitRate).length > 0, 'Error101: Profit rate is required');\n        require(_principal != 0, 'Error102: Prinical value is required');\n        require(_SPVAddr != address(0x0), 'Error116: SPV address is required');\n        require(_obligorAddr != address(0x0), 'Error117: Obligor address is required');\n        \n        owner = msg.sender;\n        profitRate = _profitRate;\n        principal = _principal;\n        SPVAddr = _SPVAddr;\n        obligorAddr = _obligorAddr;\n        NumberOfInstallments = 0;\n    }\n\n    //Schedule installment\n    function ScheduleInstallment(uint256 _timestamp, uint256 _capital, uint256 _reumn, uint256 _rembCapital ) public\n                                onlyOwner returns (uint256){\n\n        require(_timestamp > 1588001180, 'Error105: Timestamp should be grater than 27, April 2020'); //1588001180 = Monday, April 27, 2020 11:54:25 PM\n        require(_capital > 0, 'Error106: Capital grater than zero is required');\n        require(_reumn > 0, 'Error107: Reumn grater than zero is required');\n        require(_rembCapital > 0, 'Error108: Remb Capital grater than zero is required');\n\n            NumberOfInstallments = NumberOfInstallments+1;\n            Installment memory _installment;\n            _installment.id = NumberOfInstallments;\n            _installment.timestamp = _timestamp;\n            _installment.capital = _capital;\n            _installment.reumn = _reumn;\n            _installment.rembCapital = _rembCapital;\n            _installment.overallstatus = \"Pending\";\n \n            bytes32 installmentHash = keccak256(abi.encodePacked (_timestamp, _capital, _reumn, _rembCapital));\n            installments[NumberOfInstallments] = _installment;\n            emit ScheduleInstallmentEvent(NumberOfInstallments,_timestamp, \"Pending\", installmentHash);\n            return NumberOfInstallments;\n    }\n\n   //Update installment status\n   function UpdateInstallment(uint256 _id, uint256 _status, string memory _TxId, uint256 _value, string memory _paymentType) public\n                            onlyOwner returns (bool)\n   {\n      require(_id > 0, 'Error118: Invalid Installment Id');\n      require(installments[_id].id > 0, 'Error119: Installment does not Exist');\n      require(_status >= 0, 'Error111: Status is required');\n      require(bytes(_TxId).length > 0, 'Error112: MongoPay transaction Id is required');\n      require(_value >= 0, 'Error120: Collected amount should greter than or equal to zero');\n      \n      Payment memory _temp;\n      uint256 _paymentLenth = installments[_id].paymentsLength;\n      _temp.id = _paymentLenth+1;\n      _temp.value = _value;\n      _temp.status = _status;\n      _temp.timestamp = block.timestamp;\n      _temp.TxId = _TxId;\n      _temp.paymentType = _paymentType;\n      \n      installments[_id].Payments[_paymentLenth+1] = _temp;\n      installments[_id].paymentsLength = _paymentLenth+1;\n      \n      string memory _overallStatus = OverAllStatus(_id);\n      installments[_id].overallstatus = _overallStatus;\n      installments[_id].totalCollected = GetPaymentsTotal(_id);\n      \n      emit UpdateInstallmentEvent(_id, _overallStatus, GetPaymentsTotal(_id));\n      \n      return true;\n   }\n\n   function UpdatePayment(uint256 _installmentId, uint256 _paymentId, string memory _TxId, uint256 _value, uint256 _status) public {\n       installments[_installmentId].Payments[_paymentId].value = _value;\n       installments[_installmentId].Payments[_paymentId].TxId = _TxId;\n       installments[_installmentId].Payments[_paymentId].status = _status;\n\n       string memory _overallStatus = OverAllStatus(_installmentId);\n       installments[_installmentId].overallstatus = _overallStatus;\n       installments[_installmentId].totalCollected = GetPaymentsTotal(_installmentId);\n       emit UpdateInstallmentEvent(_installmentId, _overallStatus, GetPaymentsTotal(_installmentId));\n\n   }\n\n    // Overall status calculation\n    function OverAllStatus(uint256 _id) internal view returns(string memory)\n    {\n        require(_id > 0,\"Invlaid installment Id\");\n        \n        uint256 length = installments[_id].paymentsLength;\n        uint256 sucessPayments = 0;\n        uint256 failedPayments = 0;\n        uint256 totalPayments = 0;\n        uint256 refundedPayment=0;\n        uint256 monthlyPayment = installments[_id].reumn+installments[_id].rembCapital;\n        \n        for(uint256 i = 1; i <= length; i++)\n        {\n            if(installments[_id].Payments[i].status == 0)\n            sucessPayments = sucessPayments+1;\n            else if (installments[_id].Payments[i].status == 1)\n            {\n                failedPayments = failedPayments+1;\n            }\n            else if (installments[_id].Payments[i].status == 2)\n            {\n                refundedPayment=refundedPayment+1;\n            }\n            \n            totalPayments = totalPayments+installments[_id].Payments[i].value;\n\n        }\n        \n        if(totalPayments==0 && length==0)\n            return \"Pending\";\n        else if(sucessPayments==1 && failedPayments==0 && refundedPayment==0 && totalPayments>=monthlyPayment)\n            return \"Success\";\n        else if (sucessPayments>=1 && length>1 && totalPayments>=monthlyPayment)\n            return \"Remediated\";\n        else if(totalPayments > 0 && totalPayments < monthlyPayment)\n            return \"Partial\";\n        else if(failedPayments >= 1 && totalPayments==0)\n            return \"Failed\";\n        else if(refundedPayment>=1 && totalPayments==0)\n            return \"Refunded\";\n    }\n    \n    function GetPayments(uint256 _installmentId, uint256 _index) view public returns (uint256,uint256,uint256,uint256,string memory, string memory)\n    {\n        require(_installmentId>0, \"Invalid installments Id\");\n        require(_index <= installments[_installmentId].paymentsLength, \"Invalid subPayments index\");\n        return (installments[_installmentId].Payments[_index].id,\n                installments[_installmentId].Payments[_index].timestamp,\n                installments[_installmentId].Payments[_index].value,\n                installments[_installmentId].Payments[_index].status,\n                installments[_installmentId].Payments[_index].TxId,\n                installments[_installmentId].Payments[_index].paymentType\n                );\n    }\n    \n    function GetPaymentsTotal(uint256 _installmentId) view public returns (uint256)\n    {\n        uint256 length = installments[_installmentId].paymentsLength;\n        uint256 totalPayments = 0;\n\n        for(uint256 i = 1; i <= length; i++)\n        {\n            totalPayments = totalPayments+installments[_installmentId].Payments[i].value;\n        }\n        return totalPayments;\n    }\n}",
  "sourcePath": "/Users/wazenshbair/SnT/EEthique/blockchain-based-sukuk/truffle/contracts/CXCMurabaha.sol",
  "compiler": {
    "name": "solc",
    "version": "0.5.12+commit.7709ece9.Emscripten.clang"
  },
  "schemaVersion": "3.0.18",
  "updatedAt": "2020-05-27T23:31:33.704Z",
  "networkType": "ethereum",
  "devdoc": {
    "methods": {}
  },
  "userdoc": {
    "methods": {}
  }
}