{
  "contractName": "CXCSukuk",
  "abi": [
    {
      "inputs": [
        {
          "internalType": "string",
          "name": "_profitRate",
          "type": "string"
        },
        {
          "internalType": "uint256",
          "name": "_principal",
          "type": "uint256"
        },
        {
          "internalType": "address",
          "name": "_SPVAddr",
          "type": "address"
        },
        {
          "internalType": "address",
          "name": "_investorAddr",
          "type": "address"
        }
      ],
      "payable": false,
      "stateMutability": "nonpayable",
      "type": "constructor"
    },
    {
      "anonymous": false,
      "inputs": [
        {
          "indexed": false,
          "internalType": "uint256",
          "name": "id",
          "type": "uint256"
        },
        {
          "indexed": false,
          "internalType": "uint256",
          "name": "timestamp",
          "type": "uint256"
        },
        {
          "indexed": false,
          "internalType": "string",
          "name": "status",
          "type": "string"
        },
        {
          "indexed": false,
          "internalType": "bytes32",
          "name": "couponHash",
          "type": "bytes32"
        }
      ],
      "name": "ScheduleCouponEvent",
      "type": "event"
    },
    {
      "anonymous": false,
      "inputs": [
        {
          "indexed": false,
          "internalType": "uint256",
          "name": "id",
          "type": "uint256"
        },
        {
          "indexed": false,
          "internalType": "string",
          "name": "status",
          "type": "string"
        },
        {
          "indexed": false,
          "internalType": "int256",
          "name": "value",
          "type": "int256"
        }
      ],
      "name": "UpdateCouponEvent",
      "type": "event"
    },
    {
      "constant": true,
      "inputs": [],
      "name": "NumberOfCoupons",
      "outputs": [
        {
          "internalType": "uint256",
          "name": "",
          "type": "uint256"
        }
      ],
      "payable": false,
      "stateMutability": "view",
      "type": "function"
    },
    {
      "constant": true,
      "inputs": [],
      "name": "SPVAddr",
      "outputs": [
        {
          "internalType": "address",
          "name": "",
          "type": "address"
        }
      ],
      "payable": false,
      "stateMutability": "view",
      "type": "function"
    },
    {
      "constant": true,
      "inputs": [
        {
          "internalType": "uint256",
          "name": "",
          "type": "uint256"
        }
      ],
      "name": "coupons",
      "outputs": [
        {
          "internalType": "uint256",
          "name": "id",
          "type": "uint256"
        },
        {
          "internalType": "uint256",
          "name": "timestamp",
          "type": "uint256"
        },
        {
          "internalType": "int256",
          "name": "capital",
          "type": "int256"
        },
        {
          "internalType": "int256",
          "name": "reumn",
          "type": "int256"
        },
        {
          "internalType": "int256",
          "name": "rembCapital",
          "type": "int256"
        },
        {
          "internalType": "string",
          "name": "status",
          "type": "string"
        },
        {
          "internalType": "string",
          "name": "TxId",
          "type": "string"
        },
        {
          "internalType": "int256",
          "name": "value",
          "type": "int256"
        }
      ],
      "payable": false,
      "stateMutability": "view",
      "type": "function"
    },
    {
      "constant": true,
      "inputs": [
        {
          "internalType": "uint256",
          "name": "timestamp",
          "type": "uint256"
        }
      ],
      "name": "getDay",
      "outputs": [
        {
          "internalType": "uint8",
          "name": "",
          "type": "uint8"
        }
      ],
      "payable": false,
      "stateMutability": "pure",
      "type": "function"
    },
    {
      "constant": true,
      "inputs": [
        {
          "internalType": "uint8",
          "name": "month",
          "type": "uint8"
        },
        {
          "internalType": "uint16",
          "name": "year",
          "type": "uint16"
        }
      ],
      "name": "getDaysInMonth",
      "outputs": [
        {
          "internalType": "uint8",
          "name": "",
          "type": "uint8"
        }
      ],
      "payable": false,
      "stateMutability": "pure",
      "type": "function"
    },
    {
      "constant": true,
      "inputs": [
        {
          "internalType": "uint256",
          "name": "timestamp",
          "type": "uint256"
        }
      ],
      "name": "getHour",
      "outputs": [
        {
          "internalType": "uint8",
          "name": "",
          "type": "uint8"
        }
      ],
      "payable": false,
      "stateMutability": "pure",
      "type": "function"
    },
    {
      "constant": true,
      "inputs": [
        {
          "internalType": "uint256",
          "name": "timestamp",
          "type": "uint256"
        }
      ],
      "name": "getMinute",
      "outputs": [
        {
          "internalType": "uint8",
          "name": "",
          "type": "uint8"
        }
      ],
      "payable": false,
      "stateMutability": "pure",
      "type": "function"
    },
    {
      "constant": true,
      "inputs": [
        {
          "internalType": "uint256",
          "name": "timestamp",
          "type": "uint256"
        }
      ],
      "name": "getMonth",
      "outputs": [
        {
          "internalType": "uint8",
          "name": "",
          "type": "uint8"
        }
      ],
      "payable": false,
      "stateMutability": "pure",
      "type": "function"
    },
    {
      "constant": true,
      "inputs": [
        {
          "internalType": "uint256",
          "name": "timestamp",
          "type": "uint256"
        }
      ],
      "name": "getSecond",
      "outputs": [
        {
          "internalType": "uint8",
          "name": "",
          "type": "uint8"
        }
      ],
      "payable": false,
      "stateMutability": "pure",
      "type": "function"
    },
    {
      "constant": true,
      "inputs": [
        {
          "internalType": "uint256",
          "name": "timestamp",
          "type": "uint256"
        }
      ],
      "name": "getWeekday",
      "outputs": [
        {
          "internalType": "uint8",
          "name": "",
          "type": "uint8"
        }
      ],
      "payable": false,
      "stateMutability": "pure",
      "type": "function"
    },
    {
      "constant": true,
      "inputs": [
        {
          "internalType": "uint256",
          "name": "timestamp",
          "type": "uint256"
        }
      ],
      "name": "getYear",
      "outputs": [
        {
          "internalType": "uint16",
          "name": "",
          "type": "uint16"
        }
      ],
      "payable": false,
      "stateMutability": "pure",
      "type": "function"
    },
    {
      "constant": true,
      "inputs": [],
      "name": "investorAddr",
      "outputs": [
        {
          "internalType": "address",
          "name": "",
          "type": "address"
        }
      ],
      "payable": false,
      "stateMutability": "view",
      "type": "function"
    },
    {
      "constant": true,
      "inputs": [
        {
          "internalType": "uint16",
          "name": "year",
          "type": "uint16"
        }
      ],
      "name": "isLeapYear",
      "outputs": [
        {
          "internalType": "bool",
          "name": "",
          "type": "bool"
        }
      ],
      "payable": false,
      "stateMutability": "pure",
      "type": "function"
    },
    {
      "constant": true,
      "inputs": [
        {
          "internalType": "uint256",
          "name": "year",
          "type": "uint256"
        }
      ],
      "name": "leapYearsBefore",
      "outputs": [
        {
          "internalType": "uint256",
          "name": "",
          "type": "uint256"
        }
      ],
      "payable": false,
      "stateMutability": "pure",
      "type": "function"
    },
    {
      "constant": true,
      "inputs": [],
      "name": "owner",
      "outputs": [
        {
          "internalType": "address",
          "name": "",
          "type": "address"
        }
      ],
      "payable": false,
      "stateMutability": "view",
      "type": "function"
    },
    {
      "constant": true,
      "inputs": [],
      "name": "paymentFrequency",
      "outputs": [
        {
          "internalType": "string",
          "name": "",
          "type": "string"
        }
      ],
      "payable": false,
      "stateMutability": "view",
      "type": "function"
    },
    {
      "constant": true,
      "inputs": [],
      "name": "principal",
      "outputs": [
        {
          "internalType": "uint256",
          "name": "",
          "type": "uint256"
        }
      ],
      "payable": false,
      "stateMutability": "view",
      "type": "function"
    },
    {
      "constant": true,
      "inputs": [],
      "name": "profitRate",
      "outputs": [
        {
          "internalType": "string",
          "name": "",
          "type": "string"
        }
      ],
      "payable": false,
      "stateMutability": "view",
      "type": "function"
    },
    {
      "constant": true,
      "inputs": [],
      "name": "tenor",
      "outputs": [
        {
          "internalType": "uint256",
          "name": "",
          "type": "uint256"
        }
      ],
      "payable": false,
      "stateMutability": "view",
      "type": "function"
    },
    {
      "constant": true,
      "inputs": [
        {
          "internalType": "uint16",
          "name": "year",
          "type": "uint16"
        },
        {
          "internalType": "uint8",
          "name": "month",
          "type": "uint8"
        },
        {
          "internalType": "uint8",
          "name": "day",
          "type": "uint8"
        },
        {
          "internalType": "uint8",
          "name": "hour",
          "type": "uint8"
        },
        {
          "internalType": "uint8",
          "name": "minute",
          "type": "uint8"
        }
      ],
      "name": "toTimestamp",
      "outputs": [
        {
          "internalType": "uint256",
          "name": "timestamp",
          "type": "uint256"
        }
      ],
      "payable": false,
      "stateMutability": "pure",
      "type": "function"
    },
    {
      "constant": true,
      "inputs": [
        {
          "internalType": "uint16",
          "name": "year",
          "type": "uint16"
        },
        {
          "internalType": "uint8",
          "name": "month",
          "type": "uint8"
        },
        {
          "internalType": "uint8",
          "name": "day",
          "type": "uint8"
        },
        {
          "internalType": "uint8",
          "name": "hour",
          "type": "uint8"
        }
      ],
      "name": "toTimestamp",
      "outputs": [
        {
          "internalType": "uint256",
          "name": "timestamp",
          "type": "uint256"
        }
      ],
      "payable": false,
      "stateMutability": "pure",
      "type": "function"
    },
    {
      "constant": true,
      "inputs": [
        {
          "internalType": "uint16",
          "name": "year",
          "type": "uint16"
        },
        {
          "internalType": "uint8",
          "name": "month",
          "type": "uint8"
        },
        {
          "internalType": "uint8",
          "name": "day",
          "type": "uint8"
        }
      ],
      "name": "toTimestamp",
      "outputs": [
        {
          "internalType": "uint256",
          "name": "timestamp",
          "type": "uint256"
        }
      ],
      "payable": false,
      "stateMutability": "pure",
      "type": "function"
    },
    {
      "constant": true,
      "inputs": [
        {
          "internalType": "uint16",
          "name": "year",
          "type": "uint16"
        },
        {
          "internalType": "uint8",
          "name": "month",
          "type": "uint8"
        },
        {
          "internalType": "uint8",
          "name": "day",
          "type": "uint8"
        },
        {
          "internalType": "uint8",
          "name": "hour",
          "type": "uint8"
        },
        {
          "internalType": "uint8",
          "name": "minute",
          "type": "uint8"
        },
        {
          "internalType": "uint8",
          "name": "second",
          "type": "uint8"
        }
      ],
      "name": "toTimestamp",
      "outputs": [
        {
          "internalType": "uint256",
          "name": "timestamp",
          "type": "uint256"
        }
      ],
      "payable": false,
      "stateMutability": "pure",
      "type": "function"
    },
    {
      "constant": false,
      "inputs": [
        {
          "internalType": "uint256",
          "name": "_timestamp",
          "type": "uint256"
        },
        {
          "internalType": "int256",
          "name": "_capital",
          "type": "int256"
        },
        {
          "internalType": "int256",
          "name": "_reumn",
          "type": "int256"
        },
        {
          "internalType": "int256",
          "name": "_rembCapital",
          "type": "int256"
        }
      ],
      "name": "ScheduleCoupon",
      "outputs": [
        {
          "internalType": "uint256",
          "name": "",
          "type": "uint256"
        }
      ],
      "payable": false,
      "stateMutability": "nonpayable",
      "type": "function"
    },
    {
      "constant": false,
      "inputs": [
        {
          "internalType": "uint256",
          "name": "_id",
          "type": "uint256"
        },
        {
          "internalType": "string",
          "name": "_status",
          "type": "string"
        },
        {
          "internalType": "string",
          "name": "_TxId",
          "type": "string"
        },
        {
          "internalType": "int256",
          "name": "_value",
          "type": "int256"
        }
      ],
      "name": "UpdateCoupon",
      "outputs": [
        {
          "internalType": "bool",
          "name": "",
          "type": "bool"
        }
      ],
      "payable": false,
      "stateMutability": "nonpayable",
      "type": "function"
    },
    {
      "constant": false,
      "inputs": [
        {
          "internalType": "uint256",
          "name": "_year",
          "type": "uint256"
        }
      ],
      "name": "TotalCouponsPerYear",
      "outputs": [
        {
          "internalType": "int256",
          "name": "",
          "type": "int256"
        }
      ],
      "payable": false,
      "stateMutability": "nonpayable",
      "type": "function"
    }
  ],
  "bytecode": "0x6080604052600a6002556040518060400160405280600b81526020017f53656d692d416e6e75616c000000000000000000000000000000000000000000815250600390805190602001906200005692919062000428565b503480156200006457600080fd5b506040516200367638038062003676833981810160405260808110156200008a57600080fd5b8101908080516040519392919084640100000000821115620000ab57600080fd5b83820191506020820185811115620000c257600080fd5b8251866001820283011164010000000082111715620000e057600080fd5b8083526020830192505050908051906020019080838360005b8381101562000116578082015181840152602081019050620000f9565b50505050905090810190601f168015620001445780820380516001836020036101000a031916815260200191505b506040526020018051906020019092919080519060200190929190805190602001909291905050506000845111620001c8576040517f08c379a00000000000000000000000000000000000000000000000000000000081526004018080602001828103825260218152602001806200360a6021913960400191505060405180910390fd5b600083141562000224576040517f08c379a0000000000000000000000000000000000000000000000000000000008152600401808060200182810382526024815260200180620035e66024913960400191505060405180910390fd5b600073ffffffffffffffffffffffffffffffffffffffff168173ffffffffffffffffffffffffffffffffffffffff161415620002ac576040517f08c379a00000000000000000000000000000000000000000000000000000000081526004018080602001828103825260268152602001806200362b6026913960400191505060405180910390fd5b600073ffffffffffffffffffffffffffffffffffffffff168273ffffffffffffffffffffffffffffffffffffffff16141562000334576040517f08c379a0000000000000000000000000000000000000000000000000000000008152600401808060200182810382526025815260200180620036516025913960400191505060405180910390fd5b336000806101000a81548173ffffffffffffffffffffffffffffffffffffffff021916908373ffffffffffffffffffffffffffffffffffffffff16021790555083600490805190602001906200038c92919062000428565b508260058190555080600760006101000a81548173ffffffffffffffffffffffffffffffffffffffff021916908373ffffffffffffffffffffffffffffffffffffffff16021790555081600660006101000a81548173ffffffffffffffffffffffffffffffffffffffff021916908373ffffffffffffffffffffffffffffffffffffffff160217905550600060018190555050505050620004d7565b828054600181600116156101000203166002900490600052602060002090601f016020900481019282601f106200046b57805160ff19168380011785556200049c565b828001600101855582156200049c579182015b828111156200049b5782518255916020019190600101906200047e565b5b509050620004ab9190620004af565b5090565b620004d491905b80821115620004d0576000816000905550600101620004b6565b5090565b90565b6130ff80620004e76000396000f3fe608060405234801561001057600080fd5b506004361061018e5760003560e01c80639054bdec116100de578063b199993711610097578063e35e8f2811610071578063e35e8f2814610aa7578063f879ed6614610ae9578063fa93f88314610b49578063fb5ba44914610b915761018e565b8063b1999937146109ee578063b238ad0e14610a30578063ba5d307814610a895761018e565b80639054bdec1461082357806392d66313146108aa578063a15612d1146108f4578063a324ad2414610912578063a6f0e5771461095a578063acc4cc50146109a45761018e565b80636e79b84a1161014b5780638aa001fc116101255780638aa001fc146106ae5780638c8d98a0146106f65780638da5cb5b146107565780638e589315146107a05761018e565b80636e79b84a146104a55780637f791833146104c357806389af7a6b146105305761018e565b806330828e92146101935780633e239e1a146102d05780634ac1ad781461031857806362ba9687146103605780636388749c146103da57806365c728401461045d575b600080fd5b6101bf600480360360208110156101a957600080fd5b8101908080359060200190929190505050610bdb565b604051808981526020018881526020018781526020018681526020018581526020018060200180602001848152602001838103835286818151815260200191508051906020019080838360005b8381101561022757808201518184015260208101905061020c565b50505050905090810190601f1680156102545780820380516001836020036101000a031916815260200191505b50838103825285818151815260200191508051906020019080838360005b8381101561028d578082015181840152602081019050610272565b50505050905090810190601f1680156102ba5780820380516001836020036101000a031916815260200191505b509a505050505050505050505060405180910390f35b6102fc600480360360208110156102e657600080fd5b8101908080359060200190929190505050610d53565b604051808260ff1660ff16815260200191505060405180910390f35b6103446004803603602081101561032e57600080fd5b8101908080359060200190929190505050610d7a565b604051808260ff1660ff16815260200191505060405180910390f35b6103c4600480360360a081101561037657600080fd5b81019080803561ffff169060200190929190803560ff169060200190929190803560ff169060200190929190803560ff169060200190929190803560ff169060200190929190505050610d9d565b6040518082815260200191505060405180910390f35b6103e2610db9565b6040518080602001828103825283818151815260200191508051906020019080838360005b83811015610422578082015181840152602081019050610407565b50505050905090810190601f16801561044f5780820380516001836020036101000a031916815260200191505b509250505060405180910390f35b6104896004803603602081101561047357600080fd5b8101908080359060200190929190505050610e57565b604051808260ff1660ff16815260200191505060405180910390f35b6104ad610e6d565b6040518082815260200191505060405180910390f35b61051a600480360360808110156104d957600080fd5b81019080803561ffff169060200190929190803560ff169060200190929190803560ff169060200190929190803560ff169060200190929190505050610e73565b6040518082815260200191505060405180910390f35b6106946004803603608081101561054657600080fd5b81019080803590602001909291908035906020019064010000000081111561056d57600080fd5b82018360208201111561057f57600080fd5b803590602001918460018302840111640100000000831117156105a157600080fd5b91908080601f016020809104026020016040519081016040528093929190818152602001838380828437600081840152601f19601f8201169050808301925050505050505091929192908035906020019064010000000081111561060457600080fd5b82018360208201111561061657600080fd5b8035906020019184600183028401116401000000008311171561063857600080fd5b91908080601f016020809104026020016040519081016040528093929190818152602001838380828437600081840152601f19601f82011690508083019250505050505050919291929080359060200190929190505050610e8e565b604051808215151515815260200191505060405180910390f35b6106da600480360360208110156106c457600080fd5b810190808035906020019092919050505061123e565b604051808260ff1660ff16815260200191505060405180910390f35b6107406004803603606081101561070c57600080fd5b81019080803561ffff169060200190929190803560ff169060200190929190803560ff169060200190929190505050611252565b6040518082815260200191505060405180910390f35b61075e61126d565b604051808273ffffffffffffffffffffffffffffffffffffffff1673ffffffffffffffffffffffffffffffffffffffff16815260200191505060405180910390f35b6107a8611292565b6040518080602001828103825283818151815260200191508051906020019080838360005b838110156107e85780820151818401526020810190506107cd565b50505050905090810190601f1680156108155780820380516001836020036101000a031916815260200191505b509250505060405180910390f35b610894600480360360c081101561083957600080fd5b81019080803561ffff169060200190929190803560ff169060200190929190803560ff169060200190929190803560ff169060200190929190803560ff169060200190929190803560ff169060200190929190505050611330565b6040518082815260200191505060405180910390f35b6108d6600480360360208110156108c057600080fd5b81019080803590602001909291905050506115bb565b604051808261ffff1661ffff16815260200191505060405180910390f35b6108fc611664565b6040518082815260200191505060405180910390f35b61093e6004803603602081101561092857600080fd5b810190808035906020019092919050505061166a565b604051808260ff1660ff16815260200191505060405180910390f35b61098a6004803603602081101561097057600080fd5b81019080803561ffff169060200190929190505050611680565b604051808215151515815260200191505060405180910390f35b6109ac6116f5565b604051808273ffffffffffffffffffffffffffffffffffffffff1673ffffffffffffffffffffffffffffffffffffffff16815260200191505060405180910390f35b610a1a60048036036020811015610a0457600080fd5b810190808035906020019092919050505061171b565b6040518082815260200191505060405180910390f35b610a6d60048036036040811015610a4657600080fd5b81019080803560ff169060200190929190803561ffff16906020019092919050505061174e565b604051808260ff1660ff16815260200191505060405180910390f35b610a9161181a565b6040518082815260200191505060405180910390f35b610ad360048036036020811015610abd57600080fd5b8101908080359060200190929190505050611820565b6040518082815260200191505060405180910390f35b610b3360048036036080811015610aff57600080fd5b81019080803590602001909291908035906020019092919080359060200190929190803590602001909291905050506119e6565b6040518082815260200191505060405180910390f35b610b7560048036036020811015610b5f57600080fd5b8101908080359060200190929190505050611d5a565b604051808260ff1660ff16815260200191505060405180910390f35b610b99611d77565b604051808273ffffffffffffffffffffffffffffffffffffffff1673ffffffffffffffffffffffffffffffffffffffff16815260200191505060405180910390f35b6008602052806000526040600020600091509050806000015490806001015490806002015490806003015490806004015490806005018054600181600116156101000203166002900480601f016020809104026020016040519081016040528092919081815260200182805460018160011615610100020316600290048015610ca55780601f10610c7a57610100808354040283529160200191610ca5565b820191906000526020600020905b815481529060010190602001808311610c8857829003601f168201915b505050505090806006018054600181600116156101000203166002900480601f016020809104026020016040519081016040528092919081815260200182805460018160011615610100020316600290048015610d435780601f10610d1857610100808354040283529160200191610d43565b820191906000526020600020905b815481529060010190602001808311610d2657829003601f168201915b5050505050908060070154905088565b60006018603c808481610d6257fe5b0481610d6a57fe5b0481610d7257fe5b069050919050565b600060076004620151808481610d8c57fe5b040181610d9557fe5b069050919050565b6000610dae86868686866000611330565b905095945050505050565b60048054600181600116156101000203166002900480601f016020809104026020016040519081016040528092919081815260200182805460018160011615610100020316600290048015610e4f5780601f10610e2457610100808354040283529160200191610e4f565b820191906000526020600020905b815481529060010190602001808311610e3257829003601f168201915b505050505081565b6000610e6282611d9d565b604001519050919050565b60015481565b6000610e8485858585600080611330565b9050949350505050565b6000808511610f05576040517f08c379a000000000000000000000000000000000000000000000000000000000815260040180806020018281038252601a8152602001807f4572726f723131383a20496e76616c69642049642076616c756500000000000081525060200191505060405180910390fd5b6000600860008781526020019081526020016000206000015411610f91576040517f08c379a000000000000000000000000000000000000000000000000000000000815260040180806020018281038252601f8152602001807f4572726f723130393a20436f75706f6e20646f6573206e6f742045786973740081525060200191505060405180910390fd5b60008511610fea576040517f08c379a000000000000000000000000000000000000000000000000000000000815260040180806020018281038252602c81526020018061303b602c913960400191505060405180910390fd5b6000845111611061576040517f08c379a000000000000000000000000000000000000000000000000000000000815260040180806020018281038252601c8152602001807f4572726f723131313a205374617475732069732072657175697265640000000081525060200191505060405180910390fd5b60008351116110bb576040517f08c379a0000000000000000000000000000000000000000000000000000000008152600401808060200182810382526024815260200180612faa6024913960400191505060405180910390fd5b6000821215611115576040517f08c379a000000000000000000000000000000000000000000000000000000000815260040180806020018281038252603a815260200180613001603a913960400191505060405180910390fd5b8360086000878152602001908152602001600020600501908051906020019061113f929190611fc8565b508260086000878152602001908152602001600020600601908051906020019061116a929190611fc8565b508160086000878152602001908152602001600020600701819055507f0dc4954d4a3061c078d360957d7405ba58a733c7b6bcfabab14e3c9ab1d491058585846040518084815260200180602001838152602001828103825284818151815260200191508051906020019080838360005b838110156111f65780820151818401526020810190506111db565b50505050905090810190601f1680156112235780820380516001836020036101000a031916815260200191505b5094505050505060405180910390a160019050949350505050565b6000603c828161124a57fe5b069050919050565b60006112648484846000806000611330565b90509392505050565b6000809054906101000a900473ffffffffffffffffffffffffffffffffffffffff1681565b60038054600181600116156101000203166002900480601f0160208091040260200160405190810160405280929190818152602001828054600181600116156101000203166002900480156113285780601f106112fd57610100808354040283529160200191611328565b820191906000526020600020905b81548152906001019060200180831161130b57829003601f168201915b505050505081565b6000806107b290505b8761ffff168161ffff16101561137c5761135281611680565b15611365576301e285008201915061136f565b6301e13380820191505b8080600101915050611339565b611384612048565b601f816000600c811061139357fe5b602002019060ff16908160ff16815250506113ad89611680565b156113d757601d816001600c81106113c157fe5b602002019060ff16908160ff16815250506113f8565b601c816001600c81106113e657fe5b602002019060ff16908160ff16815250505b601f816002600c811061140757fe5b602002019060ff16908160ff1681525050601e816003600c811061142757fe5b602002019060ff16908160ff1681525050601f816004600c811061144757fe5b602002019060ff16908160ff1681525050601e816005600c811061146757fe5b602002019060ff16908160ff1681525050601f816006600c811061148757fe5b602002019060ff16908160ff1681525050601f816007600c81106114a757fe5b602002019060ff16908160ff1681525050601e816008600c81106114c757fe5b602002019060ff16908160ff1681525050601f816009600c81106114e757fe5b602002019060ff16908160ff1681525050601e81600a600c811061150757fe5b602002019060ff16908160ff1681525050601f81600b600c811061152757fe5b602002019060ff16908160ff1681525050600191505b8760ff168261ffff16101561157d57806001830361ffff16600c811061155f57fe5b602002015160ff16620151800283019250818060010192505061153d565b6001870360ff166201518002830192508560ff16610e1002830192508460ff16603c02830192508360ff168301925082925050509695505050505050565b600080600090506000806301e1338085816115d257fe5b046107b261ffff160191506115ec6107b261ffff1661171b565b6115f98361ffff1661171b565b039050806301e285000283019250806107b2830361ffff16036301e1338002830192505b848311156116595761163160018303611680565b15611644576301e285008303925061164e565b6301e13380830392505b60018203915061161d565b819350505050919050565b60025481565b600061167582611d9d565b602001519050919050565b60008060048361ffff168161169157fe5b0661ffff16146116a457600090506116f0565b600060648361ffff16816116b457fe5b0661ffff16146116c757600190506116f0565b60006101908361ffff16816116d857fe5b0661ffff16146116eb57600090506116f0565b600190505b919050565b600760009054906101000a900473ffffffffffffffffffffffffffffffffffffffff1681565b6000600182039150610190828161172e57fe5b046064838161173957fe5b046004848161174457fe5b0403019050919050565b600060018360ff161480611765575060038360ff16145b80611773575060058360ff16145b80611781575060078360ff16145b8061178f575060088360ff16145b8061179d5750600a8360ff16145b806117ab5750600c8360ff16145b156117b957601f9050611814565b60048360ff1614806117ce575060068360ff16145b806117dc575060098360ff16145b806117ea5750600b8360ff16145b156117f857601e9050611814565b61180182611680565b1561180f57601d9050611814565b601c90505b92915050565b60055481565b60006107e4821015801561183557506107ee82105b6118a7576040517f08c379a000000000000000000000000000000000000000000000000000000000815260040180806020018281038252601f8152602001807f4572726f723131343a20496e76616c69642076616c7565206f6620796561720081525060200191505060405180910390fd5b60006040516118b59061206b565b604051809103906000f0801580156118d1573d6000803e3d6000fd5b5090506000809050600080600090505b6001548110156119da576000600860008381526020019081526020016000206001015490508473ffffffffffffffffffffffffffffffffffffffff166392d66313826040518263ffffffff1660e01b81526004018082815260200191505060206040518083038186803b15801561195757600080fd5b505afa15801561196b573d6000803e3d6000fd5b505050506040513d602081101561198157600080fd5b810190808051906020019092919050505061ffff169250828714156119cc576119c9600860008481526020019081526020016000206007015485611f3a90919063ffffffff16565b93505b5080806001019150506118e1565b50819350505050919050565b6000635ea6f99c8511611a44576040517f08c379a00000000000000000000000000000000000000000000000000000000081526004018080602001828103825260388152602001806130676038913960400191505060405180910390fd5b60008413611a9d576040517f08c379a000000000000000000000000000000000000000000000000000000000815260040180806020018281038252602e815260200180612f7c602e913960400191505060405180910390fd5b60008313611af6576040517f08c379a000000000000000000000000000000000000000000000000000000000815260040180806020018281038252602c81526020018061309f602c913960400191505060405180910390fd5b60008213611b4f576040517f08c379a0000000000000000000000000000000000000000000000000000000008152600401808060200182810382526033815260200180612fce6033913960400191505060405180910390fd5b6001805401600181905550611b62612078565b600154816000018181525050858160200181815250508481604001818152505083816060018181525050828160800181815250506040518060400160405280600781526020017f50656e64696e67000000000000000000000000000000000000000000000000008152508160a00181905250604051806020016040528060008152508160c0018190525060008160e00181815250506000868686866040516020018085815260200184815260200183815260200182815260200194505050505060405160208183030381529060405280519060200120905081600860006001548152602001908152602001600020600082015181600001556020820151816001015560408201518160020155606082015181600301556080820151816004015560a0820151816005019080519060200190611c9e9291906120bd565b5060c0820151816006019080519060200190611cbb9291906120bd565b5060e082015181600701559050507fb6dc961742690afc4ec6805fad9fa8364aa807987b7e8d9aa7785e452b538c5460015488836040518084815260200183815260200180602001838152602001828103825260078152602001807f50656e64696e670000000000000000000000000000000000000000000000000081525060200194505050505060405180910390a160015492505050949350505050565b6000603c808381611d6757fe5b0481611d6f57fe5b069050919050565b600660009054906101000a900473ffffffffffffffffffffffffffffffffffffffff1681565b611da561213d565b6000809050600080611db6856115bb565b846000019061ffff16908161ffff1681525050611dd86107b261ffff1661171b565b611de9856000015161ffff1661171b565b039150816301e285000283019250816107b285600001510361ffff16036301e1338002830192506000600191505b600c8260ff1611611e6d57611e3082866000015161174e565b60ff1662015180029050858482011115611e5b5781856020019060ff16908160ff1681525050611e6d565b80840193508180600101925050611e17565b600191505b611e848560200151866000015161174e565b60ff168260ff1611611ec957858462015180011115611eb45781856040019060ff16908160ff1681525050611ec9565b62015180840193508180600101925050611e72565b611ed286610d53565b856060019060ff16908160ff1681525050611eec86611d5a565b856080019060ff16908160ff1681525050611f068661123e565b8560a0019060ff16908160ff1681525050611f2086610d7a565b8560c0019060ff16908160ff168152505050505050919050565b600080828401905060008312158015611f535750838112155b80611f695750600083128015611f6857508381125b5b611fbe576040517f08c379a0000000000000000000000000000000000000000000000000000000008152600401808060200182810382526021815260200180612f5b6021913960400191505060405180910390fd5b8091505092915050565b828054600181600116156101000203166002900490600052602060002090601f016020900481019282601f1061200957805160ff1916838001178555612037565b82800160010185558215612037579182015b8281111561203657825182559160200191906001019061201b565b5b5090506120449190612190565b5090565b604051806101800160405280600c90602082028038833980820191505090505090565b610da5806121b683390190565b60405180610100016040528060008152602001600081526020016000815260200160008152602001600081526020016060815260200160608152602001600081525090565b828054600181600116156101000203166002900490600052602060002090601f016020900481019282601f106120fe57805160ff191683800117855561212c565b8280016001018555821561212c579182015b8281111561212b578251825591602001919060010190612110565b5b5090506121399190612190565b5090565b6040518060e00160405280600061ffff168152602001600060ff168152602001600060ff168152602001600060ff168152602001600060ff168152602001600060ff168152602001600060ff1681525090565b6121b291905b808211156121ae576000816000905550600101612196565b5090565b9056fe608060405234801561001057600080fd5b50610d85806100206000396000f3fe608060405234801561001057600080fd5b50600436106100ea5760003560e01c80639054bdec1161008c578063a6f0e57711610066578063a6f0e5771461046f578063b1999937146104b9578063b238ad0e146104fb578063fa93f88314610554576100ea565b80639054bdec1461035657806392d66313146103dd578063a324ad2414610427576100ea565b806365c72840116100c857806365c72840146101f95780637f791833146102415780638aa001fc146102ae5780638c8d98a0146102f6576100ea565b80633e239e1a146100ef5780634ac1ad781461013757806362ba96871461017f575b600080fd5b61011b6004803603602081101561010557600080fd5b810190808035906020019092919050505061059c565b604051808260ff1660ff16815260200191505060405180910390f35b6101636004803603602081101561014d57600080fd5b81019080803590602001909291905050506105c3565b604051808260ff1660ff16815260200191505060405180910390f35b6101e3600480360360a081101561019557600080fd5b81019080803561ffff169060200190929190803560ff169060200190929190803560ff169060200190929190803560ff169060200190929190803560ff1690602001909291905050506105e6565b6040518082815260200191505060405180910390f35b6102256004803603602081101561020f57600080fd5b8101908080359060200190929190505050610602565b604051808260ff1660ff16815260200191505060405180910390f35b6102986004803603608081101561025757600080fd5b81019080803561ffff169060200190929190803560ff169060200190929190803560ff169060200190929190803560ff169060200190929190505050610618565b6040518082815260200191505060405180910390f35b6102da600480360360208110156102c457600080fd5b8101908080359060200190929190505050610633565b604051808260ff1660ff16815260200191505060405180910390f35b6103406004803603606081101561030c57600080fd5b81019080803561ffff169060200190929190803560ff169060200190929190803560ff169060200190929190505050610647565b6040518082815260200191505060405180910390f35b6103c7600480360360c081101561036c57600080fd5b81019080803561ffff169060200190929190803560ff169060200190929190803560ff169060200190929190803560ff169060200190929190803560ff169060200190929190803560ff169060200190929190505050610662565b6040518082815260200191505060405180910390f35b610409600480360360208110156103f357600080fd5b81019080803590602001909291905050506108ed565b604051808261ffff1661ffff16815260200191505060405180910390f35b6104536004803603602081101561043d57600080fd5b8101908080359060200190929190505050610996565b604051808260ff1660ff16815260200191505060405180910390f35b61049f6004803603602081101561048557600080fd5b81019080803561ffff1690602001909291905050506109ac565b604051808215151515815260200191505060405180910390f35b6104e5600480360360208110156104cf57600080fd5b8101908080359060200190929190505050610a21565b6040518082815260200191505060405180910390f35b6105386004803603604081101561051157600080fd5b81019080803560ff169060200190929190803561ffff169060200190929190505050610a54565b604051808260ff1660ff16815260200191505060405180910390f35b6105806004803603602081101561056a57600080fd5b8101908080359060200190929190505050610b20565b604051808260ff1660ff16815260200191505060405180910390f35b60006018603c8084816105ab57fe5b04816105b357fe5b04816105bb57fe5b069050919050565b6000600760046201518084816105d557fe5b0401816105de57fe5b069050919050565b60006105f786868686866000610662565b905095945050505050565b600061060d82610b3d565b604001519050919050565b600061062985858585600080610662565b9050949350505050565b6000603c828161063f57fe5b069050919050565b60006106598484846000806000610662565b90509392505050565b6000806107b290505b8761ffff168161ffff1610156106ae57610684816109ac565b15610697576301e28500820191506106a1565b6301e13380820191505b808060010191505061066b565b6106b6610cda565b601f816000600c81106106c557fe5b602002019060ff16908160ff16815250506106df896109ac565b1561070957601d816001600c81106106f357fe5b602002019060ff16908160ff168152505061072a565b601c816001600c811061071857fe5b602002019060ff16908160ff16815250505b601f816002600c811061073957fe5b602002019060ff16908160ff1681525050601e816003600c811061075957fe5b602002019060ff16908160ff1681525050601f816004600c811061077957fe5b602002019060ff16908160ff1681525050601e816005600c811061079957fe5b602002019060ff16908160ff1681525050601f816006600c81106107b957fe5b602002019060ff16908160ff1681525050601f816007600c81106107d957fe5b602002019060ff16908160ff1681525050601e816008600c81106107f957fe5b602002019060ff16908160ff1681525050601f816009600c811061081957fe5b602002019060ff16908160ff1681525050601e81600a600c811061083957fe5b602002019060ff16908160ff1681525050601f81600b600c811061085957fe5b602002019060ff16908160ff1681525050600191505b8760ff168261ffff1610156108af57806001830361ffff16600c811061089157fe5b602002015160ff16620151800283019250818060010192505061086f565b6001870360ff166201518002830192508560ff16610e1002830192508460ff16603c02830192508360ff168301925082925050509695505050505050565b600080600090506000806301e13380858161090457fe5b046107b261ffff1601915061091e6107b261ffff16610a21565b61092b8361ffff16610a21565b039050806301e285000283019250806107b2830361ffff16036301e1338002830192505b8483111561098b57610963600183036109ac565b15610976576301e2850083039250610980565b6301e13380830392505b60018203915061094f565b819350505050919050565b60006109a182610b3d565b602001519050919050565b60008060048361ffff16816109bd57fe5b0661ffff16146109d05760009050610a1c565b600060648361ffff16816109e057fe5b0661ffff16146109f35760019050610a1c565b60006101908361ffff1681610a0457fe5b0661ffff1614610a175760009050610a1c565b600190505b919050565b60006001820391506101908281610a3457fe5b0460648381610a3f57fe5b0460048481610a4a57fe5b0403019050919050565b600060018360ff161480610a6b575060038360ff16145b80610a79575060058360ff16145b80610a87575060078360ff16145b80610a95575060088360ff16145b80610aa35750600a8360ff16145b80610ab15750600c8360ff16145b15610abf57601f9050610b1a565b60048360ff161480610ad4575060068360ff16145b80610ae2575060098360ff16145b80610af05750600b8360ff16145b15610afe57601e9050610b1a565b610b07826109ac565b15610b1557601d9050610b1a565b601c90505b92915050565b6000603c808381610b2d57fe5b0481610b3557fe5b069050919050565b610b45610cfd565b6000809050600080610b56856108ed565b846000019061ffff16908161ffff1681525050610b786107b261ffff16610a21565b610b89856000015161ffff16610a21565b039150816301e285000283019250816107b285600001510361ffff16036301e1338002830192506000600191505b600c8260ff1611610c0d57610bd0828660000151610a54565b60ff1662015180029050858482011115610bfb5781856020019060ff16908160ff1681525050610c0d565b80840193508180600101925050610bb7565b600191505b610c2485602001518660000151610a54565b60ff168260ff1611610c6957858462015180011115610c545781856040019060ff16908160ff1681525050610c69565b62015180840193508180600101925050610c12565b610c728661059c565b856060019060ff16908160ff1681525050610c8c86610b20565b856080019060ff16908160ff1681525050610ca686610633565b8560a0019060ff16908160ff1681525050610cc0866105c3565b8560c0019060ff16908160ff168152505050505050919050565b604051806101800160405280600c90602082028038833980820191505090505090565b6040518060e00160405280600061ffff168152602001600060ff168152602001600060ff168152602001600060ff168152602001600060ff168152602001600060ff168152602001600060ff168152509056fea265627a7a7231582011a630ea67ad2c0553a938bca99c69d9cf4b6e839ab1c02e87afa791b321510464736f6c634300050c00325369676e6564536166654d6174683a206164646974696f6e206f766572666c6f774572726f723130363a204361706974616c20677261746572207468616e207a65726f2069732072657175697265644572726f723131323a205472616e73616374696f6e2049642069732072657175697265644572726f723130383a2052656d62204361706974616c20677261746572207468616e207a65726f2069732072657175697265644572726f723131333a20436f75706f6e2076616c75652073686f756c6420677265746572207468616e206f7220657175616c20746f207a65726f4572726f723131303a204e6f6e65205a65726f2076616c756520697320726571756972656420666f722049644572726f723130353a2054696d657374616d702073686f756c6420626520677261746572207468616e2032372c20417072696c20323032304572726f723130373a205265756d6e20677261746572207468616e207a65726f206973207265717569726564a265627a7a72315820f8f59ac274221b28412e5382198dbdad66f1ff6833c57291b8697fe5e4078b5b64736f6c634300050c00324572726f723130323a205072696e6963616c2076616c75652069732072657175697265644572726f723130313a2050726f66697420726174652069732072657175697265644572726f723130333a20496e766573746f7220616464726573732069732072657175697265644572726f723130343a204f626c69676f722061646472657373206973207265717569726564",
  "source": "pragma solidity ^0.5.12;\n\nimport './DateTime.sol';\nimport './SignedSafeMath.sol';\n\n//----------------------------------------------------------------------------\n// CXC Sukuk Smart Contract - signed integer\n//----------------------------------------------------------------------------\n\ncontract CXCSukuk is DateTime {\n    using SignedSafeMath for int256;\n    address public owner;\n    uint256 public NumberOfCoupons;\n    uint256 public tenor = 10;\n    string public paymentFrequency = 'Semi-Annual';\n    string public profitRate;\n    uint256 public principal;\n\n    address public SPVAddr;\n    address public investorAddr;\n\n    // Data strucure\n    struct Coupon{\n        uint256 id;\n        uint timestamp;\n        int256 capital;\n        int256 reumn;\n        int256 rembCapital;\n        string status;\n        string TxId;\n        int256 value;\n    }\n\n    mapping(uint256 => Coupon) public coupons;\n\n    // Event of scheduled coupon\n    event ScheduleCouponEvent(uint256 id,uint256 timestamp, string status, bytes32 couponHash);\n\n    // Event of updating of a scheduled coupon\n    event UpdateCouponEvent(uint256 id, string status, int256 value);\n\n    constructor (string memory _profitRate, uint256 _principal, address _SPVAddr, address _investorAddr ) public {\n        require(bytes(_profitRate).length > 0, 'Error101: Profit rate is required');\n        require(_principal != 0, 'Error102: Prinical value is required');\n        require(_investorAddr != address(0x0), 'Error103: Investor address is required');\n        require(_SPVAddr != address(0x0), 'Error104: Obligor address is required');\n        owner = msg.sender;\n        profitRate = _profitRate;\n        principal = _principal;\n        investorAddr = _investorAddr;\n        SPVAddr = _SPVAddr;\n        NumberOfCoupons = 0;\n    }\n\n    //Schedule coupon\n    function ScheduleCoupon(uint256 _timestamp, int256 _capital, int256 _reumn, int256 _rembCapital ) public returns (uint256){\n\n        require(_timestamp > 1588001180, 'Error105: Timestamp should be grater than 27, April 2020'); //1588001180=Monday,April27,202011:54:25PM\n        require(_capital > 0, 'Error106: Capital grater than zero is required');\n        require(_reumn > 0, 'Error107: Reumn grater than zero is required');\n        require(_rembCapital > 0, 'Error108: Remb Capital grater than zero is required');\n\n        NumberOfCoupons = NumberOfCoupons+1;\n        Coupon memory _coupon;\n        _coupon.id = NumberOfCoupons;\n        _coupon.timestamp = _timestamp;\n        _coupon.capital = _capital;\n        _coupon.reumn = _reumn;\n        _coupon.rembCapital = _rembCapital;\n        _coupon.status = \"Pending\";\n        _coupon.TxId = \"\";\n        _coupon.value = 0;\n\n        bytes32 couponHash = keccak256(abi.encodePacked (_timestamp, _capital, _reumn, _rembCapital));\n        coupons[NumberOfCoupons] = _coupon;\n        emit ScheduleCouponEvent(NumberOfCoupons, _timestamp, \"Pending\", couponHash);\n        return NumberOfCoupons;\n    }\n\n   //Update coupon status\n   function UpdateCoupon(uint256 _id, string memory _status, string memory _TxId, int256 _value) public returns (bool)\n   {\n      require(_id > 0, 'Error118: Invalid Id value');\n      require(coupons[_id].id > 0, 'Error109: Coupon does not Exist');\n      require(_id > 0, 'Error110: None Zero value is required for Id');\n      require(bytes(_status).length > 0, 'Error111: Status is required');\n      require(bytes(_TxId).length > 0, 'Error112: Transaction Id is required');\n      require(_value >= 0, 'Error113: Coupon value should greter than or equal to zero');\n        coupons[_id].status = _status;\n        coupons[_id].TxId = _TxId;\n        coupons[_id].value = _value;\n\n        emit UpdateCouponEvent(_id, _status, _value);\n        return true;\n   }\n\n    // Get total coupons value per year\n    function TotalCouponsPerYear(uint256 _year) public returns(int256)\n    {\n       require(_year>=2020 && _year < 2030, 'Error114: Invalid value of year');\n        // Invoce Datatime smart contract\n        DateTime date = new DateTime();\n        int256 totalCoupons = 0;\n        uint256 year;\n        \n        for(uint256 i = 0; i < NumberOfCoupons; i++)\n        {\n            uint256 temp = coupons[i].timestamp;\n            year = date.getYear(temp);\n            if(_year==year)\n            {\n                totalCoupons = totalCoupons.add(coupons[i].value);\n            }\n        }\n        return totalCoupons;\n    }\n}",
  "sourcePath": "/Users/wazenshbair/SnT/EEthique/blockchain-based-sukuk/sukuk-system-Github/truffle/contracts/CxCSukuk.sol",
  "compiler": {
    "name": "solc",
    "version": "0.5.12+commit.7709ece9.Emscripten.clang"
  },
  "schemaVersion": "3.0.18",
  "updatedAt": "2020-06-04T10:43:37.788Z",
  "networkType": "ethereum",
  "devdoc": {
    "methods": {}
  },
  "userdoc": {
    "methods": {}
  }
}