{
  "contractName": "CXCSukuk",
  "abi": [
    {
      "inputs": [
        {
          "internalType": "string",
          "name": "_profitRate",
          "type": "string"
        },
        {
          "internalType": "uint256",
          "name": "_principal",
          "type": "uint256"
        },
        {
          "internalType": "address",
          "name": "_SPVAddr",
          "type": "address"
        },
        {
          "internalType": "address",
          "name": "_investorAddr",
          "type": "address"
        }
      ],
      "payable": false,
      "stateMutability": "nonpayable",
      "type": "constructor"
    },
    {
      "anonymous": false,
      "inputs": [
        {
          "indexed": false,
          "internalType": "uint256",
          "name": "id",
          "type": "uint256"
        },
        {
          "indexed": false,
          "internalType": "uint256",
          "name": "timestamp",
          "type": "uint256"
        },
        {
          "indexed": false,
          "internalType": "string",
          "name": "status",
          "type": "string"
        },
        {
          "indexed": false,
          "internalType": "bytes32",
          "name": "couponHash",
          "type": "bytes32"
        }
      ],
      "name": "ScheduleCouponEvent",
      "type": "event"
    },
    {
      "anonymous": false,
      "inputs": [
        {
          "indexed": false,
          "internalType": "uint256",
          "name": "id",
          "type": "uint256"
        },
        {
          "indexed": false,
          "internalType": "string",
          "name": "status",
          "type": "string"
        },
        {
          "indexed": false,
          "internalType": "int256",
          "name": "value",
          "type": "int256"
        }
      ],
      "name": "UpdateCouponEvent",
      "type": "event"
    },
    {
      "constant": true,
      "inputs": [],
      "name": "NumberOfCoupons",
      "outputs": [
        {
          "internalType": "uint256",
          "name": "",
          "type": "uint256"
        }
      ],
      "payable": false,
      "stateMutability": "view",
      "type": "function"
    },
    {
      "constant": true,
      "inputs": [],
      "name": "SPVAddr",
      "outputs": [
        {
          "internalType": "address",
          "name": "",
          "type": "address"
        }
      ],
      "payable": false,
      "stateMutability": "view",
      "type": "function"
    },
    {
      "constant": true,
      "inputs": [
        {
          "internalType": "uint256",
          "name": "",
          "type": "uint256"
        }
      ],
      "name": "coupons",
      "outputs": [
        {
          "internalType": "uint256",
          "name": "id",
          "type": "uint256"
        },
        {
          "internalType": "uint256",
          "name": "timestamp",
          "type": "uint256"
        },
        {
          "internalType": "int256",
          "name": "capital",
          "type": "int256"
        },
        {
          "internalType": "int256",
          "name": "reumn",
          "type": "int256"
        },
        {
          "internalType": "int256",
          "name": "rembCapital",
          "type": "int256"
        },
        {
          "internalType": "string",
          "name": "status",
          "type": "string"
        },
        {
          "internalType": "string",
          "name": "TxId",
          "type": "string"
        },
        {
          "internalType": "int256",
          "name": "value",
          "type": "int256"
        }
      ],
      "payable": false,
      "stateMutability": "view",
      "type": "function"
    },
    {
      "constant": true,
      "inputs": [
        {
          "internalType": "uint256",
          "name": "timestamp",
          "type": "uint256"
        }
      ],
      "name": "getDay",
      "outputs": [
        {
          "internalType": "uint8",
          "name": "",
          "type": "uint8"
        }
      ],
      "payable": false,
      "stateMutability": "pure",
      "type": "function"
    },
    {
      "constant": true,
      "inputs": [
        {
          "internalType": "uint8",
          "name": "month",
          "type": "uint8"
        },
        {
          "internalType": "uint16",
          "name": "year",
          "type": "uint16"
        }
      ],
      "name": "getDaysInMonth",
      "outputs": [
        {
          "internalType": "uint8",
          "name": "",
          "type": "uint8"
        }
      ],
      "payable": false,
      "stateMutability": "pure",
      "type": "function"
    },
    {
      "constant": true,
      "inputs": [
        {
          "internalType": "uint256",
          "name": "timestamp",
          "type": "uint256"
        }
      ],
      "name": "getHour",
      "outputs": [
        {
          "internalType": "uint8",
          "name": "",
          "type": "uint8"
        }
      ],
      "payable": false,
      "stateMutability": "pure",
      "type": "function"
    },
    {
      "constant": true,
      "inputs": [
        {
          "internalType": "uint256",
          "name": "timestamp",
          "type": "uint256"
        }
      ],
      "name": "getMinute",
      "outputs": [
        {
          "internalType": "uint8",
          "name": "",
          "type": "uint8"
        }
      ],
      "payable": false,
      "stateMutability": "pure",
      "type": "function"
    },
    {
      "constant": true,
      "inputs": [
        {
          "internalType": "uint256",
          "name": "timestamp",
          "type": "uint256"
        }
      ],
      "name": "getMonth",
      "outputs": [
        {
          "internalType": "uint8",
          "name": "",
          "type": "uint8"
        }
      ],
      "payable": false,
      "stateMutability": "pure",
      "type": "function"
    },
    {
      "constant": true,
      "inputs": [
        {
          "internalType": "uint256",
          "name": "timestamp",
          "type": "uint256"
        }
      ],
      "name": "getSecond",
      "outputs": [
        {
          "internalType": "uint8",
          "name": "",
          "type": "uint8"
        }
      ],
      "payable": false,
      "stateMutability": "pure",
      "type": "function"
    },
    {
      "constant": true,
      "inputs": [
        {
          "internalType": "uint256",
          "name": "timestamp",
          "type": "uint256"
        }
      ],
      "name": "getWeekday",
      "outputs": [
        {
          "internalType": "uint8",
          "name": "",
          "type": "uint8"
        }
      ],
      "payable": false,
      "stateMutability": "pure",
      "type": "function"
    },
    {
      "constant": true,
      "inputs": [
        {
          "internalType": "uint256",
          "name": "timestamp",
          "type": "uint256"
        }
      ],
      "name": "getYear",
      "outputs": [
        {
          "internalType": "uint16",
          "name": "",
          "type": "uint16"
        }
      ],
      "payable": false,
      "stateMutability": "pure",
      "type": "function"
    },
    {
      "constant": true,
      "inputs": [],
      "name": "investorAddr",
      "outputs": [
        {
          "internalType": "address",
          "name": "",
          "type": "address"
        }
      ],
      "payable": false,
      "stateMutability": "view",
      "type": "function"
    },
    {
      "constant": true,
      "inputs": [
        {
          "internalType": "uint16",
          "name": "year",
          "type": "uint16"
        }
      ],
      "name": "isLeapYear",
      "outputs": [
        {
          "internalType": "bool",
          "name": "",
          "type": "bool"
        }
      ],
      "payable": false,
      "stateMutability": "pure",
      "type": "function"
    },
    {
      "constant": true,
      "inputs": [
        {
          "internalType": "uint256",
          "name": "year",
          "type": "uint256"
        }
      ],
      "name": "leapYearsBefore",
      "outputs": [
        {
          "internalType": "uint256",
          "name": "",
          "type": "uint256"
        }
      ],
      "payable": false,
      "stateMutability": "pure",
      "type": "function"
    },
    {
      "constant": true,
      "inputs": [],
      "name": "owner",
      "outputs": [
        {
          "internalType": "address",
          "name": "",
          "type": "address"
        }
      ],
      "payable": false,
      "stateMutability": "view",
      "type": "function"
    },
    {
      "constant": true,
      "inputs": [],
      "name": "paymentFrequency",
      "outputs": [
        {
          "internalType": "string",
          "name": "",
          "type": "string"
        }
      ],
      "payable": false,
      "stateMutability": "view",
      "type": "function"
    },
    {
      "constant": true,
      "inputs": [],
      "name": "principal",
      "outputs": [
        {
          "internalType": "uint256",
          "name": "",
          "type": "uint256"
        }
      ],
      "payable": false,
      "stateMutability": "view",
      "type": "function"
    },
    {
      "constant": true,
      "inputs": [],
      "name": "profitRate",
      "outputs": [
        {
          "internalType": "string",
          "name": "",
          "type": "string"
        }
      ],
      "payable": false,
      "stateMutability": "view",
      "type": "function"
    },
    {
      "constant": true,
      "inputs": [],
      "name": "tenor",
      "outputs": [
        {
          "internalType": "uint256",
          "name": "",
          "type": "uint256"
        }
      ],
      "payable": false,
      "stateMutability": "view",
      "type": "function"
    },
    {
      "constant": true,
      "inputs": [
        {
          "internalType": "uint16",
          "name": "year",
          "type": "uint16"
        },
        {
          "internalType": "uint8",
          "name": "month",
          "type": "uint8"
        },
        {
          "internalType": "uint8",
          "name": "day",
          "type": "uint8"
        },
        {
          "internalType": "uint8",
          "name": "hour",
          "type": "uint8"
        },
        {
          "internalType": "uint8",
          "name": "minute",
          "type": "uint8"
        }
      ],
      "name": "toTimestamp",
      "outputs": [
        {
          "internalType": "uint256",
          "name": "timestamp",
          "type": "uint256"
        }
      ],
      "payable": false,
      "stateMutability": "pure",
      "type": "function"
    },
    {
      "constant": true,
      "inputs": [
        {
          "internalType": "uint16",
          "name": "year",
          "type": "uint16"
        },
        {
          "internalType": "uint8",
          "name": "month",
          "type": "uint8"
        },
        {
          "internalType": "uint8",
          "name": "day",
          "type": "uint8"
        },
        {
          "internalType": "uint8",
          "name": "hour",
          "type": "uint8"
        }
      ],
      "name": "toTimestamp",
      "outputs": [
        {
          "internalType": "uint256",
          "name": "timestamp",
          "type": "uint256"
        }
      ],
      "payable": false,
      "stateMutability": "pure",
      "type": "function"
    },
    {
      "constant": true,
      "inputs": [
        {
          "internalType": "uint16",
          "name": "year",
          "type": "uint16"
        },
        {
          "internalType": "uint8",
          "name": "month",
          "type": "uint8"
        },
        {
          "internalType": "uint8",
          "name": "day",
          "type": "uint8"
        }
      ],
      "name": "toTimestamp",
      "outputs": [
        {
          "internalType": "uint256",
          "name": "timestamp",
          "type": "uint256"
        }
      ],
      "payable": false,
      "stateMutability": "pure",
      "type": "function"
    },
    {
      "constant": true,
      "inputs": [
        {
          "internalType": "uint16",
          "name": "year",
          "type": "uint16"
        },
        {
          "internalType": "uint8",
          "name": "month",
          "type": "uint8"
        },
        {
          "internalType": "uint8",
          "name": "day",
          "type": "uint8"
        },
        {
          "internalType": "uint8",
          "name": "hour",
          "type": "uint8"
        },
        {
          "internalType": "uint8",
          "name": "minute",
          "type": "uint8"
        },
        {
          "internalType": "uint8",
          "name": "second",
          "type": "uint8"
        }
      ],
      "name": "toTimestamp",
      "outputs": [
        {
          "internalType": "uint256",
          "name": "timestamp",
          "type": "uint256"
        }
      ],
      "payable": false,
      "stateMutability": "pure",
      "type": "function"
    },
    {
      "constant": false,
      "inputs": [
        {
          "internalType": "uint256",
          "name": "_timestamp",
          "type": "uint256"
        },
        {
          "internalType": "int256",
          "name": "_capital",
          "type": "int256"
        },
        {
          "internalType": "int256",
          "name": "_reumn",
          "type": "int256"
        },
        {
          "internalType": "int256",
          "name": "_rembCapital",
          "type": "int256"
        }
      ],
      "name": "ScheduleCoupon",
      "outputs": [
        {
          "internalType": "uint256",
          "name": "",
          "type": "uint256"
        }
      ],
      "payable": false,
      "stateMutability": "nonpayable",
      "type": "function"
    },
    {
      "constant": false,
      "inputs": [
        {
          "internalType": "uint256",
          "name": "_id",
          "type": "uint256"
        },
        {
          "internalType": "string",
          "name": "_status",
          "type": "string"
        },
        {
          "internalType": "string",
          "name": "_TxId",
          "type": "string"
        },
        {
          "internalType": "int256",
          "name": "_value",
          "type": "int256"
        }
      ],
      "name": "UpdateCoupon",
      "outputs": [
        {
          "internalType": "bool",
          "name": "",
          "type": "bool"
        }
      ],
      "payable": false,
      "stateMutability": "nonpayable",
      "type": "function"
    },
    {
      "constant": false,
      "inputs": [
        {
          "internalType": "uint256",
          "name": "_year",
          "type": "uint256"
        }
      ],
      "name": "TotalCouponsPerYear",
      "outputs": [
        {
          "internalType": "int256",
          "name": "",
          "type": "int256"
        }
      ],
      "payable": false,
      "stateMutability": "nonpayable",
      "type": "function"
    },
    {
      "constant": true,
      "inputs": [
        {
          "internalType": "uint256",
          "name": "id",
          "type": "uint256"
        }
      ],
      "name": "GetCouponValue",
      "outputs": [
        {
          "internalType": "int256",
          "name": "",
          "type": "int256"
        }
      ],
      "payable": false,
      "stateMutability": "view",
      "type": "function"
    },
    {
      "constant": true,
      "inputs": [],
      "name": "GetNextCouponId",
      "outputs": [
        {
          "internalType": "uint256",
          "name": "",
          "type": "uint256"
        }
      ],
      "payable": false,
      "stateMutability": "view",
      "type": "function"
    }
  ],
  "bytecode": "0x6080604052600a6002556040518060400160405280600b81526020017f53656d692d416e6e75616c000000000000000000000000000000000000000000815250600390805190602001906200005692919062000428565b503480156200006457600080fd5b506040516200382138038062003821833981810160405260808110156200008a57600080fd5b8101908080516040519392919084640100000000821115620000ab57600080fd5b83820191506020820185811115620000c257600080fd5b8251866001820283011164010000000082111715620000e057600080fd5b8083526020830192505050908051906020019080838360005b8381101562000116578082015181840152602081019050620000f9565b50505050905090810190601f168015620001445780820380516001836020036101000a031916815260200191505b506040526020018051906020019092919080519060200190929190805190602001909291905050506000845111620001c8576040517f08c379a0000000000000000000000000000000000000000000000000000000008152600401808060200182810382526021815260200180620037b56021913960400191505060405180910390fd5b600083141562000224576040517f08c379a0000000000000000000000000000000000000000000000000000000008152600401808060200182810382526024815260200180620037916024913960400191505060405180910390fd5b600073ffffffffffffffffffffffffffffffffffffffff168173ffffffffffffffffffffffffffffffffffffffff161415620002ac576040517f08c379a0000000000000000000000000000000000000000000000000000000008152600401808060200182810382526026815260200180620037d66026913960400191505060405180910390fd5b600073ffffffffffffffffffffffffffffffffffffffff168273ffffffffffffffffffffffffffffffffffffffff16141562000334576040517f08c379a0000000000000000000000000000000000000000000000000000000008152600401808060200182810382526025815260200180620037fc6025913960400191505060405180910390fd5b336000806101000a81548173ffffffffffffffffffffffffffffffffffffffff021916908373ffffffffffffffffffffffffffffffffffffffff16021790555083600490805190602001906200038c92919062000428565b508260058190555080600760006101000a81548173ffffffffffffffffffffffffffffffffffffffff021916908373ffffffffffffffffffffffffffffffffffffffff16021790555081600660006101000a81548173ffffffffffffffffffffffffffffffffffffffff021916908373ffffffffffffffffffffffffffffffffffffffff160217905550600060018190555050505050620004d7565b828054600181600116156101000203166002900490600052602060002090601f016020900481019282601f106200046b57805160ff19168380011785556200049c565b828001600101855582156200049c579182015b828111156200049b5782518255916020019190600101906200047e565b5b509050620004ab9190620004af565b5090565b620004d491905b80821115620004d0576000816000905550600101620004b6565b5090565b90565b6132aa80620004e76000396000f3fe608060405234801561001057600080fd5b50600436106101c45760003560e01c80639054bdec116100f9578063b238ad0e11610097578063e40e36aa11610071578063e40e36aa14610b3d578063f879ed6614610b7f578063fa93f88314610bdf578063fb5ba44914610c27576101c4565b8063b238ad0e14610a84578063ba5d307814610add578063e35e8f2814610afb576101c4565b8063a324ad24116100d3578063a324ad2414610966578063a6f0e577146109ae578063acc4cc50146109f8578063b199993714610a42576101c4565b80639054bdec1461087757806392d66313146108fe578063a15612d114610948576101c4565b8063762a1dd6116101665780638aa001fc116101405780638aa001fc146107025780638c8d98a01461074a5780638da5cb5b146107aa5780638e589315146107f4576101c4565b8063762a1dd6146104f95780637f7918331461051757806389af7a6b14610584576101c4565b806362ba9687116101a257806362ba9687146103965780636388749c1461041057806365c72840146104935780636e79b84a146104db576101c4565b806330828e92146101c95780633e239e1a146103065780634ac1ad781461034e575b600080fd5b6101f5600480360360208110156101df57600080fd5b8101908080359060200190929190505050610c71565b604051808981526020018881526020018781526020018681526020018581526020018060200180602001848152602001838103835286818151815260200191508051906020019080838360005b8381101561025d578082015181840152602081019050610242565b50505050905090810190601f16801561028a5780820380516001836020036101000a031916815260200191505b50838103825285818151815260200191508051906020019080838360005b838110156102c35780820151818401526020810190506102a8565b50505050905090810190601f1680156102f05780820380516001836020036101000a031916815260200191505b509a505050505050505050505060405180910390f35b6103326004803603602081101561031c57600080fd5b8101908080359060200190929190505050610de9565b604051808260ff1660ff16815260200191505060405180910390f35b61037a6004803603602081101561036457600080fd5b8101908080359060200190929190505050610e10565b604051808260ff1660ff16815260200191505060405180910390f35b6103fa600480360360a08110156103ac57600080fd5b81019080803561ffff169060200190929190803560ff169060200190929190803560ff169060200190929190803560ff169060200190929190803560ff169060200190929190505050610e33565b6040518082815260200191505060405180910390f35b610418610e4f565b6040518080602001828103825283818151815260200191508051906020019080838360005b8381101561045857808201518184015260208101905061043d565b50505050905090810190601f1680156104855780820380516001836020036101000a031916815260200191505b509250505060405180910390f35b6104bf600480360360208110156104a957600080fd5b8101908080359060200190929190505050610eed565b604051808260ff1660ff16815260200191505060405180910390f35b6104e3610f03565b6040518082815260200191505060405180910390f35b610501610f09565b6040518082815260200191505060405180910390f35b61056e6004803603608081101561052d57600080fd5b81019080803561ffff169060200190929190803560ff169060200190929190803560ff169060200190929190803560ff169060200190929190505050610ffe565b6040518082815260200191505060405180910390f35b6106e86004803603608081101561059a57600080fd5b8101908080359060200190929190803590602001906401000000008111156105c157600080fd5b8201836020820111156105d357600080fd5b803590602001918460018302840111640100000000831117156105f557600080fd5b91908080601f016020809104026020016040519081016040528093929190818152602001838380828437600081840152601f19601f8201169050808301925050505050505091929192908035906020019064010000000081111561065857600080fd5b82018360208201111561066a57600080fd5b8035906020019184600183028401116401000000008311171561068c57600080fd5b91908080601f016020809104026020016040519081016040528093929190818152602001838380828437600081840152601f19601f82011690508083019250505050505050919291929080359060200190929190505050611019565b604051808215151515815260200191505060405180910390f35b61072e6004803603602081101561071857600080fd5b81019080803590602001909291905050506113c9565b604051808260ff1660ff16815260200191505060405180910390f35b6107946004803603606081101561076057600080fd5b81019080803561ffff169060200190929190803560ff169060200190929190803560ff1690602001909291905050506113dd565b6040518082815260200191505060405180910390f35b6107b26113f8565b604051808273ffffffffffffffffffffffffffffffffffffffff1673ffffffffffffffffffffffffffffffffffffffff16815260200191505060405180910390f35b6107fc61141d565b6040518080602001828103825283818151815260200191508051906020019080838360005b8381101561083c578082015181840152602081019050610821565b50505050905090810190601f1680156108695780820380516001836020036101000a031916815260200191505b509250505060405180910390f35b6108e8600480360360c081101561088d57600080fd5b81019080803561ffff169060200190929190803560ff169060200190929190803560ff169060200190929190803560ff169060200190929190803560ff169060200190929190803560ff1690602001909291905050506114bb565b6040518082815260200191505060405180910390f35b61092a6004803603602081101561091457600080fd5b8101908080359060200190929190505050611746565b604051808261ffff1661ffff16815260200191505060405180910390f35b6109506117ef565b6040518082815260200191505060405180910390f35b6109926004803603602081101561097c57600080fd5b81019080803590602001909291905050506117f5565b604051808260ff1660ff16815260200191505060405180910390f35b6109de600480360360208110156109c457600080fd5b81019080803561ffff16906020019092919050505061180b565b604051808215151515815260200191505060405180910390f35b610a00611880565b604051808273ffffffffffffffffffffffffffffffffffffffff1673ffffffffffffffffffffffffffffffffffffffff16815260200191505060405180910390f35b610a6e60048036036020811015610a5857600080fd5b81019080803590602001909291905050506118a6565b6040518082815260200191505060405180910390f35b610ac160048036036040811015610a9a57600080fd5b81019080803560ff169060200190929190803561ffff1690602001909291905050506118d9565b604051808260ff1660ff16815260200191505060405180910390f35b610ae56119a5565b6040518082815260200191505060405180910390f35b610b2760048036036020811015610b1157600080fd5b81019080803590602001909291905050506119ab565b6040518082815260200191505060405180910390f35b610b6960048036036020811015610b5357600080fd5b8101908080359060200190929190505050611b71565b6040518082815260200191505060405180910390f35b610bc960048036036080811015610b9557600080fd5b8101908080359060200190929190803590602001909291908035906020019092919080359060200190929190505050611b91565b6040518082815260200191505060405180910390f35b610c0b60048036036020811015610bf557600080fd5b8101908080359060200190929190505050611f05565b604051808260ff1660ff16815260200191505060405180910390f35b610c2f611f22565b604051808273ffffffffffffffffffffffffffffffffffffffff1673ffffffffffffffffffffffffffffffffffffffff16815260200191505060405180910390f35b6008602052806000526040600020600091509050806000015490806001015490806002015490806003015490806004015490806005018054600181600116156101000203166002900480601f016020809104026020016040519081016040528092919081815260200182805460018160011615610100020316600290048015610d3b5780601f10610d1057610100808354040283529160200191610d3b565b820191906000526020600020905b815481529060010190602001808311610d1e57829003601f168201915b505050505090806006018054600181600116156101000203166002900480601f016020809104026020016040519081016040528092919081815260200182805460018160011615610100020316600290048015610dd95780601f10610dae57610100808354040283529160200191610dd9565b820191906000526020600020905b815481529060010190602001808311610dbc57829003601f168201915b5050505050908060070154905088565b60006018603c808481610df857fe5b0481610e0057fe5b0481610e0857fe5b069050919050565b600060076004620151808481610e2257fe5b040181610e2b57fe5b069050919050565b6000610e44868686868660006114bb565b905095945050505050565b60048054600181600116156101000203166002900480601f016020809104026020016040519081016040528092919081815260200182805460018160011615610100020316600290048015610ee55780601f10610eba57610100808354040283529160200191610ee5565b820191906000526020600020905b815481529060010190602001808311610ec857829003601f168201915b505050505081565b6000610ef882611f48565b604001519050919050565b60015481565b600080600090506000600190505b6001548111610ff6576040518060400160405280600781526020017f50656e64696e670000000000000000000000000000000000000000000000000081525080519060200120600860008381526020019081526020016000206005016040518082805460018160011615610100020316600290048015610fce5780601f10610fac576101008083540402835291820191610fce565b820191906000526020600020905b815481529060010190602001808311610fba575b505091505060405180910390201415610fe957809150610ff6565b8080600101915050610f17565b508091505090565b600061100f858585856000806114bb565b9050949350505050565b6000808511611090576040517f08c379a000000000000000000000000000000000000000000000000000000000815260040180806020018281038252601a8152602001807f4572726f723131383a20496e76616c69642049642076616c756500000000000081525060200191505060405180910390fd5b600060086000878152602001908152602001600020600001541161111c576040517f08c379a000000000000000000000000000000000000000000000000000000000815260040180806020018281038252601f8152602001807f4572726f723130393a20436f75706f6e20646f6573206e6f742045786973740081525060200191505060405180910390fd5b60008511611175576040517f08c379a000000000000000000000000000000000000000000000000000000000815260040180806020018281038252602c8152602001806131e6602c913960400191505060405180910390fd5b60008451116111ec576040517f08c379a000000000000000000000000000000000000000000000000000000000815260040180806020018281038252601c8152602001807f4572726f723131313a205374617475732069732072657175697265640000000081525060200191505060405180910390fd5b6000835111611246576040517f08c379a00000000000000000000000000000000000000000000000000000000081526004018080602001828103825260248152602001806131556024913960400191505060405180910390fd5b60008212156112a0576040517f08c379a000000000000000000000000000000000000000000000000000000000815260040180806020018281038252603a8152602001806131ac603a913960400191505060405180910390fd5b836008600087815260200190815260200160002060050190805190602001906112ca929190612173565b50826008600087815260200190815260200160002060060190805190602001906112f5929190612173565b508160086000878152602001908152602001600020600701819055507f0dc4954d4a3061c078d360957d7405ba58a733c7b6bcfabab14e3c9ab1d491058585846040518084815260200180602001838152602001828103825284818151815260200191508051906020019080838360005b83811015611381578082015181840152602081019050611366565b50505050905090810190601f1680156113ae5780820380516001836020036101000a031916815260200191505b5094505050505060405180910390a160019050949350505050565b6000603c82816113d557fe5b069050919050565b60006113ef84848460008060006114bb565b90509392505050565b6000809054906101000a900473ffffffffffffffffffffffffffffffffffffffff1681565b60038054600181600116156101000203166002900480601f0160208091040260200160405190810160405280929190818152602001828054600181600116156101000203166002900480156114b35780601f10611488576101008083540402835291602001916114b3565b820191906000526020600020905b81548152906001019060200180831161149657829003601f168201915b505050505081565b6000806107b290505b8761ffff168161ffff161015611507576114dd8161180b565b156114f0576301e28500820191506114fa565b6301e13380820191505b80806001019150506114c4565b61150f6121f3565b601f816000600c811061151e57fe5b602002019060ff16908160ff16815250506115388961180b565b1561156257601d816001600c811061154c57fe5b602002019060ff16908160ff1681525050611583565b601c816001600c811061157157fe5b602002019060ff16908160ff16815250505b601f816002600c811061159257fe5b602002019060ff16908160ff1681525050601e816003600c81106115b257fe5b602002019060ff16908160ff1681525050601f816004600c81106115d257fe5b602002019060ff16908160ff1681525050601e816005600c81106115f257fe5b602002019060ff16908160ff1681525050601f816006600c811061161257fe5b602002019060ff16908160ff1681525050601f816007600c811061163257fe5b602002019060ff16908160ff1681525050601e816008600c811061165257fe5b602002019060ff16908160ff1681525050601f816009600c811061167257fe5b602002019060ff16908160ff1681525050601e81600a600c811061169257fe5b602002019060ff16908160ff1681525050601f81600b600c81106116b257fe5b602002019060ff16908160ff1681525050600191505b8760ff168261ffff16101561170857806001830361ffff16600c81106116ea57fe5b602002015160ff1662015180028301925081806001019250506116c8565b6001870360ff166201518002830192508560ff16610e1002830192508460ff16603c02830192508360ff168301925082925050509695505050505050565b600080600090506000806301e13380858161175d57fe5b046107b261ffff160191506117776107b261ffff166118a6565b6117848361ffff166118a6565b039050806301e285000283019250806107b2830361ffff16036301e1338002830192505b848311156117e4576117bc6001830361180b565b156117cf576301e28500830392506117d9565b6301e13380830392505b6001820391506117a8565b819350505050919050565b60025481565b600061180082611f48565b602001519050919050565b60008060048361ffff168161181c57fe5b0661ffff161461182f576000905061187b565b600060648361ffff168161183f57fe5b0661ffff1614611852576001905061187b565b60006101908361ffff168161186357fe5b0661ffff1614611876576000905061187b565b600190505b919050565b600760009054906101000a900473ffffffffffffffffffffffffffffffffffffffff1681565b600060018203915061019082816118b957fe5b04606483816118c457fe5b04600484816118cf57fe5b0403019050919050565b600060018360ff1614806118f0575060038360ff16145b806118fe575060058360ff16145b8061190c575060078360ff16145b8061191a575060088360ff16145b806119285750600a8360ff16145b806119365750600c8360ff16145b1561194457601f905061199f565b60048360ff161480611959575060068360ff16145b80611967575060098360ff16145b806119755750600b8360ff16145b1561198357601e905061199f565b61198c8261180b565b1561199a57601d905061199f565b601c90505b92915050565b60055481565b60006107e482101580156119c057506107ee82105b611a32576040517f08c379a000000000000000000000000000000000000000000000000000000000815260040180806020018281038252601f8152602001807f4572726f723131343a20496e76616c69642076616c7565206f6620796561720081525060200191505060405180910390fd5b6000604051611a4090612216565b604051809103906000f080158015611a5c573d6000803e3d6000fd5b5090506000809050600080600090505b600154811015611b65576000600860008381526020019081526020016000206001015490508473ffffffffffffffffffffffffffffffffffffffff166392d66313826040518263ffffffff1660e01b81526004018082815260200191505060206040518083038186803b158015611ae257600080fd5b505afa158015611af6573d6000803e3d6000fd5b505050506040513d6020811015611b0c57600080fd5b810190808051906020019092919050505061ffff16925082871415611b5757611b546008600084815260200190815260200160002060070154856120e590919063ffffffff16565b93505b508080600101915050611a6c565b50819350505050919050565b600060086000838152602001908152602001600020600701549050919050565b6000635ea6f99c8511611bef576040517f08c379a00000000000000000000000000000000000000000000000000000000081526004018080602001828103825260388152602001806132126038913960400191505060405180910390fd5b60008413611c48576040517f08c379a000000000000000000000000000000000000000000000000000000000815260040180806020018281038252602e815260200180613127602e913960400191505060405180910390fd5b60008313611ca1576040517f08c379a000000000000000000000000000000000000000000000000000000000815260040180806020018281038252602c81526020018061324a602c913960400191505060405180910390fd5b60008213611cfa576040517f08c379a00000000000000000000000000000000000000000000000000000000081526004018080602001828103825260338152602001806131796033913960400191505060405180910390fd5b6001805401600181905550611d0d612223565b600154816000018181525050858160200181815250508481604001818152505083816060018181525050828160800181815250506040518060400160405280600781526020017f50656e64696e67000000000000000000000000000000000000000000000000008152508160a00181905250604051806020016040528060008152508160c0018190525060008160e00181815250506000868686866040516020018085815260200184815260200183815260200182815260200194505050505060405160208183030381529060405280519060200120905081600860006001548152602001908152602001600020600082015181600001556020820151816001015560408201518160020155606082015181600301556080820151816004015560a0820151816005019080519060200190611e49929190612268565b5060c0820151816006019080519060200190611e66929190612268565b5060e082015181600701559050507fb6dc961742690afc4ec6805fad9fa8364aa807987b7e8d9aa7785e452b538c5460015488836040518084815260200183815260200180602001838152602001828103825260078152602001807f50656e64696e670000000000000000000000000000000000000000000000000081525060200194505050505060405180910390a160015492505050949350505050565b6000603c808381611f1257fe5b0481611f1a57fe5b069050919050565b600660009054906101000a900473ffffffffffffffffffffffffffffffffffffffff1681565b611f506122e8565b6000809050600080611f6185611746565b846000019061ffff16908161ffff1681525050611f836107b261ffff166118a6565b611f94856000015161ffff166118a6565b039150816301e285000283019250816107b285600001510361ffff16036301e1338002830192506000600191505b600c8260ff161161201857611fdb8286600001516118d9565b60ff16620151800290508584820111156120065781856020019060ff16908160ff1681525050612018565b80840193508180600101925050611fc2565b600191505b61202f856020015186600001516118d9565b60ff168260ff16116120745785846201518001111561205f5781856040019060ff16908160ff1681525050612074565b6201518084019350818060010192505061201d565b61207d86610de9565b856060019060ff16908160ff168152505061209786611f05565b856080019060ff16908160ff16815250506120b1866113c9565b8560a0019060ff16908160ff16815250506120cb86610e10565b8560c0019060ff16908160ff168152505050505050919050565b6000808284019050600083121580156120fe5750838112155b80612114575060008312801561211357508381125b5b612169576040517f08c379a00000000000000000000000000000000000000000000000000000000081526004018080602001828103825260218152602001806131066021913960400191505060405180910390fd5b8091505092915050565b828054600181600116156101000203166002900490600052602060002090601f016020900481019282601f106121b457805160ff19168380011785556121e2565b828001600101855582156121e2579182015b828111156121e15782518255916020019190600101906121c6565b5b5090506121ef919061233b565b5090565b604051806101800160405280600c90602082028038833980820191505090505090565b610da58061236183390190565b60405180610100016040528060008152602001600081526020016000815260200160008152602001600081526020016060815260200160608152602001600081525090565b828054600181600116156101000203166002900490600052602060002090601f016020900481019282601f106122a957805160ff19168380011785556122d7565b828001600101855582156122d7579182015b828111156122d65782518255916020019190600101906122bb565b5b5090506122e4919061233b565b5090565b6040518060e00160405280600061ffff168152602001600060ff168152602001600060ff168152602001600060ff168152602001600060ff168152602001600060ff168152602001600060ff1681525090565b61235d91905b80821115612359576000816000905550600101612341565b5090565b9056fe608060405234801561001057600080fd5b50610d85806100206000396000f3fe608060405234801561001057600080fd5b50600436106100ea5760003560e01c80639054bdec1161008c578063a6f0e57711610066578063a6f0e5771461046f578063b1999937146104b9578063b238ad0e146104fb578063fa93f88314610554576100ea565b80639054bdec1461035657806392d66313146103dd578063a324ad2414610427576100ea565b806365c72840116100c857806365c72840146101f95780637f791833146102415780638aa001fc146102ae5780638c8d98a0146102f6576100ea565b80633e239e1a146100ef5780634ac1ad781461013757806362ba96871461017f575b600080fd5b61011b6004803603602081101561010557600080fd5b810190808035906020019092919050505061059c565b604051808260ff1660ff16815260200191505060405180910390f35b6101636004803603602081101561014d57600080fd5b81019080803590602001909291905050506105c3565b604051808260ff1660ff16815260200191505060405180910390f35b6101e3600480360360a081101561019557600080fd5b81019080803561ffff169060200190929190803560ff169060200190929190803560ff169060200190929190803560ff169060200190929190803560ff1690602001909291905050506105e6565b6040518082815260200191505060405180910390f35b6102256004803603602081101561020f57600080fd5b8101908080359060200190929190505050610602565b604051808260ff1660ff16815260200191505060405180910390f35b6102986004803603608081101561025757600080fd5b81019080803561ffff169060200190929190803560ff169060200190929190803560ff169060200190929190803560ff169060200190929190505050610618565b6040518082815260200191505060405180910390f35b6102da600480360360208110156102c457600080fd5b8101908080359060200190929190505050610633565b604051808260ff1660ff16815260200191505060405180910390f35b6103406004803603606081101561030c57600080fd5b81019080803561ffff169060200190929190803560ff169060200190929190803560ff169060200190929190505050610647565b6040518082815260200191505060405180910390f35b6103c7600480360360c081101561036c57600080fd5b81019080803561ffff169060200190929190803560ff169060200190929190803560ff169060200190929190803560ff169060200190929190803560ff169060200190929190803560ff169060200190929190505050610662565b6040518082815260200191505060405180910390f35b610409600480360360208110156103f357600080fd5b81019080803590602001909291905050506108ed565b604051808261ffff1661ffff16815260200191505060405180910390f35b6104536004803603602081101561043d57600080fd5b8101908080359060200190929190505050610996565b604051808260ff1660ff16815260200191505060405180910390f35b61049f6004803603602081101561048557600080fd5b81019080803561ffff1690602001909291905050506109ac565b604051808215151515815260200191505060405180910390f35b6104e5600480360360208110156104cf57600080fd5b8101908080359060200190929190505050610a21565b6040518082815260200191505060405180910390f35b6105386004803603604081101561051157600080fd5b81019080803560ff169060200190929190803561ffff169060200190929190505050610a54565b604051808260ff1660ff16815260200191505060405180910390f35b6105806004803603602081101561056a57600080fd5b8101908080359060200190929190505050610b20565b604051808260ff1660ff16815260200191505060405180910390f35b60006018603c8084816105ab57fe5b04816105b357fe5b04816105bb57fe5b069050919050565b6000600760046201518084816105d557fe5b0401816105de57fe5b069050919050565b60006105f786868686866000610662565b905095945050505050565b600061060d82610b3d565b604001519050919050565b600061062985858585600080610662565b9050949350505050565b6000603c828161063f57fe5b069050919050565b60006106598484846000806000610662565b90509392505050565b6000806107b290505b8761ffff168161ffff1610156106ae57610684816109ac565b15610697576301e28500820191506106a1565b6301e13380820191505b808060010191505061066b565b6106b6610cda565b601f816000600c81106106c557fe5b602002019060ff16908160ff16815250506106df896109ac565b1561070957601d816001600c81106106f357fe5b602002019060ff16908160ff168152505061072a565b601c816001600c811061071857fe5b602002019060ff16908160ff16815250505b601f816002600c811061073957fe5b602002019060ff16908160ff1681525050601e816003600c811061075957fe5b602002019060ff16908160ff1681525050601f816004600c811061077957fe5b602002019060ff16908160ff1681525050601e816005600c811061079957fe5b602002019060ff16908160ff1681525050601f816006600c81106107b957fe5b602002019060ff16908160ff1681525050601f816007600c81106107d957fe5b602002019060ff16908160ff1681525050601e816008600c81106107f957fe5b602002019060ff16908160ff1681525050601f816009600c811061081957fe5b602002019060ff16908160ff1681525050601e81600a600c811061083957fe5b602002019060ff16908160ff1681525050601f81600b600c811061085957fe5b602002019060ff16908160ff1681525050600191505b8760ff168261ffff1610156108af57806001830361ffff16600c811061089157fe5b602002015160ff16620151800283019250818060010192505061086f565b6001870360ff166201518002830192508560ff16610e1002830192508460ff16603c02830192508360ff168301925082925050509695505050505050565b600080600090506000806301e13380858161090457fe5b046107b261ffff1601915061091e6107b261ffff16610a21565b61092b8361ffff16610a21565b039050806301e285000283019250806107b2830361ffff16036301e1338002830192505b8483111561098b57610963600183036109ac565b15610976576301e2850083039250610980565b6301e13380830392505b60018203915061094f565b819350505050919050565b60006109a182610b3d565b602001519050919050565b60008060048361ffff16816109bd57fe5b0661ffff16146109d05760009050610a1c565b600060648361ffff16816109e057fe5b0661ffff16146109f35760019050610a1c565b60006101908361ffff1681610a0457fe5b0661ffff1614610a175760009050610a1c565b600190505b919050565b60006001820391506101908281610a3457fe5b0460648381610a3f57fe5b0460048481610a4a57fe5b0403019050919050565b600060018360ff161480610a6b575060038360ff16145b80610a79575060058360ff16145b80610a87575060078360ff16145b80610a95575060088360ff16145b80610aa35750600a8360ff16145b80610ab15750600c8360ff16145b15610abf57601f9050610b1a565b60048360ff161480610ad4575060068360ff16145b80610ae2575060098360ff16145b80610af05750600b8360ff16145b15610afe57601e9050610b1a565b610b07826109ac565b15610b1557601d9050610b1a565b601c90505b92915050565b6000603c808381610b2d57fe5b0481610b3557fe5b069050919050565b610b45610cfd565b6000809050600080610b56856108ed565b846000019061ffff16908161ffff1681525050610b786107b261ffff16610a21565b610b89856000015161ffff16610a21565b039150816301e285000283019250816107b285600001510361ffff16036301e1338002830192506000600191505b600c8260ff1611610c0d57610bd0828660000151610a54565b60ff1662015180029050858482011115610bfb5781856020019060ff16908160ff1681525050610c0d565b80840193508180600101925050610bb7565b600191505b610c2485602001518660000151610a54565b60ff168260ff1611610c6957858462015180011115610c545781856040019060ff16908160ff1681525050610c69565b62015180840193508180600101925050610c12565b610c728661059c565b856060019060ff16908160ff1681525050610c8c86610b20565b856080019060ff16908160ff1681525050610ca686610633565b8560a0019060ff16908160ff1681525050610cc0866105c3565b8560c0019060ff16908160ff168152505050505050919050565b604051806101800160405280600c90602082028038833980820191505090505090565b6040518060e00160405280600061ffff168152602001600060ff168152602001600060ff168152602001600060ff168152602001600060ff168152602001600060ff168152602001600060ff168152509056fea265627a7a7231582011a630ea67ad2c0553a938bca99c69d9cf4b6e839ab1c02e87afa791b321510464736f6c634300050c00325369676e6564536166654d6174683a206164646974696f6e206f766572666c6f774572726f723130363a204361706974616c20677261746572207468616e207a65726f2069732072657175697265644572726f723131323a205472616e73616374696f6e2049642069732072657175697265644572726f723130383a2052656d62204361706974616c20677261746572207468616e207a65726f2069732072657175697265644572726f723131333a20436f75706f6e2076616c75652073686f756c6420677265746572207468616e206f7220657175616c20746f207a65726f4572726f723131303a204e6f6e65205a65726f2076616c756520697320726571756972656420666f722049644572726f723130353a2054696d657374616d702073686f756c6420626520677261746572207468616e2032372c20417072696c20323032304572726f723130373a205265756d6e20677261746572207468616e207a65726f206973207265717569726564a265627a7a72315820e32fe70a845458ffa532d4e1b8b8e5464b2ca44ee4ea70f496572f603cb450fd64736f6c634300050c00324572726f723130323a205072696e6963616c2076616c75652069732072657175697265644572726f723130313a2050726f66697420726174652069732072657175697265644572726f723130333a20496e766573746f7220616464726573732069732072657175697265644572726f723130343a204f626c69676f722061646472657373206973207265717569726564",
  "source": "pragma solidity ^0.5.12;\n\nimport './DateTime.sol';\nimport './SignedSafeMath.sol';\n\n//----------------------------------------------------------------------------\n// CXC Sukuk Smart Contract - signed integer\n//----------------------------------------------------------------------------\n\ncontract CXCSukuk is DateTime {\n    using SignedSafeMath for int256;\n    address public owner;\n    uint256 public NumberOfCoupons;\n    uint256 public tenor = 10;\n    string public paymentFrequency = 'Semi-Annual';\n    string public profitRate;\n    uint256 public principal;\n\n    address public SPVAddr;\n    address public investorAddr;\n\n    // Data strucure\n    struct Coupon{\n        uint256 id;\n        uint timestamp;\n        int256 capital;\n        int256 reumn;\n        int256 rembCapital;\n        string status;\n        string TxId;\n        int256 value;\n    }\n\n    mapping(uint256 => Coupon) public coupons;\n\n    // Event of scheduled coupon\n    event ScheduleCouponEvent(uint256 id,uint256 timestamp, string status, bytes32 couponHash);\n\n    // Event of updating of a scheduled coupon\n    event UpdateCouponEvent(uint256 id, string status, int256 value);\n\n    constructor (string memory _profitRate, uint256 _principal, address _SPVAddr, address _investorAddr ) public {\n        require(bytes(_profitRate).length > 0, 'Error101: Profit rate is required');\n        require(_principal != 0, 'Error102: Prinical value is required');\n        require(_investorAddr != address(0x0), 'Error103: Investor address is required');\n        require(_SPVAddr != address(0x0), 'Error104: Obligor address is required');\n        owner = msg.sender;\n        profitRate = _profitRate;\n        principal = _principal;\n        investorAddr = _investorAddr;\n        SPVAddr = _SPVAddr;\n        NumberOfCoupons = 0;\n    }\n\n    //Schedule coupon\n    function ScheduleCoupon(uint256 _timestamp, int256 _capital, int256 _reumn, int256 _rembCapital ) public returns (uint256){\n\n        require(_timestamp > 1588001180, 'Error105: Timestamp should be grater than 27, April 2020'); //1588001180=Monday,April27,202011:54:25PM\n        require(_capital > 0, 'Error106: Capital grater than zero is required');\n        require(_reumn > 0, 'Error107: Reumn grater than zero is required');\n        require(_rembCapital > 0, 'Error108: Remb Capital grater than zero is required');\n\n        NumberOfCoupons = NumberOfCoupons+1;\n        Coupon memory _coupon;\n        _coupon.id = NumberOfCoupons;\n        _coupon.timestamp = _timestamp;\n        _coupon.capital = _capital;\n        _coupon.reumn = _reumn;\n        _coupon.rembCapital = _rembCapital;\n        _coupon.status = \"Pending\";\n        _coupon.TxId = \"\";\n        _coupon.value = 0;\n\n        bytes32 couponHash = keccak256(abi.encodePacked (_timestamp, _capital, _reumn, _rembCapital));\n        coupons[NumberOfCoupons] = _coupon;\n        emit ScheduleCouponEvent(NumberOfCoupons, _timestamp, \"Pending\", couponHash);\n        return NumberOfCoupons;\n    }\n\n   //Update coupon status\n   function UpdateCoupon(uint256 _id, string memory _status, string memory _TxId, int256 _value) public returns (bool)\n   {\n      require(_id > 0, 'Error118: Invalid Id value');\n      require(coupons[_id].id > 0, 'Error109: Coupon does not Exist');\n      require(_id > 0, 'Error110: None Zero value is required for Id');\n      require(bytes(_status).length > 0, 'Error111: Status is required');\n      require(bytes(_TxId).length > 0, 'Error112: Transaction Id is required');\n      require(_value >= 0, 'Error113: Coupon value should greter than or equal to zero');\n        coupons[_id].status = _status;\n        coupons[_id].TxId = _TxId;\n        coupons[_id].value = _value;\n\n        emit UpdateCouponEvent(_id, _status, _value);\n        return true;\n   }\n\n    // Get total coupons value per year\n    function TotalCouponsPerYear(uint256 _year) public returns(int256)\n    {\n       require(_year>=2020 && _year < 2030, 'Error114: Invalid value of year');\n        // Invoce Datatime smart contract\n        DateTime date = new DateTime();\n        int256 totalCoupons = 0;\n        uint256 year;\n        \n        for(uint256 i = 0; i < NumberOfCoupons; i++)\n        {\n            uint256 temp = coupons[i].timestamp;\n            year = date.getYear(temp);\n            if(_year==year)\n            {\n                totalCoupons = totalCoupons.add(coupons[i].value);\n            }\n        }\n        return totalCoupons;\n    }\n\n    function GetCouponValue(uint256 id) view public returns(int256)\n    {\n        return coupons[id].value;\n    }\n\n\n    function GetNextCouponId() view public returns(uint256)\n    {\n        uint256 nextCoupon = 0;\n\n        for(uint256 i = 1; i <= NumberOfCoupons; i++)\n        {\n           if (keccak256(bytes(coupons[i].status)) == keccak256(bytes(\"Pending\"))) //get the first occurance of Pending\n           {\n               nextCoupon = i;\n               break;\n           }\n        }\n        return nextCoupon;\n    }\n\n}",
  "sourcePath": "/Users/wazenshbair/SnT/EEthique/blockchain-based-sukuk/sukuk-system-Github/truffle/contracts/CxCSukuk.sol",
  "compiler": {
    "name": "solc",
    "version": "0.5.12+commit.7709ece9.Emscripten.clang"
  },
  "schemaVersion": "3.0.18",
  "updatedAt": "2020-06-30T19:28:20.804Z",
  "networkType": "ethereum",
  "devdoc": {
    "methods": {}
  },
  "userdoc": {
    "methods": {}
  }
}