{
  "contractName": "CXCSukuk",
  "abi": [
    {
      "inputs": [
        {
          "internalType": "string",
          "name": "_profitRate",
          "type": "string"
        },
        {
          "internalType": "uint256",
          "name": "_principal",
          "type": "uint256"
        },
        {
          "internalType": "address",
          "name": "_SPVAddr",
          "type": "address"
        },
        {
          "internalType": "address",
          "name": "_investorAddr",
          "type": "address"
        }
      ],
      "payable": false,
      "stateMutability": "nonpayable",
      "type": "constructor"
    },
    {
      "anonymous": false,
      "inputs": [
        {
          "indexed": false,
          "internalType": "uint256",
          "name": "id",
          "type": "uint256"
        },
        {
          "indexed": false,
          "internalType": "uint256",
          "name": "timestamp",
          "type": "uint256"
        },
        {
          "indexed": false,
          "internalType": "string",
          "name": "status",
          "type": "string"
        },
        {
          "indexed": false,
          "internalType": "bytes32",
          "name": "couponHash",
          "type": "bytes32"
        }
      ],
      "name": "ScheduleCouponEvent",
      "type": "event"
    },
    {
      "anonymous": false,
      "inputs": [
        {
          "indexed": false,
          "internalType": "uint256",
          "name": "id",
          "type": "uint256"
        },
        {
          "indexed": false,
          "internalType": "string",
          "name": "status",
          "type": "string"
        },
        {
          "indexed": false,
          "internalType": "uint256",
          "name": "value",
          "type": "uint256"
        }
      ],
      "name": "UpdateCouponEvent",
      "type": "event"
    },
    {
      "constant": true,
      "inputs": [],
      "name": "NumberOfCoupons",
      "outputs": [
        {
          "internalType": "uint256",
          "name": "",
          "type": "uint256"
        }
      ],
      "payable": false,
      "stateMutability": "view",
      "type": "function"
    },
    {
      "constant": true,
      "inputs": [],
      "name": "SPVAddr",
      "outputs": [
        {
          "internalType": "address",
          "name": "",
          "type": "address"
        }
      ],
      "payable": false,
      "stateMutability": "view",
      "type": "function"
    },
    {
      "constant": true,
      "inputs": [
        {
          "internalType": "uint256",
          "name": "",
          "type": "uint256"
        }
      ],
      "name": "coupons",
      "outputs": [
        {
          "internalType": "uint256",
          "name": "id",
          "type": "uint256"
        },
        {
          "internalType": "uint256",
          "name": "timestamp",
          "type": "uint256"
        },
        {
          "internalType": "uint256",
          "name": "capital",
          "type": "uint256"
        },
        {
          "internalType": "uint256",
          "name": "reumn",
          "type": "uint256"
        },
        {
          "internalType": "uint256",
          "name": "rembCapital",
          "type": "uint256"
        },
        {
          "internalType": "string",
          "name": "status",
          "type": "string"
        },
        {
          "internalType": "string",
          "name": "mongopayTxId",
          "type": "string"
        },
        {
          "internalType": "uint256",
          "name": "value",
          "type": "uint256"
        }
      ],
      "payable": false,
      "stateMutability": "view",
      "type": "function"
    },
    {
      "constant": true,
      "inputs": [
        {
          "internalType": "uint256",
          "name": "timestamp",
          "type": "uint256"
        }
      ],
      "name": "getDay",
      "outputs": [
        {
          "internalType": "uint8",
          "name": "",
          "type": "uint8"
        }
      ],
      "payable": false,
      "stateMutability": "pure",
      "type": "function"
    },
    {
      "constant": true,
      "inputs": [
        {
          "internalType": "uint8",
          "name": "month",
          "type": "uint8"
        },
        {
          "internalType": "uint16",
          "name": "year",
          "type": "uint16"
        }
      ],
      "name": "getDaysInMonth",
      "outputs": [
        {
          "internalType": "uint8",
          "name": "",
          "type": "uint8"
        }
      ],
      "payable": false,
      "stateMutability": "pure",
      "type": "function"
    },
    {
      "constant": true,
      "inputs": [
        {
          "internalType": "uint256",
          "name": "timestamp",
          "type": "uint256"
        }
      ],
      "name": "getHour",
      "outputs": [
        {
          "internalType": "uint8",
          "name": "",
          "type": "uint8"
        }
      ],
      "payable": false,
      "stateMutability": "pure",
      "type": "function"
    },
    {
      "constant": true,
      "inputs": [
        {
          "internalType": "uint256",
          "name": "timestamp",
          "type": "uint256"
        }
      ],
      "name": "getMinute",
      "outputs": [
        {
          "internalType": "uint8",
          "name": "",
          "type": "uint8"
        }
      ],
      "payable": false,
      "stateMutability": "pure",
      "type": "function"
    },
    {
      "constant": true,
      "inputs": [
        {
          "internalType": "uint256",
          "name": "timestamp",
          "type": "uint256"
        }
      ],
      "name": "getMonth",
      "outputs": [
        {
          "internalType": "uint8",
          "name": "",
          "type": "uint8"
        }
      ],
      "payable": false,
      "stateMutability": "pure",
      "type": "function"
    },
    {
      "constant": true,
      "inputs": [
        {
          "internalType": "uint256",
          "name": "timestamp",
          "type": "uint256"
        }
      ],
      "name": "getSecond",
      "outputs": [
        {
          "internalType": "uint8",
          "name": "",
          "type": "uint8"
        }
      ],
      "payable": false,
      "stateMutability": "pure",
      "type": "function"
    },
    {
      "constant": true,
      "inputs": [
        {
          "internalType": "uint256",
          "name": "timestamp",
          "type": "uint256"
        }
      ],
      "name": "getWeekday",
      "outputs": [
        {
          "internalType": "uint8",
          "name": "",
          "type": "uint8"
        }
      ],
      "payable": false,
      "stateMutability": "pure",
      "type": "function"
    },
    {
      "constant": true,
      "inputs": [
        {
          "internalType": "uint256",
          "name": "timestamp",
          "type": "uint256"
        }
      ],
      "name": "getYear",
      "outputs": [
        {
          "internalType": "uint16",
          "name": "",
          "type": "uint16"
        }
      ],
      "payable": false,
      "stateMutability": "pure",
      "type": "function"
    },
    {
      "constant": true,
      "inputs": [],
      "name": "investorAddr",
      "outputs": [
        {
          "internalType": "address",
          "name": "",
          "type": "address"
        }
      ],
      "payable": false,
      "stateMutability": "view",
      "type": "function"
    },
    {
      "constant": true,
      "inputs": [
        {
          "internalType": "uint16",
          "name": "year",
          "type": "uint16"
        }
      ],
      "name": "isLeapYear",
      "outputs": [
        {
          "internalType": "bool",
          "name": "",
          "type": "bool"
        }
      ],
      "payable": false,
      "stateMutability": "pure",
      "type": "function"
    },
    {
      "constant": true,
      "inputs": [
        {
          "internalType": "uint256",
          "name": "year",
          "type": "uint256"
        }
      ],
      "name": "leapYearsBefore",
      "outputs": [
        {
          "internalType": "uint256",
          "name": "",
          "type": "uint256"
        }
      ],
      "payable": false,
      "stateMutability": "pure",
      "type": "function"
    },
    {
      "constant": true,
      "inputs": [],
      "name": "owner",
      "outputs": [
        {
          "internalType": "address",
          "name": "",
          "type": "address"
        }
      ],
      "payable": false,
      "stateMutability": "view",
      "type": "function"
    },
    {
      "constant": true,
      "inputs": [],
      "name": "paymentFrequency",
      "outputs": [
        {
          "internalType": "string",
          "name": "",
          "type": "string"
        }
      ],
      "payable": false,
      "stateMutability": "view",
      "type": "function"
    },
    {
      "constant": true,
      "inputs": [],
      "name": "principal",
      "outputs": [
        {
          "internalType": "uint256",
          "name": "",
          "type": "uint256"
        }
      ],
      "payable": false,
      "stateMutability": "view",
      "type": "function"
    },
    {
      "constant": true,
      "inputs": [],
      "name": "profitRate",
      "outputs": [
        {
          "internalType": "string",
          "name": "",
          "type": "string"
        }
      ],
      "payable": false,
      "stateMutability": "view",
      "type": "function"
    },
    {
      "constant": true,
      "inputs": [],
      "name": "tenor",
      "outputs": [
        {
          "internalType": "uint256",
          "name": "",
          "type": "uint256"
        }
      ],
      "payable": false,
      "stateMutability": "view",
      "type": "function"
    },
    {
      "constant": true,
      "inputs": [
        {
          "internalType": "uint16",
          "name": "year",
          "type": "uint16"
        },
        {
          "internalType": "uint8",
          "name": "month",
          "type": "uint8"
        },
        {
          "internalType": "uint8",
          "name": "day",
          "type": "uint8"
        },
        {
          "internalType": "uint8",
          "name": "hour",
          "type": "uint8"
        },
        {
          "internalType": "uint8",
          "name": "minute",
          "type": "uint8"
        }
      ],
      "name": "toTimestamp",
      "outputs": [
        {
          "internalType": "uint256",
          "name": "timestamp",
          "type": "uint256"
        }
      ],
      "payable": false,
      "stateMutability": "pure",
      "type": "function"
    },
    {
      "constant": true,
      "inputs": [
        {
          "internalType": "uint16",
          "name": "year",
          "type": "uint16"
        },
        {
          "internalType": "uint8",
          "name": "month",
          "type": "uint8"
        },
        {
          "internalType": "uint8",
          "name": "day",
          "type": "uint8"
        },
        {
          "internalType": "uint8",
          "name": "hour",
          "type": "uint8"
        }
      ],
      "name": "toTimestamp",
      "outputs": [
        {
          "internalType": "uint256",
          "name": "timestamp",
          "type": "uint256"
        }
      ],
      "payable": false,
      "stateMutability": "pure",
      "type": "function"
    },
    {
      "constant": true,
      "inputs": [
        {
          "internalType": "uint16",
          "name": "year",
          "type": "uint16"
        },
        {
          "internalType": "uint8",
          "name": "month",
          "type": "uint8"
        },
        {
          "internalType": "uint8",
          "name": "day",
          "type": "uint8"
        }
      ],
      "name": "toTimestamp",
      "outputs": [
        {
          "internalType": "uint256",
          "name": "timestamp",
          "type": "uint256"
        }
      ],
      "payable": false,
      "stateMutability": "pure",
      "type": "function"
    },
    {
      "constant": true,
      "inputs": [
        {
          "internalType": "uint16",
          "name": "year",
          "type": "uint16"
        },
        {
          "internalType": "uint8",
          "name": "month",
          "type": "uint8"
        },
        {
          "internalType": "uint8",
          "name": "day",
          "type": "uint8"
        },
        {
          "internalType": "uint8",
          "name": "hour",
          "type": "uint8"
        },
        {
          "internalType": "uint8",
          "name": "minute",
          "type": "uint8"
        },
        {
          "internalType": "uint8",
          "name": "second",
          "type": "uint8"
        }
      ],
      "name": "toTimestamp",
      "outputs": [
        {
          "internalType": "uint256",
          "name": "timestamp",
          "type": "uint256"
        }
      ],
      "payable": false,
      "stateMutability": "pure",
      "type": "function"
    },
    {
      "constant": false,
      "inputs": [
        {
          "internalType": "uint256",
          "name": "_timestamp",
          "type": "uint256"
        },
        {
          "internalType": "uint256",
          "name": "_capital",
          "type": "uint256"
        },
        {
          "internalType": "uint256",
          "name": "_reumn",
          "type": "uint256"
        },
        {
          "internalType": "uint256",
          "name": "_rembCapital",
          "type": "uint256"
        }
      ],
      "name": "ScheduleCoupon",
      "outputs": [
        {
          "internalType": "uint256",
          "name": "",
          "type": "uint256"
        }
      ],
      "payable": false,
      "stateMutability": "nonpayable",
      "type": "function"
    },
    {
      "constant": false,
      "inputs": [
        {
          "internalType": "uint256",
          "name": "_id",
          "type": "uint256"
        },
        {
          "internalType": "string",
          "name": "_status",
          "type": "string"
        },
        {
          "internalType": "string",
          "name": "_mongopayTxId",
          "type": "string"
        },
        {
          "internalType": "uint256",
          "name": "_value",
          "type": "uint256"
        }
      ],
      "name": "UpdateCoupon",
      "outputs": [
        {
          "internalType": "bool",
          "name": "",
          "type": "bool"
        }
      ],
      "payable": false,
      "stateMutability": "nonpayable",
      "type": "function"
    },
    {
      "constant": false,
      "inputs": [
        {
          "internalType": "uint256",
          "name": "_year",
          "type": "uint256"
        }
      ],
      "name": "TotalCouponsPerYear",
      "outputs": [
        {
          "internalType": "uint256",
          "name": "",
          "type": "uint256"
        }
      ],
      "payable": false,
      "stateMutability": "nonpayable",
      "type": "function"
    }
  ],
  "bytecode": "0x6080604052600a6002556040518060400160405280600b81526020017f53656d692d416e6e75616c000000000000000000000000000000000000000000815250600390805190602001906200005692919062000428565b503480156200006457600080fd5b506040516200365838038062003658833981810160405260808110156200008a57600080fd5b8101908080516040519392919084640100000000821115620000ab57600080fd5b83820191506020820185811115620000c257600080fd5b8251866001820283011164010000000082111715620000e057600080fd5b8083526020830192505050908051906020019080838360005b8381101562000116578082015181840152602081019050620000f9565b50505050905090810190601f168015620001445780820380516001836020036101000a031916815260200191505b506040526020018051906020019092919080519060200190929190805190602001909291905050506000845111620001c8576040517f08c379a0000000000000000000000000000000000000000000000000000000008152600401808060200182810382526021815260200180620035ec6021913960400191505060405180910390fd5b600083141562000224576040517f08c379a0000000000000000000000000000000000000000000000000000000008152600401808060200182810382526024815260200180620035c86024913960400191505060405180910390fd5b600073ffffffffffffffffffffffffffffffffffffffff168173ffffffffffffffffffffffffffffffffffffffff161415620002ac576040517f08c379a00000000000000000000000000000000000000000000000000000000081526004018080602001828103825260268152602001806200360d6026913960400191505060405180910390fd5b600073ffffffffffffffffffffffffffffffffffffffff168273ffffffffffffffffffffffffffffffffffffffff16141562000334576040517f08c379a0000000000000000000000000000000000000000000000000000000008152600401808060200182810382526025815260200180620036336025913960400191505060405180910390fd5b336000806101000a81548173ffffffffffffffffffffffffffffffffffffffff021916908373ffffffffffffffffffffffffffffffffffffffff16021790555083600490805190602001906200038c92919062000428565b508260058190555080600760006101000a81548173ffffffffffffffffffffffffffffffffffffffff021916908373ffffffffffffffffffffffffffffffffffffffff16021790555081600660006101000a81548173ffffffffffffffffffffffffffffffffffffffff021916908373ffffffffffffffffffffffffffffffffffffffff160217905550600060018190555050505050620004d7565b828054600181600116156101000203166002900490600052602060002090601f016020900481019282601f106200046b57805160ff19168380011785556200049c565b828001600101855582156200049c579182015b828111156200049b5782518255916020019190600101906200047e565b5b509050620004ab9190620004af565b5090565b620004d491905b80821115620004d0576000816000905550600101620004b6565b5090565b90565b6130e180620004e76000396000f3fe608060405234801561001057600080fd5b506004361061018e5760003560e01c806392d66313116100de578063b238ad0e11610097578063ee2a0b8f11610071578063ee2a0b8f1461096b578063fa93f883146109cb578063fb5ba44914610a13578063fd023d7114610a5d5761018e565b8063b238ad0e146108b2578063ba5d30781461090b578063e35e8f28146109295761018e565b806392d663131461072c578063a15612d114610776578063a324ad2414610794578063a6f0e577146107dc578063acc4cc5014610826578063b1999937146108705761018e565b80636e79b84a1161014b5780638c8d98a0116101255780638c8d98a0146105785780638da5cb5b146105d85780638e589315146106225780639054bdec146106a55761018e565b80636e79b84a146104a55780637f791833146104c35780638aa001fc146105305761018e565b806330828e92146101935780633e239e1a146102d05780634ac1ad781461031857806362ba9687146103605780636388749c146103da57806365c728401461045d575b600080fd5b6101bf600480360360208110156101a957600080fd5b8101908080359060200190929190505050610bdb565b604051808981526020018881526020018781526020018681526020018581526020018060200180602001848152602001838103835286818151815260200191508051906020019080838360005b8381101561022757808201518184015260208101905061020c565b50505050905090810190601f1680156102545780820380516001836020036101000a031916815260200191505b50838103825285818151815260200191508051906020019080838360005b8381101561028d578082015181840152602081019050610272565b50505050905090810190601f1680156102ba5780820380516001836020036101000a031916815260200191505b509a505050505050505050505060405180910390f35b6102fc600480360360208110156102e657600080fd5b8101908080359060200190929190505050610d53565b604051808260ff1660ff16815260200191505060405180910390f35b6103446004803603602081101561032e57600080fd5b8101908080359060200190929190505050610d7a565b604051808260ff1660ff16815260200191505060405180910390f35b6103c4600480360360a081101561037657600080fd5b81019080803561ffff169060200190929190803560ff169060200190929190803560ff169060200190929190803560ff169060200190929190803560ff169060200190929190505050610d9d565b6040518082815260200191505060405180910390f35b6103e2610db9565b6040518080602001828103825283818151815260200191508051906020019080838360005b83811015610422578082015181840152602081019050610407565b50505050905090810190601f16801561044f5780820380516001836020036101000a031916815260200191505b509250505060405180910390f35b6104896004803603602081101561047357600080fd5b8101908080359060200190929190505050610e57565b604051808260ff1660ff16815260200191505060405180910390f35b6104ad610e6d565b6040518082815260200191505060405180910390f35b61051a600480360360808110156104d957600080fd5b81019080803561ffff169060200190929190803560ff169060200190929190803560ff169060200190929190803560ff169060200190929190505050610e73565b6040518082815260200191505060405180910390f35b61055c6004803603602081101561054657600080fd5b8101908080359060200190929190505050610e8e565b604051808260ff1660ff16815260200191505060405180910390f35b6105c26004803603606081101561058e57600080fd5b81019080803561ffff169060200190929190803560ff169060200190929190803560ff169060200190929190505050610ea2565b6040518082815260200191505060405180910390f35b6105e0610ebd565b604051808273ffffffffffffffffffffffffffffffffffffffff1673ffffffffffffffffffffffffffffffffffffffff16815260200191505060405180910390f35b61062a610ee2565b6040518080602001828103825283818151815260200191508051906020019080838360005b8381101561066a57808201518184015260208101905061064f565b50505050905090810190601f1680156106975780820380516001836020036101000a031916815260200191505b509250505060405180910390f35b610716600480360360c08110156106bb57600080fd5b81019080803561ffff169060200190929190803560ff169060200190929190803560ff169060200190929190803560ff169060200190929190803560ff169060200190929190803560ff169060200190929190505050610f80565b6040518082815260200191505060405180910390f35b6107586004803603602081101561074257600080fd5b810190808035906020019092919050505061120b565b604051808261ffff1661ffff16815260200191505060405180910390f35b61077e6112b4565b6040518082815260200191505060405180910390f35b6107c0600480360360208110156107aa57600080fd5b81019080803590602001909291905050506112ba565b604051808260ff1660ff16815260200191505060405180910390f35b61080c600480360360208110156107f257600080fd5b81019080803561ffff1690602001909291905050506112d0565b604051808215151515815260200191505060405180910390f35b61082e611345565b604051808273ffffffffffffffffffffffffffffffffffffffff1673ffffffffffffffffffffffffffffffffffffffff16815260200191505060405180910390f35b61089c6004803603602081101561088657600080fd5b810190808035906020019092919050505061136b565b6040518082815260200191505060405180910390f35b6108ef600480360360408110156108c857600080fd5b81019080803560ff169060200190929190803561ffff16906020019092919050505061139e565b604051808260ff1660ff16815260200191505060405180910390f35b61091361146a565b6040518082815260200191505060405180910390f35b6109556004803603602081101561093f57600080fd5b8101908080359060200190929190505050611470565b6040518082815260200191505060405180910390f35b6109b56004803603608081101561098157600080fd5b8101908080359060200190929190803590602001909291908035906020019092919080359060200190929190505050611636565b6040518082815260200191505060405180910390f35b6109f7600480360360208110156109e157600080fd5b81019080803590602001909291905050506119aa565b604051808260ff1660ff16815260200191505060405180910390f35b610a1b6119c7565b604051808273ffffffffffffffffffffffffffffffffffffffff1673ffffffffffffffffffffffffffffffffffffffff16815260200191505060405180910390f35b610bc160048036036080811015610a7357600080fd5b810190808035906020019092919080359060200190640100000000811115610a9a57600080fd5b820183602082011115610aac57600080fd5b80359060200191846001830284011164010000000083111715610ace57600080fd5b91908080601f016020809104026020016040519081016040528093929190818152602001838380828437600081840152601f19601f82011690508083019250505050505050919291929080359060200190640100000000811115610b3157600080fd5b820183602082011115610b4357600080fd5b80359060200191846001830284011164010000000083111715610b6557600080fd5b91908080601f016020809104026020016040519081016040528093929190818152602001838380828437600081840152601f19601f820116905080830192505050505050509192919290803590602001909291905050506119ed565b604051808215151515815260200191505060405180910390f35b6008602052806000526040600020600091509050806000015490806001015490806002015490806003015490806004015490806005018054600181600116156101000203166002900480601f016020809104026020016040519081016040528092919081815260200182805460018160011615610100020316600290048015610ca55780601f10610c7a57610100808354040283529160200191610ca5565b820191906000526020600020905b815481529060010190602001808311610c8857829003601f168201915b505050505090806006018054600181600116156101000203166002900480601f016020809104026020016040519081016040528092919081815260200182805460018160011615610100020316600290048015610d435780601f10610d1857610100808354040283529160200191610d43565b820191906000526020600020905b815481529060010190602001808311610d2657829003601f168201915b5050505050908060070154905088565b60006018603c808481610d6257fe5b0481610d6a57fe5b0481610d7257fe5b069050919050565b600060076004620151808481610d8c57fe5b040181610d9557fe5b069050919050565b6000610dae86868686866000610f80565b905095945050505050565b60048054600181600116156101000203166002900480601f016020809104026020016040519081016040528092919081815260200182805460018160011615610100020316600290048015610e4f5780601f10610e2457610100808354040283529160200191610e4f565b820191906000526020600020905b815481529060010190602001808311610e3257829003601f168201915b505050505081565b6000610e6282611d9d565b604001519050919050565b60015481565b6000610e8485858585600080610f80565b9050949350505050565b6000603c8281610e9a57fe5b069050919050565b6000610eb48484846000806000610f80565b90509392505050565b6000809054906101000a900473ffffffffffffffffffffffffffffffffffffffff1681565b60038054600181600116156101000203166002900480601f016020809104026020016040519081016040528092919081815260200182805460018160011615610100020316600290048015610f785780601f10610f4d57610100808354040283529160200191610f78565b820191906000526020600020905b815481529060010190602001808311610f5b57829003601f168201915b505050505081565b6000806107b290505b8761ffff168161ffff161015610fcc57610fa2816112d0565b15610fb5576301e2850082019150610fbf565b6301e13380820191505b8080600101915050610f89565b610fd4611fc2565b601f816000600c8110610fe357fe5b602002019060ff16908160ff1681525050610ffd896112d0565b1561102757601d816001600c811061101157fe5b602002019060ff16908160ff1681525050611048565b601c816001600c811061103657fe5b602002019060ff16908160ff16815250505b601f816002600c811061105757fe5b602002019060ff16908160ff1681525050601e816003600c811061107757fe5b602002019060ff16908160ff1681525050601f816004600c811061109757fe5b602002019060ff16908160ff1681525050601e816005600c81106110b757fe5b602002019060ff16908160ff1681525050601f816006600c81106110d757fe5b602002019060ff16908160ff1681525050601f816007600c81106110f757fe5b602002019060ff16908160ff1681525050601e816008600c811061111757fe5b602002019060ff16908160ff1681525050601f816009600c811061113757fe5b602002019060ff16908160ff1681525050601e81600a600c811061115757fe5b602002019060ff16908160ff1681525050601f81600b600c811061117757fe5b602002019060ff16908160ff1681525050600191505b8760ff168261ffff1610156111cd57806001830361ffff16600c81106111af57fe5b602002015160ff16620151800283019250818060010192505061118d565b6001870360ff166201518002830192508560ff16610e1002830192508460ff16603c02830192508360ff168301925082925050509695505050505050565b600080600090506000806301e13380858161122257fe5b046107b261ffff1601915061123c6107b261ffff1661136b565b6112498361ffff1661136b565b039050806301e285000283019250806107b2830361ffff16036301e1338002830192505b848311156112a957611281600183036112d0565b15611294576301e285008303925061129e565b6301e13380830392505b60018203915061126d565b819350505050919050565b60025481565b60006112c582611d9d565b602001519050919050565b60008060048361ffff16816112e157fe5b0661ffff16146112f45760009050611340565b600060648361ffff168161130457fe5b0661ffff16146113175760019050611340565b60006101908361ffff168161132857fe5b0661ffff161461133b5760009050611340565b600190505b919050565b600760009054906101000a900473ffffffffffffffffffffffffffffffffffffffff1681565b6000600182039150610190828161137e57fe5b046064838161138957fe5b046004848161139457fe5b0403019050919050565b600060018360ff1614806113b5575060038360ff16145b806113c3575060058360ff16145b806113d1575060078360ff16145b806113df575060088360ff16145b806113ed5750600a8360ff16145b806113fb5750600c8360ff16145b1561140957601f9050611464565b60048360ff16148061141e575060068360ff16145b8061142c575060098360ff16145b8061143a5750600b8360ff16145b1561144857601e9050611464565b611451826112d0565b1561145f57601d9050611464565b601c90505b92915050565b60055481565b60006107e4821015801561148557506107ee82105b6114f7576040517f08c379a000000000000000000000000000000000000000000000000000000000815260040180806020018281038252601f8152602001807f4572726f723131343a20496e76616c69642076616c7565206f6620796561720081525060200191505060405180910390fd5b600060405161150590611fe5565b604051809103906000f080158015611521573d6000803e3d6000fd5b5090506000809050600080600090505b60015481101561162a576000600860008381526020019081526020016000206001015490508473ffffffffffffffffffffffffffffffffffffffff166392d66313826040518263ffffffff1660e01b81526004018082815260200191505060206040518083038186803b1580156115a757600080fd5b505afa1580156115bb573d6000803e3d6000fd5b505050506040513d60208110156115d157600080fd5b810190808051906020019092919050505061ffff1692508287141561161c57611619600860008481526020019081526020016000206007015485611f3a90919063ffffffff16565b93505b508080600101915050611531565b50819350505050919050565b6000635ea6f99c8511611694576040517f08c379a00000000000000000000000000000000000000000000000000000000081526004018080602001828103825260388152602001806130496038913960400191505060405180910390fd5b600084116116ed576040517f08c379a000000000000000000000000000000000000000000000000000000000815260040180806020018281038252602e815260200180612f82602e913960400191505060405180910390fd5b60008311611746576040517f08c379a000000000000000000000000000000000000000000000000000000000815260040180806020018281038252602c815260200180613081602c913960400191505060405180910390fd5b6000821161179f576040517f08c379a0000000000000000000000000000000000000000000000000000000008152600401808060200182810382526033815260200180612fb06033913960400191505060405180910390fd5b60018054016001819055506117b2611ff2565b600154816000018181525050858160200181815250508481604001818152505083816060018181525050828160800181815250506040518060400160405280600781526020017f50656e64696e67000000000000000000000000000000000000000000000000008152508160a00181905250604051806020016040528060008152508160c0018190525060008160e00181815250506000868686866040516020018085815260200184815260200183815260200182815260200194505050505060405160208183030381529060405280519060200120905081600860006001548152602001908152602001600020600082015181600001556020820151816001015560408201518160020155606082015181600301556080820151816004015560a08201518160050190805190602001906118ee929190612037565b5060c082015181600601908051906020019061190b929190612037565b5060e082015181600701559050507fb6dc961742690afc4ec6805fad9fa8364aa807987b7e8d9aa7785e452b538c5460015488836040518084815260200183815260200180602001838152602001828103825260078152602001807f50656e64696e670000000000000000000000000000000000000000000000000081525060200194505050505060405180910390a160015492505050949350505050565b6000603c8083816119b757fe5b04816119bf57fe5b069050919050565b600660009054906101000a900473ffffffffffffffffffffffffffffffffffffffff1681565b6000808511611a64576040517f08c379a000000000000000000000000000000000000000000000000000000000815260040180806020018281038252601a8152602001807f4572726f723131383a20496e76616c69642049642076616c756500000000000081525060200191505060405180910390fd5b6000600860008781526020019081526020016000206000015411611af0576040517f08c379a000000000000000000000000000000000000000000000000000000000815260040180806020018281038252601f8152602001807f4572726f723130393a20436f75706f6e20646f6573206e6f742045786973740081525060200191505060405180910390fd5b60008511611b49576040517f08c379a000000000000000000000000000000000000000000000000000000000815260040180806020018281038252602c81526020018061301d602c913960400191505060405180910390fd5b6000845111611bc0576040517f08c379a000000000000000000000000000000000000000000000000000000000815260040180806020018281038252601c8152602001807f4572726f723131313a205374617475732069732072657175697265640000000081525060200191505060405180910390fd5b6000835111611c1a576040517f08c379a000000000000000000000000000000000000000000000000000000000815260040180806020018281038252602d815260200180612f55602d913960400191505060405180910390fd5b6000821015611c74576040517f08c379a000000000000000000000000000000000000000000000000000000000815260040180806020018281038252603a815260200180612fe3603a913960400191505060405180910390fd5b83600860008781526020019081526020016000206005019080519060200190611c9e9291906120b7565b5082600860008781526020019081526020016000206006019080519060200190611cc99291906120b7565b508160086000878152602001908152602001600020600701819055507f4b5eb77d82f52d4e1b19c441c22ccbd460eed2ddc6fcea50f9c2eb39543c3e368585846040518084815260200180602001838152602001828103825284818151815260200191508051906020019080838360005b83811015611d55578082015181840152602081019050611d3a565b50505050905090810190601f168015611d825780820380516001836020036101000a031916815260200191505b5094505050505060405180910390a160019050949350505050565b611da5612137565b6000809050600080611db68561120b565b846000019061ffff16908161ffff1681525050611dd86107b261ffff1661136b565b611de9856000015161ffff1661136b565b039150816301e285000283019250816107b285600001510361ffff16036301e1338002830192506000600191505b600c8260ff1611611e6d57611e3082866000015161139e565b60ff1662015180029050858482011115611e5b5781856020019060ff16908160ff1681525050611e6d565b80840193508180600101925050611e17565b600191505b611e848560200151866000015161139e565b60ff168260ff1611611ec957858462015180011115611eb45781856040019060ff16908160ff1681525050611ec9565b62015180840193508180600101925050611e72565b611ed286610d53565b856060019060ff16908160ff1681525050611eec866119aa565b856080019060ff16908160ff1681525050611f0686610e8e565b8560a0019060ff16908160ff1681525050611f2086610d7a565b8560c0019060ff16908160ff168152505050505050919050565b600080828401905083811015611fb8576040517f08c379a000000000000000000000000000000000000000000000000000000000815260040180806020018281038252601b8152602001807f536166654d6174683a206164646974696f6e206f766572666c6f77000000000081525060200191505060405180910390fd5b8091505092915050565b604051806101800160405280600c90602082028038833980820191505090505090565b610da5806121b083390190565b60405180610100016040528060008152602001600081526020016000815260200160008152602001600081526020016060815260200160608152602001600081525090565b828054600181600116156101000203166002900490600052602060002090601f016020900481019282601f1061207857805160ff19168380011785556120a6565b828001600101855582156120a6579182015b828111156120a557825182559160200191906001019061208a565b5b5090506120b3919061218a565b5090565b828054600181600116156101000203166002900490600052602060002090601f016020900481019282601f106120f857805160ff1916838001178555612126565b82800160010185558215612126579182015b8281111561212557825182559160200191906001019061210a565b5b509050612133919061218a565b5090565b6040518060e00160405280600061ffff168152602001600060ff168152602001600060ff168152602001600060ff168152602001600060ff168152602001600060ff168152602001600060ff1681525090565b6121ac91905b808211156121a8576000816000905550600101612190565b5090565b9056fe608060405234801561001057600080fd5b50610d85806100206000396000f3fe608060405234801561001057600080fd5b50600436106100ea5760003560e01c80639054bdec1161008c578063a6f0e57711610066578063a6f0e5771461046f578063b1999937146104b9578063b238ad0e146104fb578063fa93f88314610554576100ea565b80639054bdec1461035657806392d66313146103dd578063a324ad2414610427576100ea565b806365c72840116100c857806365c72840146101f95780637f791833146102415780638aa001fc146102ae5780638c8d98a0146102f6576100ea565b80633e239e1a146100ef5780634ac1ad781461013757806362ba96871461017f575b600080fd5b61011b6004803603602081101561010557600080fd5b810190808035906020019092919050505061059c565b604051808260ff1660ff16815260200191505060405180910390f35b6101636004803603602081101561014d57600080fd5b81019080803590602001909291905050506105c3565b604051808260ff1660ff16815260200191505060405180910390f35b6101e3600480360360a081101561019557600080fd5b81019080803561ffff169060200190929190803560ff169060200190929190803560ff169060200190929190803560ff169060200190929190803560ff1690602001909291905050506105e6565b6040518082815260200191505060405180910390f35b6102256004803603602081101561020f57600080fd5b8101908080359060200190929190505050610602565b604051808260ff1660ff16815260200191505060405180910390f35b6102986004803603608081101561025757600080fd5b81019080803561ffff169060200190929190803560ff169060200190929190803560ff169060200190929190803560ff169060200190929190505050610618565b6040518082815260200191505060405180910390f35b6102da600480360360208110156102c457600080fd5b8101908080359060200190929190505050610633565b604051808260ff1660ff16815260200191505060405180910390f35b6103406004803603606081101561030c57600080fd5b81019080803561ffff169060200190929190803560ff169060200190929190803560ff169060200190929190505050610647565b6040518082815260200191505060405180910390f35b6103c7600480360360c081101561036c57600080fd5b81019080803561ffff169060200190929190803560ff169060200190929190803560ff169060200190929190803560ff169060200190929190803560ff169060200190929190803560ff169060200190929190505050610662565b6040518082815260200191505060405180910390f35b610409600480360360208110156103f357600080fd5b81019080803590602001909291905050506108ed565b604051808261ffff1661ffff16815260200191505060405180910390f35b6104536004803603602081101561043d57600080fd5b8101908080359060200190929190505050610996565b604051808260ff1660ff16815260200191505060405180910390f35b61049f6004803603602081101561048557600080fd5b81019080803561ffff1690602001909291905050506109ac565b604051808215151515815260200191505060405180910390f35b6104e5600480360360208110156104cf57600080fd5b8101908080359060200190929190505050610a21565b6040518082815260200191505060405180910390f35b6105386004803603604081101561051157600080fd5b81019080803560ff169060200190929190803561ffff169060200190929190505050610a54565b604051808260ff1660ff16815260200191505060405180910390f35b6105806004803603602081101561056a57600080fd5b8101908080359060200190929190505050610b20565b604051808260ff1660ff16815260200191505060405180910390f35b60006018603c8084816105ab57fe5b04816105b357fe5b04816105bb57fe5b069050919050565b6000600760046201518084816105d557fe5b0401816105de57fe5b069050919050565b60006105f786868686866000610662565b905095945050505050565b600061060d82610b3d565b604001519050919050565b600061062985858585600080610662565b9050949350505050565b6000603c828161063f57fe5b069050919050565b60006106598484846000806000610662565b90509392505050565b6000806107b290505b8761ffff168161ffff1610156106ae57610684816109ac565b15610697576301e28500820191506106a1565b6301e13380820191505b808060010191505061066b565b6106b6610cda565b601f816000600c81106106c557fe5b602002019060ff16908160ff16815250506106df896109ac565b1561070957601d816001600c81106106f357fe5b602002019060ff16908160ff168152505061072a565b601c816001600c811061071857fe5b602002019060ff16908160ff16815250505b601f816002600c811061073957fe5b602002019060ff16908160ff1681525050601e816003600c811061075957fe5b602002019060ff16908160ff1681525050601f816004600c811061077957fe5b602002019060ff16908160ff1681525050601e816005600c811061079957fe5b602002019060ff16908160ff1681525050601f816006600c81106107b957fe5b602002019060ff16908160ff1681525050601f816007600c81106107d957fe5b602002019060ff16908160ff1681525050601e816008600c81106107f957fe5b602002019060ff16908160ff1681525050601f816009600c811061081957fe5b602002019060ff16908160ff1681525050601e81600a600c811061083957fe5b602002019060ff16908160ff1681525050601f81600b600c811061085957fe5b602002019060ff16908160ff1681525050600191505b8760ff168261ffff1610156108af57806001830361ffff16600c811061089157fe5b602002015160ff16620151800283019250818060010192505061086f565b6001870360ff166201518002830192508560ff16610e1002830192508460ff16603c02830192508360ff168301925082925050509695505050505050565b600080600090506000806301e13380858161090457fe5b046107b261ffff1601915061091e6107b261ffff16610a21565b61092b8361ffff16610a21565b039050806301e285000283019250806107b2830361ffff16036301e1338002830192505b8483111561098b57610963600183036109ac565b15610976576301e2850083039250610980565b6301e13380830392505b60018203915061094f565b819350505050919050565b60006109a182610b3d565b602001519050919050565b60008060048361ffff16816109bd57fe5b0661ffff16146109d05760009050610a1c565b600060648361ffff16816109e057fe5b0661ffff16146109f35760019050610a1c565b60006101908361ffff1681610a0457fe5b0661ffff1614610a175760009050610a1c565b600190505b919050565b60006001820391506101908281610a3457fe5b0460648381610a3f57fe5b0460048481610a4a57fe5b0403019050919050565b600060018360ff161480610a6b575060038360ff16145b80610a79575060058360ff16145b80610a87575060078360ff16145b80610a95575060088360ff16145b80610aa35750600a8360ff16145b80610ab15750600c8360ff16145b15610abf57601f9050610b1a565b60048360ff161480610ad4575060068360ff16145b80610ae2575060098360ff16145b80610af05750600b8360ff16145b15610afe57601e9050610b1a565b610b07826109ac565b15610b1557601d9050610b1a565b601c90505b92915050565b6000603c808381610b2d57fe5b0481610b3557fe5b069050919050565b610b45610cfd565b6000809050600080610b56856108ed565b846000019061ffff16908161ffff1681525050610b786107b261ffff16610a21565b610b89856000015161ffff16610a21565b039150816301e285000283019250816107b285600001510361ffff16036301e1338002830192506000600191505b600c8260ff1611610c0d57610bd0828660000151610a54565b60ff1662015180029050858482011115610bfb5781856020019060ff16908160ff1681525050610c0d565b80840193508180600101925050610bb7565b600191505b610c2485602001518660000151610a54565b60ff168260ff1611610c6957858462015180011115610c545781856040019060ff16908160ff1681525050610c69565b62015180840193508180600101925050610c12565b610c728661059c565b856060019060ff16908160ff1681525050610c8c86610b20565b856080019060ff16908160ff1681525050610ca686610633565b8560a0019060ff16908160ff1681525050610cc0866105c3565b8560c0019060ff16908160ff168152505050505050919050565b604051806101800160405280600c90602082028038833980820191505090505090565b6040518060e00160405280600061ffff168152602001600060ff168152602001600060ff168152602001600060ff168152602001600060ff168152602001600060ff168152602001600060ff168152509056fea265627a7a72315820816f09939744b2bd31b62ccb73443a3304226e80cb6a091ba4bc4222d2919ec364736f6c634300050c00324572726f723131323a204d6f6e676f506179207472616e73616374696f6e2049642069732072657175697265644572726f723130363a204361706974616c20677261746572207468616e207a65726f2069732072657175697265644572726f723130383a2052656d62204361706974616c20677261746572207468616e207a65726f2069732072657175697265644572726f723131333a20436f75706f6e2076616c75652073686f756c6420677265746572207468616e206f7220657175616c20746f207a65726f4572726f723131303a204e6f6e65205a65726f2076616c756520697320726571756972656420666f722049644572726f723130353a2054696d657374616d702073686f756c6420626520677261746572207468616e2032372c20417072696c20323032304572726f723130373a205265756d6e20677261746572207468616e207a65726f206973207265717569726564a265627a7a72315820a5b483e06a828a6e6de75aaac35aa86eab21e8ed589365cd5266c1bd807a659e64736f6c634300050c00324572726f723130323a205072696e6963616c2076616c75652069732072657175697265644572726f723130313a2050726f66697420726174652069732072657175697265644572726f723130333a20496e766573746f7220616464726573732069732072657175697265644572726f723130343a204f626c69676f722061646472657373206973207265717569726564",
  "source": "pragma solidity ^0.5.12;\n\nimport './DateTime.sol';\nimport './SafeMath.sol';\n\n//----------------------------------------------------------------------------\n// CXC Sukuk Smart Contract\n//----------------------------------------------------------------------------\n\ncontract CXCSukuk is DateTime {\n    using SafeMath for uint256;\n    address public owner;\n    uint256 public NumberOfCoupons;\n    uint256 public tenor = 10;\n    string public paymentFrequency = 'Semi-Annual';\n    string public profitRate;\n    uint256 public principal;\n\n    address public SPVAddr;\n    address public investorAddr;\n\n    // Data strucure\n    struct Coupon{\n        uint256 id;\n        uint timestamp;\n        uint256 capital;\n        uint256 reumn;\n        uint256 rembCapital;\n        string status;\n        string mongopayTxId;\n        uint256 value;\n    }\n\n    mapping(uint256 => Coupon) public coupons;\n\n    // Event of scheduled coupon\n    event ScheduleCouponEvent(uint256 id,uint256 timestamp, string status, bytes32 couponHash);\n\n    // Event of updating of a scheduled coupon\n    event UpdateCouponEvent(uint256 id, string status, uint256 value);\n\n    constructor (string memory _profitRate, uint256 _principal, address _SPVAddr, address _investorAddr ) public {\n        require(bytes(_profitRate).length > 0, 'Error101: Profit rate is required');\n        require(_principal != 0, 'Error102: Prinical value is required');\n        require(_investorAddr != address(0x0), 'Error103: Investor address is required');\n        require(_SPVAddr != address(0x0), 'Error104: Obligor address is required');\n        owner = msg.sender;\n        profitRate = _profitRate;\n        principal = _principal;\n        investorAddr = _investorAddr;\n        SPVAddr = _SPVAddr;\n        NumberOfCoupons = 0;\n    }\n\n    //Schedule coupon\n    function ScheduleCoupon(uint256 _timestamp, uint256 _capital, uint256 _reumn, uint256 _rembCapital ) public returns (uint256){\n\n        require(_timestamp > 1588001180, 'Error105: Timestamp should be grater than 27, April 2020'); //1588001180=Monday,April27,202011:54:25PM\n        require(_capital > 0, 'Error106: Capital grater than zero is required');\n        require(_reumn > 0, 'Error107: Reumn grater than zero is required');\n        require(_rembCapital > 0, 'Error108: Remb Capital grater than zero is required');\n\n        NumberOfCoupons = NumberOfCoupons+1;\n        Coupon memory _coupon;\n        _coupon.id = NumberOfCoupons;\n        _coupon.timestamp = _timestamp;\n        _coupon.capital = _capital;\n        _coupon.reumn = _reumn;\n        _coupon.rembCapital = _rembCapital;\n        _coupon.status = \"Pending\";\n        _coupon.mongopayTxId = \"\";\n        _coupon.value = 0;\n\n        bytes32 couponHash = keccak256(abi.encodePacked (_timestamp, _capital, _reumn, _rembCapital));\n        coupons[NumberOfCoupons] = _coupon;\n        emit ScheduleCouponEvent(NumberOfCoupons, _timestamp, \"Pending\", couponHash);\n        return NumberOfCoupons;\n    }\n\n   //Update coupon status\n   function UpdateCoupon(uint256 _id, string memory _status, string memory _mongopayTxId, uint256 _value) public returns (bool)\n   {\n      require(_id > 0, 'Error118: Invalid Id value');\n      require(coupons[_id].id > 0, 'Error109: Coupon does not Exist');\n      require(_id > 0, 'Error110: None Zero value is required for Id');\n      require(bytes(_status).length > 0, 'Error111: Status is required');\n      require(bytes(_mongopayTxId).length > 0, 'Error112: MongoPay transaction Id is required');\n      require(_value >= 0, 'Error113: Coupon value should greter than or equal to zero');\n        coupons[_id].status = _status;\n        coupons[_id].mongopayTxId = _mongopayTxId;\n        coupons[_id].value = _value;\n\n        emit UpdateCouponEvent(_id, _status, _value);\n        return true;\n   }\n\n    // Get total coupons value per year\n    function TotalCouponsPerYear(uint256 _year) public returns(uint256)\n    {\n       require(_year>=2020 && _year < 2030, 'Error114: Invalid value of year');\n        // Invoce Datatime smart contract\n        DateTime date = new DateTime();\n        uint256 totalCoupons = 0;\n        uint256 year;\n        \n        for(uint256 i = 0; i < NumberOfCoupons; i++)\n        {\n            uint256 temp = coupons[i].timestamp;\n            year = date.getYear(temp);\n            if(_year==year)\n            {\n                totalCoupons = totalCoupons.add(coupons[i].value);\n            }\n        }\n        return totalCoupons;\n    }\n}",
  "sourcePath": "/Users/wazenshbair/SnT/EEthique/blockchain-based-sukuk/truffle/contracts/CxCSukuk.sol",
  "compiler": {
    "name": "solc",
    "version": "0.5.12+commit.7709ece9.Emscripten.clang"
  },
  "schemaVersion": "3.0.18",
  "updatedAt": "2020-05-27T23:31:33.683Z",
  "networkType": "ethereum",
  "devdoc": {
    "methods": {}
  },
  "userdoc": {
    "methods": {}
  }
}