{
  "contractName": "Addition",
  "abi": [
    {
      "constant": true,
      "inputs": [],
      "name": "sum",
      "outputs": [
        {
          "name": "",
          "type": "int256"
        }
      ],
      "payable": false,
      "stateMutability": "view",
      "type": "function"
    },
    {
      "constant": false,
      "inputs": [
        {
          "name": "x",
          "type": "int256"
        },
        {
          "name": "y",
          "type": "int256"
        }
      ],
      "name": "add",
      "outputs": [],
      "payable": false,
      "stateMutability": "nonpayable",
      "type": "function"
    }
  ],
  "bytecode": "0x60806040526000805534801561001457600080fd5b5060c7806100236000396000f3fe6080604052348015600f57600080fd5b506004361060325760003560e01c8063853255cc146037578063a5f3c23b146053575b600080fd5b603d6088565b6040518082815260200191505060405180910390f35b608660048036036040811015606757600080fd5b810190808035906020019092919080359060200190929190505050608e565b005b60005481565b808201600081905550505056fea165627a7a72305820cd20bb5d8246f06dc92eebcffeddd117e6b60ca10214c14ef625ea0fd9518f8b0029",
  "source": "pragma solidity ^0.5.8;\r\n\r\ncontract Addition {\r\n  int public sum = 0;\r\n\r\nfunction add (int x, int y) public {\r\n    sum = x + y;\r\n  }\r\n}",
  "sourcePath": "D:/SnT/Ethiq-Zakahh-FairChain/drizzle/contracts/Addition.sol",
  "compiler": {
    "name": "solc",
    "version": "0.5.8+commit.23d335f2.Emscripten.clang"
  },
  "schemaVersion": "3.0.16",
  "updatedAt": "2019-10-24T13:09:32.054Z",
  "devdoc": {
    "methods": {}
  },
  "userdoc": {
    "methods": {}
  }
}